S013000043616C656E6461725F30312E7372656337
S11300000C9439000C948B110C94F3110C944F1232
S11300100C9456000C9456000C9456000C94560004
S11300200C9456000C9456000C9456000C94360E06
S11300300C9456000C9456000C9456000C945600E4
S11300400C9456000C9456000C9456000C945600D4
S11300500C94560005A84CCDB2D44EB93836A9023A
S11300600C50B9918688083CA6AAAA2ABE000000B2
S1130070803F11241FBECFE5D8E0DEBFCDBF10E026
S1130080A0E6B0E0E8EFF3E302C005900D92A43CD3
S1130090B107D9F720E0A4ECB0E001C01D92AA3E5C
S11300A0B207E1F70E94A80D0C94FA190C94000011
S11300B011B880E280B984E886BF089594EA96BFB7
S11300C006B607FEFDCF91B1987F983011F081B14B
S11300D0089590ED93B994E896BF06B607FEFDCF58
S11300E091B1987F983111F081B1089583B984E872
S11300F086BF06B607FEFDCF81B1887F883211F036
S113010081B1089584E986BF80E0089594EA96BF9A
S113011006B607FEFDCF91B1987F983011F081B1FA
S1130120089590ED93B994E896BF06B607FEFDCF07
S113013091B1987F983111F081B1089583B984E821
S113014086BF06B607FEFDCF81B1887F8832A1F055
S113015081B10895FB01E80FF11D908193B994E8F2
S113016096BF06B607FEFDCF91B1987F983211F085
S113017081B108958F5F01C080E0841758F384E94A
S113018086BF80E00895DC0184EA86BF06B607FED8
S1130190FDCF81B1887F8830C9F781ED83B984E8C8
S11301A086BF06B607FEFDCF91B1987F9034C9F79C
S11301B020E00FC084EC86BF06B607FEFDCF91B1E8
S11301C0987F9035C9F7FD01E20FF11D83B180835B
S11301D02F5FE22FF0E0462F50E041505109E41721
S11301E0F50744F384E886BF06B607FEFDCF91B158
S11301F0987F9835C9F7862F90E00197A80FB91F0B
S113020083B18C9384E986BF80E008958BB3806FBB
S11302108BBB8AB38F708ABB8BB384608BBB8BB36D
S113022084608BBB99B3907F8BB38B7F8BBB8BB379
S113023084608BBB8BB384608BBB89B32BB32B7F64
S11302402BBB82958F70892B08952BB32F70382F79
S1130250307F40E1849FC0011124922F932B9BBBDC
S11302609BB394609BBB9BB39B7F9BBB822B8BBB41
S11302708BB384608BBB8BB38B7F8BBB0895CF9385
S1130280DF931F92CDB7DEB78BB38E7F8BBB8BB35F
S113029082608BBB0E940601898389818823A4F331
S11302A08BB38D7F8BBB8FEF8ABB0F90DF91CF9188
S11302B008958FEF8ABB8ABB8BB38E7F8BBB8BB3C6
S11302C08D7F8BBB8BB38B7F8BBB8BB384608BBBE2
S11302D08BB380628BBB8BB38B7F8BBB0E943F0144
S11302E088E20E9425010E943F018BB38E7F8BBB65
S11302F08EE00E9425010E943F018BB38E7F8BBB51
S113030086E00E9425010E943F010895282F30E0D5
S113031021503109862F90E4299F800D11249BB32D
S11303209E7F9BBB81580E9425010E943F01089536
S11303308BB38E7F8BBB81E00E9425010E943F011D
S113034008959BB391609BBB0E9425010E943F01CD
S113035008950F931F93CF938C01C0E003C00E94B4
S1130360A101CF5FF801EC0FF11D80818111F7CF5E
S1130370CF911F910F910895382F3F70982F929528
S11303809F70990F292F220F220F892F820F830F1D
S113039008952DEC829F212D1124922F96959695E8
S11303A09695990F392F330F330F930F891B269589
S11303B02695269530E1239F800D11240895CF932F
S11303C0DF93CCEDD0E088818F770E94BC0190E070
S11303D0909372008093710089810E94BC0190E027
S11303E09093700080936F008091CF009091D00023
S11303F0892B59F08091DE008F710E94BC0190E03E
S113040090936E0080936D000AC08091DE008F731C
S11304100E94BC0190E090936E0080936D00CCED3F
S1130420D0E08B810E94BC0190E090936C0080939B
S11304306B008C810E94BC0190E090936A008093D1
S113044069008D810E94BC0190E0909368008093C4
S113045067008E810E94BC0190E0909366008093B7
S11304606500DF91CF9108950E9498018091C700A3
S1130470882309F45EC083E790E00E94A90180917B
S1130480CD009091CE009F938F938FE790E09F9340
S11304908F9385EE90E09F938F930E94101767E0EF
S11304A082E00E9486018091CD009091CE000F9051
S11304B00F900F900F900F900F900A971CF480E309
S11304C00E94A10185EE90E00E94A90169E082E00A
S11304D00E9486018AE30E94A1018091CB00909141
S11304E0CC009F938F938FE790E09F938F9385EE3B
S11304F090E09F938F930E9410176AE082E00E941D
S113050086018091CB009091CC000F900F900F90BA
S11305100F900F900F900A971CF480E30E94A101A2
S113052085EE90E00E94A90182E890E00E94A90172
S113053008958091C800811104C089E890E00E9468
S1130540A9018091C800882321F080E990E00E94ED
S1130550A90180916D0090916E009F938F938FE716
S113056090E09F938F9385EE90E09F938F930E94EA
S1130570101767E081E00E94860180916D009091E0
S11305806E000F900F900F900F900F900F900A979E
S11305901CF480E30E94A10185EE90E00E94A90171
S11305A069E081E00E9486018AE30E94A1018091B2
S11305B06F00909170009F938F938FE790E09F93CB
S11305C08F9385EE90E09F938F930E9410176AE0BB
S11305D081E00E94860180916F00909170000F90DD
S11305E00F900F900F900F900F900A971CF480E3D8
S11305F00E94A10185EE90E00E94A9016CE081E0D7
S11306000E9486018AE30E94A10180917100909169
S113061072009F938F938FE790E09F938F9385EE63
S113062090E09F938F930E9410176DE081E00E94E9
S1130630860180917100909172000F900F900F903D
S11306400F900F900F900A971CF480E30E94A10171
S113065085EE90E00E94A9018091CF009091D00096
S1130660892B79F060E181E00E9486018091DE00AF
S113067085FF04C080E50E94A10103C081E40E94BB
S1130680A10161E082E00E9486018091C80081118D
S113069004C087E990E00E94A9018091C8008823E2
S11306A021F08EE990E00E94A90180916900909167
S11306B06A000A971CF480E30E94A10180916900FA
S11306C090916A009F938F938FE790E09F938F930D
S11306D085EE90E09F938F930E94101785EE90E033
S11306E00E94A9018DE20E94A1018091670090916E
S11306F068000F900F900F900F900F900F900A9733
S11307001CF480E30E94A10180916700909168002D
S11307109F938F938FE790E09F938F9385EE90E064
S11307209F938F930E94101785EE90E00E94A90179
S11307308DE20E94A10180916500909166000F9066
S11307400F900F900F900F900F900A971CF480E376
S11307500E94A10180916500909166009F938F9300
S11307608FE790E09F938F9385EE90E09F938F9314
S11307700E94101785EE90E00E94A90186E890E09F
S11307800E94A9010F900F900F900F900F900F905F
S11307900895CF93DF9380917100909172000E942D
S11307A0C901CCEDD0E0888380916F0090917000F6
S11307B00E94C90189838091CF009091D000892B38
S11307C021F180916D0090916E000E94C9014091C9
S11307D0CF005091D0000024569547950794569524
S11307E047950794542F402D209163003091640065
S11307F0220F331F22953295307F3227207F3227F4
S1130800842B282B2093DE0008C080916D009091EA
S11308106E000E94C9018093DE0080916B0090916C
S11308206C000E94C901CCEDD0E08B8380916900FB
S113083090916A000E94C9018C8380916700909115
S113084068000E94C9018D838091650090916600C3
S11308500E94C9018E8347E0BE0180E00E948600A9
S11308608FEC97E00197F1F700C0000080E00E9450
S11308705E008FEC97E00197F1F700C00000DF9174
S1130880CF91089581B3807881BB81B3806881BBA7
S113089082B38F6782BB08954F925F926F927F926B
S11308A08F929F92AF92BF92CF92DF92EF92FF927C
S11308B00F931F93CF93DF93F82E8A01C62FD0E0B6
S11308C08EE090E08C1B9D0B6CE070E00E94E816BB
S11308D0072E000C880B990B0E94EC140E9427151C
S11308E04B015C01B80160547D4E80E090E00E94B1
S11308F0EA14A50194010E94D0132B013C0120E0CD
S113090030E040E451E4C501B4010E94F9154B0103
S11309105C01BE01DD0F880B990B0E94EC14A5014C
S113092094010E94D11320E030E040E450E40E949E
S1130930D0134B015C016F2D70E080E090E00E94C9
S1130940EC146B017C0120E030E049E153E4C50183
S1130950B4010E94F91520E030E040E050E40E9428
S1130960D11320E030E040EA50E40E9442140E9497
S113097027159B01AC01C701B6010E94D1136B017D
S11309807C0120E030E846EB53E4C301B2010E944D
S1130990F9159B01AC01C701B6010E94D1136B018B
S11309A07C0120E030E040E85EE3C301B2010E9434
S11309B0F9150E9427159B01AC01C701B6010E94DD
S11309C0D1136B017C0120E030E048EC52E4C30118
S11309D0B2010E9442140E9427159B01AC01C70179
S11309E0B6010E94D0134B015C0120E030E048ECDA
S11309F053E4C301B2010E9442140E9427159B01D3
S1130A00AC01C501B4010E94D11320E03AE54AEFDC
S1130A1056E40E94D0134B015C0124E634E54CE01B
S1130A205AE40E943D14882354F420E036EA4AEF45
S1130A3056E4C701B6010E94D0134B015C01C50105
S1130A40B401DF91CF911F910F91FF90EF90DF9050
S1130A50CF90BF90AF909F908F907F906F905F905A
S1130A604F9008954F925F926F927F928F929F92D0
S1130A70AF92BF92CF92DF92EF92FF92CF93DF9328
S1130A80CDB7DEB766970FB6F894DEBF0FBECDBF05
S1130A906B017C015E8B4D8B23E33BE94AE954E413
S1130AA00E94421469837A838B839C839B01AC01EB
S1130AB00E94F9156D837E838F8398879B01AC0117
S1130AC069817A818B819C810E94F9156D877E876B
S1130AD08F87988B25EA3EE34CEE51E4C701B601BB
S1130AE00E94F91523EB36E643E15AE40E94D11340
S1130AF04B015C0125E63BE047EF58E36D817E81C5
S1130B008F8198850E94F9159B01AC01C501B40140
S1130B100E94D1134B015C0123E13EE646E254E31B
S1130B206D857E858F8598890E94F9159B01AC019E
S1130B30C501B4010E94D0134B015C0128EB3EEDCA
S1130B4044E053E469817A818B819C810E94F91588
S1130B502CE53FE846E253E40E94D1132B013C010B
S1130B602AE53AE446E15CE36D817E818F819885D4
S1130B700E94F9159B01AC01C301B2010E94D0137C
S1130B8025E33AEF4EE85CE30E94F9150E946616ED
S1130B902AED33E04DEA59E30E94F9159B01AC01BB
S1130BA0C501B4010E94D113698B7A8B8B8B9C8B0A
S1130BB025EC37ED48EE51E4C701B6010E94F91562
S1130BC023EB3CE943EB53E40E94D1134B015C015A
S1130BD02AE93BEA4BE058E36D817E818F81988559
S1130BE00E94F9159B01AC01C501B4010E94D01308
S1130BF04B015C0125E23EED48E656E36D857E85BA
S1130C008F8598890E94F9159B01AC01C501B40137
S1130C100E94D01369877A878B879C8721E938EEF5
S1130C2040EC53E4C701B6010E94F9152DE333E00B
S1130C3049E953E40E94D1134B015C0126E63FECE1
S1130C404FE25CE36D817E818F8198850E94F91566
S1130C509B01AC01C501B4010E94D1134B015C019D
S1130C602CEC3DE54FE457E36D857E858F859889AF
S1130C700E94F9159B01AC01C501B4010E94D11376
S1130C802B013C0123ED35E543EC53E4C701B601E8
S1130C900E94F91527E03FE54AEA51E40E94D11386
S1130CA06B017C0124EC32EA48ED5AE36D817E81CC
S1130CB08F8198850E94F9159B01AC01C701B6018B
S1130CC00E94D0136B017C0123EE33E640E256E32D
S1130CD06D857E858F8598890E94F9159B01AC01ED
S1130CE0C701B6010E94D0136B017C0121E93BE0EE
S1130CF04EEC59E369817A818B819C810E94F915BC
S1130D009B01AC0165EC7FE881E39EE30E94D01374
S1130D104B015C0125E33AEF4EE85CE369857A8593
S1130D208B859C850E94F9150E9466169B01AC0177
S1130D30C501B4010E94F9154B015C0125E33AEFAA
S1130D404EE05DE369857A858B859C850E94F91563
S1130D500E94661627E230EA49E05BE30E94F91537
S1130D609B01AC01C501B4010E94D1134B015C018C
S1130D7025E33AEF4EE85CE3C301B2010E94F915A2
S1130D800E94661627E138E440ED5EE30E94F915FF
S1130D909B01AC01C501B4010E94D0134B015C015D
S1130DA025E33AEF4EE05DE3C301B2010E94F91579
S1130DB00E94661626E234EE43E85CE30E94F915CD
S1130DC09B01AC01C501B4010E94D1134B015C012C
S1130DD020E537E746E55DE3C301B2010E94F9155A
S1130DE00E94661627E137EB41ED59E30E94F9159D
S1130DF09B01AC01C501B4010E94D0134B015C01FD
S1130E0025E33AEF4EE05DE3C701B6010E94F91510
S1130E100E94661623EC34E64AE25CE30E94F9156C
S1130E209B01AC01C501B4010E94D1134B015C01CB
S1130E30A301920169857A858B859C850E94D113D3
S1130E4025E33AEF4EE85CE30E94F9150E9466162A
S1130E5027EE3DE147EA5BE30E94F9159B01AC01F3
S1130E60C501B4010E94D0134B015C01A30192019E
S1130E7069857A858B859C850E94D01325E33AEF9A
S1130E804EE85CE30E94F9150E94661623EB3BE7EB
S1130E9042EF5BE30E94F9159B01AC01C501B4016B
S1130EA00E94D0134B015C01A7019601C701B60152
S1130EB00E94D1136B017C019B01AC0169857A8589
S1130EC08B859C850E94D11325E33AEF4EE85CE3C1
S1130ED00E94F9150E94661627E137EB41ED59E3AC
S1130EE00E94F9159B01AC01C501B4010E94D11304
S1130EF04B015C0129853A854B855C85C701B601A8
S1130F000E94D01325E33AEF4EE85CE30E94F91502
S1130F100E94661627E137EB41ED59E30E94F9156B
S1130F209B01AC01C501B4010E94D0134B015C01CB
S1130F30A7019601C301B2010E94D11325E33AEF40
S1130F404EE85CE30E94F9150E94661622E539E436
S1130F504DE15AE30E94F9159B01AC01C501B401AE
S1130F600E94D0134B015C01A3019201C701B60199
S1130F700E94D01325E33AEF4EE85CE30E94F91592
S1130F800E9466162FE632E143E85AE30E94F915FF
S1130F909B01AC01C501B4010E94D1136B017C011A
S1130FA0A3019201C301B2010E94D1139B01AC01C0
S1130FB069857A858B859C850E94D11325E33AEF58
S1130FC04EE85CE30E94F9150E9466162FE632E1B2
S1130FD043E05AE30E94F9159B01AC01C701B60135
S1130FE00E94D1136B017C0120E030E040E351EC1E
S1130FF069817A818B819C810E943D1488230CF045
S113100051C026E530EF4BE55AE369817A818B8143
S11310109C810E94F9152FE632E143E85AE30E94CD
S1131020D1134B015C0122E435E14DE659E36D81B6
S11310307E818F8198850E94F9159B01AC01C501C1
S1131040B4010E94D1134B015C0129E734EC4DE05B
S113105057E36D857E858F8598890E94F9159B01DC
S1131060AC01C501B4010E94D0134B015C0129E31A
S113107032EF4DEA53E369817A818B819C810E942E
S1131080F9159B01AC016D857E858F8598890E9439
S1131090F9159B01AC01C501B4010E94D0134B01A9
S11310A05C0124C023EB3FEE4AE859E369817A816D
S11310B08B819C810E94F91527E830EC41E959E3C2
S11310C00E94D0134B015C012BE03DE549E859E354
S11310D06D817E818F8198850E94F9159B01AC01F9
S11310E0C501B4010E94D1134B015C01A701960113
S11310F069897A898B899C890E94D113A5019401FD
S11311000E94D01320E030E040E05FE30E94D1135E
S11311106B017C018D899E8968E170E00E94E8166C
S1131120072E000C880B990B0E94EC149B01AC0158
S1131130C701B6010E94D1130E94271566960FB607
S1131140F894DEBF0FBECDBFDF91CF91FF90EF903B
S1131150DF90CF90BF90AF909F908F907F906F90D3
S11311605F904F9008954F925F926F927F928F920B
S11311709F92AF92BF92CF92DF92EF92FF92CF9362
S1131180DF93CDB7DEB728970FB6F894DEBF0FBE56
S1131190CDBF5A0126E631EA45E15AE40E94D01354
S11311A06B017C01C50168E170E00E94E816072E1E
S11311B0000C880B990B0E94EC149B01AC01C70135
S11311C0B6010E94D01320E03DEA4EE057E40E94AD
S11311D042146B017C019B01AC010E94F9154B0187
S11311E05C012DE03FE94CE057E4C701B6010E94E1
S11311F0F9152AEB33EC42EB53E40E94D1132B0193
S11312003C0126E139E743E259E3C501B4010E94F8
S1131210F9159B01AC01C301B2010E94D0132B014B
S11312203C0129E539ED40E055E3C701B6010E94D0
S1131230F9159B01AC01C501B4010E94F9159B018C
S1131240AC01C301B2010E94D0132B013C0125EC77
S113125030EA4CE057E4C701B6010E94F91525EBCA
S11312603BE34CE853E40E94D11369837A838B8374
S11312709C8321ED36EF4EE959E3C501B4010E9488
S1131280F9159B01AC0169817A818B819C810E9453
S1131290D11369837A838B839C832DEE37ED4DE9DB
S11312A05BE3C701B6010E94F9159B01AC016DE92E
S11312B071E185EF9FE30E94D0136D837E838F835A
S11312C098872BE831EE4AE657E3C501B4010E9442
S11312D0F9159B01AC016D817E818F8198850E94F7
S11312E0D0134B015C0125E33AEF4EE85CE3C30104
S11312F0B2010E94F9150E9466169B01AC01C5015A
S1131300B4010E94F9154B015C0126EF3FEC43ED5B
S113131058E3C701B6010E94F9159B01AC016CE5C5
S113132078EC83EA9CE30E94D0136B017C0125E3F3
S11313303AEF4EE05DE3C301B2010E94F9150E9449
S113134066169B01AC01C701B6010E94F9159B0109
S1131350AC01C501B4010E94D1136B017C0120E5ED
S113136037E746E55DE3C301B2010E94F9150E9427
S1131370661624E23BE048E959E30E94F9159B0113
S1131380AC01C701B6010E94D1139B01AC01698174
S11313907A818B819C810E94D11325E33AEF4EE838
S11313A05CE30E94F9156B017C012BED3FE049ECF5
S11313B050E40E9442140E9427152BED3FE049ECB3
S11313C050E40E94F9159B01AC01C701B6010E94CB
S11313D0D0132BED3FE049E450E40E94421420E096
S11313E030E040EC50E40E94F9150E94271528963D
S11313F00FB6F894DEBF0FBECDBFDF91CF91FF9043
S1131400EF90DF90CF90BF90AF909F908F907F90A0
S11314106F905F904F9008958F929F92AF92BF927A
S1131420CF92DF92EF92FF92CF93DF93EB01AC0167
S11314306CE08FE10E944C0424EB36E643E15AE46D
S11314400E94D01325EA3EE34CEE51E40E9442147C
S11314500E9427154B015C01AE010E9432056B010D
S11314607C01AE010E94B30820E030E040E151E489
S11314700E94F41588236CF020E030E040E85FE33C
S1131480C501B4010E94D013AE010E9432056B0164
S11314907C01C701B601DF91CF91FF90EF90DF90FF
S11314A0CF90BF90AF909F908F9008952F923F92CE
S11314B04F925F926F927F928F929F92AF92BF9260
S11314C0CF92DF92EF92FF920F931F93CF93DF930C
S11314D0EA0124EB36E643E15AE40E94D01325EAFC
S11314E03EE34CEE51E40E94421420E030E040E040
S11314F05FE30E94D1130E9427154B015C0120E099
S113150030E040E85FE30E94D113AE010E9432054F
S1131510AE010E94B308562E472E382E292E0F2EC8
S1131520C12CD12CF0E8EF2EFFE3FF2EF02D20E0AC
S113153030E040E85FE3C701B6010E94D1136B01BC
S11315407C019B01AC01C501B4010E94D113AE0121
S11315500E943205AE010E94B308162F072F782E81
S1131560692E262F372F482F592F652D742D832D43
S1131570922D0E943D14882371F0512E402E372C59
S1131580262C20E030E040E651E4C701B6010E9479
S11315903D14882364F220E030E040E85FE3C701B3
S11315A0B6010E94D013DF91CF911F910F91FF904C
S11315B0EF90DF90CF90BF90AF909F908F907F90EF
S11315C06F905F904F903F902F9008952F923F928D
S11315D04F925F926F927F928F929F92AF92BF923F
S11315E0CF92DF92EF92FF920F931F93CF93DF93EB
S11315F0EA0119010E944C044B015C0124EB36E61C
S113160043E15AE40E94D01325EA3EE34CEE51E450
S11316100E9442140E9427152B013C0120E030E077
S113162040E85FE30E94D113A1010E9432056B01DF
S11316307C019B01AC01C501B4010E943D148823C7
S11316403CF4A101C301B2010E9432056B017C018B
S1131650B101CE010E940C0A162F072F782E692E95
S1131660262F372F482F592FC701B6010E943D144A
S1131670181694F0D093E400C093E300B101CE01B6
S113168001970E940C0AC12FD02F572C462C162FDD
S1131690072F782E692E0DC0CE0101969093E40099
S11316A08093E300B1010E940C0AC62FD72F582E55
S11316B0492EA7019601C501B4010E94D01320E070
S11316C030E040E85FE30E94D1130E94B4147093A9
S11316D0D4006093D300212F302F472D562DC701FE
S11316E0B6010E94D01320E030E048EE51E40E949D
S11316F042140E9427156B017C0120E030E040E396
S113170051E40E94D1130E94B4147093D6006093E4
S1131710D500212F302F472D562D6C2F7D2F852D51
S1131720942D0E94D01320E030E846EB53E40E944D
S1131730F4151816ECF4A101612F702F872D962D46
S11317400E94560A9B01AC01C701B6010E94F41520
S1131750882374F020E030E040E251E4C701B60190
S11317600E94D1130E94B4147093D6006093D500E4
S11317708091D5009091D6000D974CF08091D500C2
S11317809091D6000C979093D6008093D5008091C9
S1131790D5009091D6000B979CF020E030E040E813
S11317A050E4C701B6010E943D1488234CF4809193
S11317B0E3009091E40001979093E4008093E300A8
S11317C0DF91CF911F910F91FF90EF90DF90CF9019
S11317D0BF90AF909F908F907F906F905F904F904D
S11317E03F902F9008958FB9779BFECF0895CF93A4
S11317F0C62F98B39F7E98BB0E94F30B8C2F0E9438
S1131800F30B88B3806188BBCF910895CF93C091C7
S113181060006FE08C2F0E94F70BC150D1F7CF917D
S113182008950F931F93CF93DF938091C400811188
S113183056C00E94060C6FE070E088E090E00E94C1
S1131840F70B6FE070E087E090E00E94F70B809167
S1131850710090917200CAE0D0E0BE010E94E816C7
S1131860BC0186E090E00E94F70B8091710090919A
S11318707200BE010E94E81685E090E00E94F70B1A
S113188080916F0090917000BE010E94E816BC0127
S113189084E090E00E94F70B80916F0090917000BB
S11318A0BE010E94E81683E090E00E94F70B80914D
S11318B06D0090916E00BE010E94E816BC0182E0AA
S11318C090E00E94F70B80916D0090916E00BE0134
S11318D00E94E81681E090E00E94F70B28C18091F5
S11318E0C400813009F076C00E94060C8091D100BA
S11318F09091D20008EE13E0B8010E94E816CAE005
S1131900D0E0BE010E94E816BC0188E090E00E948D
S1131910F70B8091D1009091D200B8010E94E81693
S1131920BE010E94E816CB01BE010E94E816BC016C
S113193087E090E00E94F70B8091D1009091D20053
S1131940B8010E94E81664E670E00E94E816CB0134
S1131950BE010E94E816BC0186E090E00E94F70BED
S11319608091D1009091D200B8010E94E81685E0E0
S113197090E00E94F70B8091670090916800BE018F
S11319800E94E816BC0184E090E00E94F70B80916D
S1131990670090916800BE010E94E81683E090E021
S11319A00E94F70B8091690090916A00BE010E9429
S11319B0E816BC0182E090E00E94F70B8091690078
S11319C090916A00BE010E94E81681E090E00E94B6
S11319D0F70BADC08091C400823009F076C00E943C
S11319E0060C8091E3009091E40008EE13E0B80146
S11319F00E94E816CAE0D0E0BE010E94E816BC01CD
S1131A0088E090E00E94F70B8091E3009091E4005D
S1131A10B8010E94E816BE010E94E816CB01BE017F
S1131A200E94E816BC0187E090E00E94F70B8091C9
S1131A30E3009091E400B8010E94E81664E670E0C7
S1131A400E94E816CB01BE010E94E816BC0186E0A4
S1131A5090E00E94F70B8091E3009091E400B801BC
S1131A600E94E81685E090E00E94F70B8091D50073
S1131A709091D600BE010E94E816BC0184E090E07B
S1131A800E94F70B8091D5009091D600BE010E9470
S1131A90E81683E090E00E94F70B8091D3009091C8
S1131AA0D400BE010E94E816BC0182E090E00E94CE
S1131AB0F70B8091D3009091D400BE010E94E816E8
S1131AC081E090E00E94F70B32C00E94060C8091E6
S1131AD0CB009091CC00CAE0D0E0BE010E94E81691
S1131AE0BC0184E090E00E94F70B8091CB009091C0
S1131AF0CC00BE010E94E81683E090E00E94F70B40
S1131B008091CD009091CE00BE010E94E816BC01E8
S1131B1082E090E00E94F70B8091CD009091CE007E
S1131B20BE010E94E81681E090E00E94F70BDF916D
S1131B30CF911F910F91089585E083BF81E089BF04
S1131B407894089515BE14BE80EE8BBF78940895E2
S1131B5087B3806B87BB8DB182658DB96FEF89E0E8
S1131B600E94F70B67E08BE00E94F70B65E08AE0C8
S1131B700E94F70B61E08CE00E94F70B6FEF89E0A5
S1131B800E94F70B0E94C9030E9442040E9459015B
S1131B900E94980161E081E00E94860185EA90E05C
S1131BA00E94A90161E082E00E94860182EB90E03C
S1131BB00E94A9012FEF89E698E1215080409040CE
S1131BC0E1F700C000000E949C0D0E94A20D0E943B
S1131BD0580067E08CED90E00E94C3000E94DF0192
S1131BE00E9434028FEC97E00197F1F700C00000E7
S1131BF080916500909166008053984F9093D20035
S1131C008093D10020916100309162004091D10015
S1131C105091D200609167007091680080916900D2
S1131C2090916A000E94E60A0E94110C20916D00B6
S1131C3030916E008091CD009091CE002817390725
S1131C40B9F620916F00309170008091CB00909193
S1131C50CC002817390761F68091C600882341F229
S1131C600E94110C82B3806882BBC2CF1F920F9274
S1131C700FB60F9211240F931F932F933F934F93FB
S1131C805F936F937F938F939F93AF93BF93CF9300
S1131C90DF93EF93FF938091C9009091CA0001965E
S1131CA09093CA008093C9008091C9009091CA00A2
S1131CB00A9758F18091C800811123C08091C70010
S1131CC081111FC00E945E008FEC97E00197F1F72D
S1131CD000C0000067E08CED90E00E94C30080919A
S1131CE0DC000E94BC0190E02091710030917200F0
S1131CF08217930731F00E94DF010E9434020E9490
S1131D00110C1092CA001092C9008091C9009091E0
S1131D10CA00069708F453C08091C9009091CA0084
S1131D200A9708F04CC08091C500813009F047C083
S1131D308091C400813009F042C06FEF89E00E94B5
S1131D40F70B0E94060C6FE088E00E94F70B6FE02F
S1131D5087E00E94F70B6FE086E00E94F70B6FE0CC
S1131D6085E00E94F70B8091670090916800CAE0BB
S1131D70D0E0BE010E94E816682F84E00E94F70BB1
S1131D808091670090916800BE010E94E81683E08C
S1131D900E94F70B8091690090916A00BE010E9435
S1131DA0E816682F82E00E94F70B809169009091F9
S1131DB06A00BE010E94E81681E00E94F70B809140
S1131DC0C9009091CA00069708F475C08091C900B3
S1131DD09091CA000A9708F06EC08091C5008230C5
S1131DE009F069C08091C400813009F064C06FEFCC
S1131DF089E00E94F70B0E94060C8091D10090911B
S1131E00D20008EE13E0B8010E94E816CAE0D0E060
S1131E10BE010E94E816682F88E00E94F70B8091AB
S1131E20D1009091D200B8010E94E816BE010E9430
S1131E30E816CB01BE010E94E816682F87E00E94D5
S1131E40F70B8091D1009091D200B8010E94E8165E
S1131E5064E670E00E94E816CB01BE010E94E81619
S1131E60682F86E00E94F70B8091D1009091D200F8
S1131E70B8010E94E81685E00E94F70B6FE084E049
S1131E800E94F70B6FE083E00E94F70B80916900DA
S1131E9090916A00BE010E94E816682F82E00E94B9
S1131EA0F70B8091690090916A00BE010E94E816C8
S1131EB081E00E94F70B8091C9009091CA000697B7
S1131EC008F475C08091C9009091CA000A9708F07F
S1131ED06EC08091C500833009F069C08091C40050
S1131EE0813009F064C06FEF89E00E94F70B0E9413
S1131EF0060C8091D1009091D20008EE13E0B80155
S1131F000E94E816CAE0D0E0BE010E94E816682FDD
S1131F1088E00E94F70B8091D1009091D200B80123
S1131F200E94E816BE010E94E816CB01BE010E9481
S1131F30E816682F87E00E94F70B8091D1009091FA
S1131F40D200B8010E94E81664E670E00E94E81628
S1131F50CB01BE010E94E816682F86E00E94F70BB1
S1131F608091D1009091D200B8010E94E81685E0DA
S1131F700E94F70B8091670090916800BE010E9457
S1131F80E816682F84E00E94F70B80916700909117
S1131F906800BE010E94E81683E00E94F70B6FE020
S1131FA082E00E94F70B6FE081E00E94F70B8091C2
S1131FB0C9009091CA00069708F452C08091C900E4
S1131FC09091CA000A9708F04BC08091C5008130F7
S1131FD009F046C08091C400811142C06FEF89E0CE
S1131FE00E94F70B0E94060C6FE088E00E94F70B3A
S1131FF06FE087E00E94F70B80917100909172006E
S1132000CAE0D0E0BE010E94E816682F86E00E9474
S1132010F70B8091710090917200BE010E94E81646
S113202085E00E94F70B80916F0090917000BE01D3
S11320300E94E816682F84E00E94F70B80916F00DD
S113204090917000BE010E94E81683E00E94F70B95
S11320506FE082E00E94F70B6FE081E00E94F70BD3
S11320608091C9009091CA00069708F452C08091EB
S1132070C9009091CA000A9708F04BC08091C5002E
S1132080823009F046C08091C400811142C06FEFD4
S113209089E00E94F70B0E94060C6FE088E00E9422
S11320A0F70B6FE087E00E94F70B8091710090912D
S11320B07200CAE0D0E0BE010E94E816682F86E0F4
S11320C00E94F70B8091710090917200BE010E94F2
S11320D0E81685E00E94F70B6FE084E00E94F70B9E
S11320E06FE083E00E94F70B80916D0090916E0089
S11320F0BE010E94E816682F82E00E94F70B8091CF
S11321006D0090916E00BE010E94E81681E00E946D
S1132110F70B8091C9009091CA00069708F452C049
S11321208091C9009091CA000A9708F04BC0809131
S1132130C500833009F046C08091C400811142C0BB
S11321406FEF89E00E94F70B0E94060C6FE088E0B5
S11321500E94F70B6FE087E00E94F70B6FE086E0C8
S11321600E94F70B6FE085E00E94F70B80916F00EF
S113217090917000CAE0D0E0BE010E94E816682F7A
S113218084E00E94F70B80916F0090917000BE0173
S11321900E94E81683E00E94F70B80916D009091F5
S11321A06E00BE010E94E816682F82E00E94F70BC1
S11321B080916D0090916E00BE010E94E81681E04E
S11321C00E94F70B8091C9009091CA00069708F409
S11321D043C08091C9009091CA000A97E8F58091A4
S11321E0C5008130C9F58091C4008330A9F56FEF33
S11321F089E00E94F70B0E94060C6FE088E00E94C1
S1132200F70B6FE087E00E94F70B6FE086E00E9417
S1132210F70B6FE085E00E94F70B8091CB00909163
S1132220CC00CAE0D0E0BE010E94E816682F84E02A
S11322300E94F70B8091CB009091CC00BE010E94CC
S1132240E81683E00E94F70B6FE082E00E94F70B30
S11322506FE081E00E94F70B8091C9009091CA0061
S1132260069708F443C08091C9009091CA000A9768
S1132270E8F58091C5008230C9F58091C4008330AF
S1132280A9F56FEF89E00E94F70B0E94060C6FE03E
S113229088E00E94F70B6FE087E00E94F70B6FE085
S11322A086E00E94F70B6FE085E00E94F70B6FE079
S11322B084E00E94F70B6FE083E00E94F70B8091AB
S11322C0CD009091CE00CAE0D0E0BE010E94E81695
S11322D0682F82E00E94F70B8091CD009091CE0090
S11322E0BE010E94E81681E00E94F70BFF91EF9176
S11322F0DF91CF91BF91AF919F918F917F916F911A
S11323005F914F913F912F911F910F910F900FBEAD
S11323100F901F9018951F920F920FB60F921124D1
S11323202F933F934F935F936F937F938F939F93D9
S1132330AF93BF93EF93FF938091C800811105C0C1
S11323409091C4009F5F9093C4009091C400943016
S113235020F0811102C01092C4009091C400911128
S11323600AC0882341F01092C4001092C5000E9454
S1132370C9031092C8008091C400813069F480912F
S1132380C800882349F081E08093C4001092C500FE
S11323900E94C9031092C8008091C400833071F474
S11323A08091C800882351F083E08093C400109288
S11323B0C50081E08093C6001092C8000E94980175
S11323C00E943402FF91EF91BF91AF919F918F9141
S11323D07F916F915F914F913F912F910F900FBE1D
S11323E00F901F9018951F920F920FB60F92112401
S11323F02F933F934F935F936F937F938F939F9309
S1132400AF93BF93EF93FF9381E08093C8008091D3
S1132410C5008F5F8093C5008091C400811108C0FE
S11324208091C500843020F01092C5001092C8003D
S11324308091C800882361F08091C400823041F407
S11324408091C500843020F01092C5001092C8001D
S11324508091C800882371F08091C400833051F4C6
S11324608091C500833030F01092C5001092C600F0
S11324701092C7000E9498010E943402FF91EF91CC
S1132480BF91AF919F918F917F916F915F914F9188
S11324903F912F910F900FBE0F901F9018951F9290
S11324A00F920FB60F9211242F933F934F935F9384
S11324B06F937F938F939F93AF93BF93EF93FF9308
S11324C08091C800882309F44DC08091C400811113
S11324D049C08091C5008130A1F480916D00909134
S11324E06E00019690936E0080936D0080916D0054
S11324F090916E004897A4F110926E0010926D00B6
S11325002FC08091C5008230A1F480916F0090911A
S1132510700001969093700080936F0080916F001B
S113252090917000CC97E4F01092700010926F00BC
S113253017C08091C500833099F480917100909107
S113254072000196909372008093710080917100E3
S113255090917200CC9724F0109272001092710046
S11325600E9434028091C800882309F4D0C080916D
S1132570C400813009F0CBC08091C5008130B1F432
S11325808091650090916600019690936600809317
S113259065008091650090916600843691050CF485
S11325A0B4C01092660010926500AFC08091C5005F
S11325B08230B9F4809167009091680001969093FD
S11325C068008093670080916700909168000D9780
S11325D00CF49BC081E090E09093680080936700C6
S11325E094C08091C500833009F08FC08091690048
S11325F090916A00019690936A008093690080919B
S1132600670090916800049791F080916700909121
S11326106800069761F080916700909168000997BF
S113262031F080916700909168000B9771F480916C
S1132630690090916A004F970CF467C081E090E0C4
S113264090936A008093690060C0809167009091C4
S11326506800019721F180916700909168000397C9
S1132660F1F080916700909168000597C1F0809126
S1132670670090916800079791F0809167009091AE
S11326806800089761F080916700909168000A974C
S113269031F080916700909168000C9769F4809103
S11326A0690090916A00809784F181E090E09093B2
S11326B06A008093690029C08091D1009091D20072
S11326C003960797B0F48091D1009091D20081577E
S11326D09E4F8F31934068F48091690090916A0015
S11326E04E979CF081E090E090936A00809369009B
S11326F00CC08091690090916A004D9734F081E09C
S113270090E090936A00809369000E943402809163
S1132710C8008823A1F18091C400833081F58091A1
S1132720C500813099F48091CD009091CE0001963E
S11327309093CE008093CD008091CD009091CE00F7
S1132740489724F01092CE001092CD008091C500DD
S1132750823099F48091CB009091CC0001969093B3
S1132760CC008093CB008091CB009091CC00CC978F
S113277024F01092CC001092CB000E943402FF91FE
S1132780EF91BF91AF919F918F917F916F915F91E5
S11327904F913F912F910F900FBE0F901F9018955E
S11327A05058BB27AA270E94E8130C94A2150E9434
S11327B0941538F00E949B1520F039F49F3F19F4CA
S11327C026F40C9491150EF4E095E7FB0C94621535
S11327D0E92F0E94B31558F3BA17620773078407E9
S11327E0950720F079F4A6F50C94ED150EF4E09518
S11327F00B2EBA2FA02D0B01B90190010C01CA01B7
S1132800A0011124FF27591B99F0593F50F4503E61
S113281068F11A16F040A22F232F342F4427585F53
S1132820F3CF469537952795A795F0405395C9F76B
S11328307EF41F16BA0B620B730B840BBAF0915023
S1132840A1F0FF0FBB1F661F771F881FC2F70EC0C2
S1132850BA0F621F731F841F48F487957795679595
S1132860B795F7959E3F08F0B0CF9395880F08F081
S11328709927EE0F9795879508950E943E1508F4C1
S113288081E008950E9456140C94A2150E949B1591
S113289058F00E94941540F029F45F3F29F00C94FD
S11328A0621551110C94EE150C9491150E94B315F8
S11328B068F39923B1F3552391F3951B550BBB276B
S11328C0AA2762177307840738F09F5F5F4F220FB0
S11328D0331F441FAA1FA9F335D00E2E3AF0E0E8A7
S11328E032D091505040E695001CCAF72BD0FE2FF1
S11328F029D0660F771F881FBB1F26173707480785
S1132900AB07B0E809F0BB0B802DBF01FF2793583C
S11329105F4F3AF09E3F510578F00C9462150C9489
S1132920EE155F3FE4F3983ED4F38695779567956B
S1132930B795F7959F5FC9F7880F911D9695879571
S113294097F90895E1E0660F771F881FBB1F621790
S113295073078407BA0720F0621B730B840BBA0B4E
S1132960EE1F88F7E09508950E94BB146894B11196
S11329700C94EE1508950E94BB1588F09F5798F0AB
S1132980B92F9927B751B0F0E1F0660F771F881F70
S1132990991F1AF0BA95C9F714C0B13091F00E948A
S11329A0ED15B1E008950C94ED15672F782F882765
S11329B0B85F39F0B93FCCF3869577956795B395B1
S11329C0D9F73EF490958095709561957F4F8F4F20
S11329D09F4F0895E89409C097FB3EF49095809525
S11329E0709561957F4F8F4F9F4F9923A9F0F92FD1
S11329F096E9BB279395F695879577956795B7954F
S1132A00F111F8CFFAF4BB0F11F460FF1BC06F5F34
S1132A107F4F8F4F9F4F16C0882311F096E911C046
S1132A20772321F09EE8872F762F05C0662371F067
S1132A3096E8862F70E060E02AF09A95660F771F7B
S1132A40881FDAF7880F9695879597F908950E945D
S1132A50D51590F09F3748F4911116F00C94EE15AB
S1132A6060E070E080E89FEB089526F41B16611D7A
S1132A70711D811D0C9468150C948315990F000821
S1132A80550FAA0BE0E8FEEF16161706E807F9073C
S1132A90C0F012161306E407F50798F0621B730BD7
S1132AA0840B950B39F40A2661F0232B242B252B58
S1132AB021F408950A2609F4A140A6958FEF811DFB
S1132AC0811D089597F99F6780E870E060E008959C
S1132AD0882371F4772321F09850872B762F07C031
S1132AE0662311F499270DC09051862B70E060E0A5
S1132AF02AF09A95660F771F881FDAF7880F969544
S1132B00879597F908959F3F31F0915020F4879568
S1132B1077956795B795880F911D9695879597F941
S1132B2008959FEF80EC089500240A941616170662
S1132B3018060906089500240A94121613061406AA
S1132B4005060895092E0394000C11F4882352F00D
S1132B50BB0F40F4BF2B11F460FF04C06F5F7F4FC5
S1132B608F4F9F4F089557FD9058440F551F59F0AC
S1132B705F3F71F04795880F97FB991F61F09F3F66
S1132B8079F087950895121613061406551FF2CF8F
S1132B904695F1DF08C0161617061806991FF1CFDF
S1132BA0869571056105089408950E94BB15A0F0EF
S1132BB0BEE7B91788F4BB279F3860F41616B11D19
S1132BC0672F782F8827985FF7CF86957795679535
S1132BD0B11D93959639C8F30895E894BB276627E9
S1132BE07727CB0197F908950E943E1508F48FEFDB
S1132BF008950E940C160C94A2150E94941538F0A6
S1132C000E949B1520F0952311F00C9462150C94EE
S1132C10911511240C94EE150E94B31570F3959F31
S1132C20C1F3950F50E0551F629FF001729FBB27BF
S1132C30F00DB11D639FAA27F00DB11DAA1F649F5B
S1132C406627B00DA11D661F829F2227B00DA11D0E
S1132C50621F739FB00DA11D621F839FA00D611D94
S1132C60221F749F3327A00D611D231F849F600DB5
S1132C70211D822F762F6A2F11249F5750409AF0DE
S1132C80F1F088234AF0EE0FFF1FBB1F661F771F6A
S1132C90881F91505040A9F79E3F510580F00C9435
S1132CA062150C94EE155F3FE4F3983ED4F38695D9
S1132CB077956795B795F795E7959F5FC1F7FE2BD5
S1132CC0880F911D9695879597F908959F930E9473
S1132CD070160F9007FCEE5F0C9499160C949115E6
S1132CE00E94BB15D8F3E894E0E0BB279F57F0F0AF
S1132CF02AED3FE049EC06C0EE0FBB0F661F771FBD
S1132D00881F28F0B23A62077307840728F0B25A82
S1132D10620B730B840BE3959A9572F7803830F449
S1132D209A95BB0F661F771F881FD2F790480C94A3
S1132D308515EF93E0FF07C0A2EA2AED3FE049ECD6
S1132D405FEB0E94E8130E94A2150F90039401FC0C
S1132D509058E4E5F0E00C94AD169F938F937F9325
S1132D606F93FF93EF939B01AC010E94F915EF91D0
S1132D70FF910E94C1162F913F914F915F910C9446
S1132D80F915DF93CF931F930F93FF92EF92DF9286
S1132D907B018C01689406C0DA2EEF010E940C16A8
S1132DA0FE01E894A5912591359145915591A6F39D
S1132DB0EF010E94E813FE019701A801DA9469F774
S1132DC0DF90EF90FF900F911F91CF91DF910895C5
S1132DD097FB072E16F4009407D077FD09D00E94C4
S1132DE0FC1607FC05D03EF4909581959F4F0895FD
S1132DF0709561957F4F0895AA1BBB1B51E107C0D5
S1132E00AA1FBB1FA617B70710F0A61BB70B881F76
S1132E10991F5A95A9F780959095BC01CD01089505
S1132E20AEE0B0E0E6E1F7E10C94D1190D891E891A
S1132E3086E08C831A8309838FEF9FE79E838D83BB
S1132E40AE01475E5F4F6F89788DCE0101960E9477
S1132E503217EF81F885E00FF11F10822E96E4E01F
S1132E600C94ED19ABE0B0E0E8E3F7E10C94C3197E
S1132E706C017B018A01FC0117821682838181FF28
S1132E80CCC1CE0101963C01F6019381F70193FD7B
S1132E90859193FF81917F01882309F4BAC185321A
S1132EA039F493FD859193FF81917F01853229F453
S1132EB0B60190E00E942919E7CF912C212C312CE6
S1132EC0FFE1F315D8F08B3279F038F4803279F0E1
S1132ED08332A1F4232D20611DC08D3261F0803333
S1132EE069F4232D216016C0832D8260382EE32DD2
S1132EF0E4603E2E2AC0F32DF8601DC037FC2DC0BF
S1132F0020ED280F2A3040F08E32B9F436FC81C10E
S1132F10232D2064322E19C036FE06C08AE0989E06
S1132F20200D1124922E11C0EAE02E9E200D1124B2
S1132F30222EF32DF0623F2E08C08C3621F4832D0F
S1132F408068382E02C0883641F4F70193FD8591DC
S1132F5093FF81917F018111B3CF982F9F7D955469
S1132F60933028F40C5F1F4F9FE399830DC0833681
S1132F7031F0833771F0833509F059C021C0F8016D
S1132F80808189830E5F1F4F88248394912C530181
S1132F9013C02801F2E04F0E511CF801A080B1804B
S1132FA036FE03C0692D70E002C06FEF7FEFC501EC
S1132FB00E941E194C018201F32DFF773F2E16C08B
S1132FC0280122E0420E511CF801A080B18036FE97
S1132FD003C0692D70E002C06FEF7FEFC5010E944E
S1132FE013194C01F32DF0683F2E820133FC1BC0F2
S1132FF0822D90E088169906B0F4B60180E290E044
S11330000E9429192A94F4CFF50137FC859137FEE3
S113301081915F01B60190E00E94291921102A9440
S113302021E0821A91088114910471F7E8C0843672
S113303011F0893641F5F80137FE07C060817181CE
S1133040828193810C5F1F4F08C060817181072EBC
S1133050000C880B990B0E5F1F4FF32DFF763F2E4C
S113306097FF09C090958095709561957F4F8F4F1C
S11330709F4FF0683F2E2AE030E0A3010E946519BB
S1133080882E861845C0853731F4232D2F7EB22E25
S11330902AE030E025C0932D997FB92E8F36C1F0F8
S11330A018F4883579F0B5C0803719F0883721F0E5
S11330B0B0C0E92FE061BE2EB4FE0DC0FB2DF4605C
S11330C0BF2E09C034FE0AC0292F2660B22E06C0C6
S11330D028E030E005C020E130E002C020E132E029
S11330E0F801B7FE07C060817181828193810C5F12
S11330F01F4F06C06081718180E090E00E5F1F4F1A
S1133100A3010E946519882E8618FB2DFF773F2E98
S113311036FE0DC0232D2E7FA22E891458F434FEC2
S11331200BC032FC09C0832D8E7EA82E05C0B82C9E
S1133130A32C03C0B82C01C0B92CA4FE0FC0FE01FF
S1133140E80DF11D8081803321F49A2D997EA92EFA
S113315009C0A2FE06C0B394B39404C08A2D867835
S113316009F0B394A3FC11C0A0FE06C0B21488F405
S1133170280C922C9B180EC0B21460F4B60180E2A5
S113318090E00E942919B394F7CFB21418F42B18C5
S113319002C0982C212CA4FE10C0B60180E390E05C
S11331A00E942919A2FE17C0A1FC03C088E790E081
S11331B002C088E590E0B6010CC08A2D867859F0EB
S11331C0A1FE02C08BE201C080E2A7FC8DE2B60141
S11331D090E00E942919891438F4B60180E390E044
S11331E00E9429199A94F7CF8A94F301E80DF11DEE
S11331F08081B60190E00E9429198110F5CF222028
S113320009F442CEB60180E290E00E9429192A9482
S1133210F6CFF6018681978102C08FEF9FEF2B9640
S1133220E2E10C94DF19FC0105906150704001103B
S1133230D8F7809590958E0F9F1F0895FC016150DB
S1133240704001900110D8F7809590958E0F9F1FC4
S113325008950F931F93CF93DF93FB01238121FDE7
S113326003C08FEF9FEF2CC022FF16C04681578109
S1133270248135814217530744F4A081B1819D0113
S11332802F5F3F4F318320838C93268137812F5FBB
S11332903F4F3783268314C08B01EC01FB0100846C
S11332A0F185E02D0995892BE1F6D80116968D91CB
S11332B09C911797019617969C938E931697CE011F
S11332C0DF91CF911F910F910895FA01AA27283019
S11332D051F1203181F1E8946F936E7F6E5F7F4FDF
S11332E08F4F9F4FAF4FB1E03ED0B4E03CD0670F5B
S11332F0781F891F9A1FA11D680F791F8A1F911DAE
S1133300A11D6A0F711D811D911DA11D20D009F4FD
S113331068943F912AE0269F11243019305D31933F
S1133320DEF6CF010895462F4770405D4193B3E028
S11333300FD0C9F7F6CF462F4F70405D4A3318F0CF
S1133340495D31FD4052419302D0A9F7EACFB4E080
S1133350A6959795879577956795BA95C9F7009738
S11333606105710508959B01AC010A2E06945795D9
S1133370479537952795BA95C9F7620F731F841F30
S1133380951FA01D08952F923F924F925F926F92C6
S11333907F928F929F92AF92BF92CF92DF92EF92E1
S11333A0FF920F931F93CF93DF93CDB7DEB7CA1B62
S11333B0DB0B0FB6F894DEBF0FBECDBF09942A888D
S11333C0398848885F846E847D848C849B84AA8435
S11333D0B984C884DF80EE80FD800C811B81AA81C2
S11333E0B981CE0FD11D0FB6F894DEBF0FBECDBF8D
S10B33F0ED010895F894FFCFEC
S11333F8080700010015000C000600020017003B36
S113340800320053657420416C61726D3A200025C6
S113341869002020202020200054696D653A20008E
S1133428536574543A2000446174653A2000536526
S113343874443A20005374617274696E672E2E2E98
S11334482E00205245414C2054494D4520434C4FB1
S1073458434B2000BE
S9030000FC
