S013000043616C656E6461725F30312E7372656337
S11300000C942A000C9447000C9447000C9447006D
S11300100C9447000C9447000C9447000C94470040
S11300200C9447000C9447000C9447000C94E7038D
S11300300C9447000C9447000C9447000C94470020
S11300400C9447000C9447000C9447000C94470010
S11300500C94470011241FBECFE5D8E0DEBFCDBF0E
S113006010E0A0E6B0E0EEE4FEE002C005900D92E0
S1130070AA37B107D9F720E0AAE7B0E001C01D9282
S1130080A838B207E1F70E9480030C9425070C946A
S1130090000011B880E280B984E886BF089594EA2C
S11300A096BF06B607FEFDCF91B1987F983011F048
S11300B081B1089590ED93B994E896BF06B607FE12
S11300C0FDCF91B1987F983111F081B1089583B932
S11300D084E886BF06B607FEFDCF81B1887F8832EB
S11300E011F081B1089584E986BF80E0089594EA0F
S11300F096BF06B607FEFDCF91B1987F983011F0F8
S113010081B1089590ED93B994E896BF06B607FEC1
S1130110FDCF91B1987F983111F081B1089583B9E1
S113012084E886BF06B607FEFDCF81B1887F88329A
S1130130A1F081B10895FB01E80FF11D908193B9FD
S113014094E896BF06B607FEFDCF91B1987F98322A
S113015011F081B108958F5F01C080E0841758F3D6
S113016084E986BF80E00895DC0184EA86BF06B690
S113017007FEFDCF81B1887F8830C9F781ED83B94F
S113018084E886BF06B607FEFDCF91B1987F903410
S1130190C9F720E00FC084EC86BF06B607FEFDCF8A
S11301A091B1987F9035C9F7FD01E20FF11D83B13C
S11301B080832F5FE22FF0E0462F50E04150510939
S11301C0E417F50744F384E886BF06B607FEFDCFBF
S11301D091B1987F9835C9F7862F90E00197A80FC1
S11301E0B91F83B18C9384E986BF80E008958BB3F3
S11301F0806F8BBB8AB38F708ABB8BB384608BBBDD
S11302008BB384608BBB99B3907F8BB38B7F8BBB99
S11302108BB384608BBB8BB384608BBB89B32BB3F0
S11302202B7F2BBB82958F70892B08952BB32F7056
S1130230382F307F40E1849FC0011124922F932BEB
S11302409BBB9BB394609BBB9BB39B7F9BBB822B51
S11302508BBB8BB384608BBB8BB38B7F8BBB0895C1
S1130260CF93DF931F92CDB7DEB78BB38E7F8BBB5B
S11302708BB382608BBB0E94F700898389818823BA
S1130280A4F38BB38D7F8BBB8FEF8ABB0F90DF9171
S1130290CF910895282F30E021503109862F90E422
S11302A0299F800D11249BB39E7F9BBB81580E9484
S11302B016010E94300108958BB38E7F8BBB81E0C1
S11302C00E9416010E94300108959BB391609BBB6C
S11302D00E9416010E94300108950F931F93CF933B
S11302E08C01C0E003C00E946501CF5FF801EC0FF0
S11302F0F11D80818111F7CFCF911F910F91089546
S1130300382F3F70982F92959F70990F292F220FA5
S1130310220F892F820F830F08952DEC829F212DA8
S11303201124922F969596959695990F392F330F00
S1130330330F930F891B26952695269530E1239F2D
S1130340800D11240895CF93DF93CCE7D0E088810A
S11303508F770E94800180937B0089810E948001B5
S11303608093670080916100882341F080917E0032
S11303708F710E9480018093660007C080917E0087
S11303808F730E94800180936600CCE7D0E08B815C
S11303900E948001809365008C810E94800180937B
S11303A064008D810E948001809363008E810E948D
S11303B0800180936200DF91CF9108958FB9779B7C
S11303C0FECF0895CF93C62F98B39F7E98BB0E940B
S11303D0DE018C2F0E94DE0188B3806188BBCF913F
S11303E00895CF93C8E06FE08C2F0E94E201C150C2
S11303F0D1F7CF9108950F931F93CF93DF93CCE759
S1130400D0E088818F770E94800180937B0089816E
S11304100E9480018093670080916100882341F0ED
S113042080917E008F710E9480018093660007C0D6
S113043080917E008F730E94800180936600CCE7D8
S1130440D0E08C810E948001809364008D810E94A1
S11304508001809363008E810E94800180936200FA
S11304600E945C0188E690E00E946D018091660024
S11304701F928F930FE610E01F930F93C3E8D0E011
S1130480DF93CF930E943B0467E081E00E944A011E
S1130490CE010E946D0169E081E00E944A018AE375
S11304A00E946501809167001F928F931F930F93A1
S11304B0DF93CF930E943B046AE081E00E944A01EB
S11304C0CE010E946D016CE081E00E944A018AE342
S11304D00E94650180917B001F928F931F930F935D
S11304E0DF93CF930E943B046DE081E00E944A01B8
S11304F0CE010E946D01809161002DB73EB72E5E42
S11305003F4F0FB6F8943EBF0FBE2DBF882379F03E
S113051060E181E00E944A0180917E0085FF04C071
S113052080E50E94650103C081E40E94650161E0E9
S113053082E00E944A0182E790E00E946D0180916E
S113054062001F928F938FE690E09F938F9383E8CE
S113055090E09F938F930E943B0467E082E00E94A7
S11305604A01809162000F900F900F900F900F90AE
S11305700F908A3018F480E30E94650183E890E0CC
S11305800E946D0169E082E00E944A018DE20E94AE
S11305906501809163001F928F930FE610E01F9313
S11305A00F93C3E8D0E0DF93CF930E943B046AE04B
S11305B082E00E944A01CE010E946D016CE082E05B
S11305C00E944A018DE20E946501809164001F929D
S11305D08F931F930F93DF93CF930E943B046DE09F
S11305E082E00E944A01CE010E946D018DB79EB740
S11305F00C960FB6F8949EBF0FBE8DBFDF91CF91BE
S11306001F910F910895CF930E94F10160917B0097
S1130610CDEC6C9F812D1124869586958695880F47
S1130620982F990F990F890F681B88E00E94E201A7
S113063060917B006C9F612D11246695669566958B
S113064087E00E94E2016AE086E00E94E201609194
S113065067006C9F812D1124869586958695880F59
S1130660982F990F990F890F681B85E00E94E2016A
S1130670609167006C9F612D11246695669566955F
S113068084E00E94E2016AE083E00E94E20160915A
S113069066006C9F812D1124869586958695880F1A
S11306A0982F990F990F890F681B82E00E94E2012D
S11306B0609166006C9F612D112466956695669520
S11306C081E00E94E201CF91089587B3806B87BBDC
S11306D08DB182658DB96FEF89E00E94E20167E018
S11306E08BE00E94E20165E08AE00E94E20161E0A1
S11306F08CE00E94E2016FEF89E00E94E20108951C
S113070085E083BF81E089BF789480917B000E945B
S11307108D01CCE7D0E08883809167000E948D0131
S11307208983809161008823A9F0809166000E94EA
S11307308D014091610090E4499FA0011124209112
S1130740600090E2299F90011124842B282B209390
S11307507E0006C0809166000E948D0180937E0019
S1130760809165000E948D01CCE7D0E08B8380915D
S113077064000E948D018C83809163000E948D012E
S11307808D83809162000E948D018E830E944900B6
S113079047E0BE0180E00E9477008FEC97E001976C
S11307A0F1F700C0000080E00E944F008FEC97E05A
S11307B00197F1F700C0000067E0CE010E94B40089
S11307C00E9465030E94A3010E940303FBCF1F92B2
S11307D00F920FB60F9211242F933F934F935F9371
S11307E06F937F938F939F93AF93BF93EF93FF93F5
S11307F080917A008F5F80937A0080917A008A30AA
S113080048F180E00E944F008FEC97E00197F1F7E8
S113081000C0000067E08CE790E00E94B400809183
S11308207C000E94800190917B00891789F080915F
S11308307C008F770E94800180937B000E94A3013B
S11308400E94030380917B00811102C00E94FB017E
S113085010927A00FF91EF91BF91AF919F918F9188
S11308607F916F915F914F913F912F910F900FBEA8
S11308700F901F901895AEE0B0E0E1E4F4E00C9422
S1130880FC060D891E8986E08C831A8309838FEF09
S11308909FE79E838D83AE01475E5F4F6F89788D9E
S11308A0CE0101960E945D04EF81F885E00FF11FEF
S11308B010822E96E4E00C941807ABE0B0E0E3E677
S11308C0F4E00C94EE066C017B018A01FC011782B2
S11308D01682838181FFCCC1CE0101963C01F601D1
S11308E09381F70193FD859193FF81917F01882383
S11308F009F4BAC1853239F493FD859193FF81914E
S11309007F01853229F4B60190E00E945406E7CFB6
S1130910912C212C312CFFE1F315D8F08B3279F096
S113092038F4803279F08332A1F4232D20611DC084
S11309308D3261F0803369F4232D216016C0832D3C
S11309408260382EE32DE4603E2E2AC0F32DF86039
S11309501DC037FC2DC020ED280F2A3040F08E3208
S1130960B9F436FC81C1232D2064322E19C036FE21
S113097006C08AE0989E200D1124922E11C0EAE050
S11309802E9E200D1124222EF32DF0623F2E08C03E
S11309908C3621F4832D8068382E02C0883641F4C9
S11309A0F70193FD859193FF81917F018111B3CF6D
S11309B0982F9F7D9554933028F40C5F1F4F9FE32D
S11309C099830DC0833631F0833771F0833509F094
S11309D059C021C0F801808189830E5F1F4F88248C
S11309E08394912C530113C02801F2E04F0E511C43
S11309F0F801A080B18036FE03C0692D70E002C00A
S1130A006FEF7FEFC5010E9449064C018201F32D6F
S1130A10FF773F2E16C0280122E0420E511CF80138
S1130A20A080B18036FE03C0692D70E002C06FEF74
S1130A307FEFC5010E943E064C01F32DF0683F2E66
S1130A40820133FC1BC0822D90E088169906B0F415
S1130A50B60180E290E00E9454062A94F4CFF50196
S1130A6037FC859137FE81915F01B60190E00E94C9
S1130A70540621102A9421E0821A910881149104C9
S1130A8071F7E8C0843611F0893641F5F80137FE74
S1130A9007C060817181828193810C5F1F4F08C000
S1130AA060817181072E000C880B990B0E5F1F4F1C
S1130AB0F32DFF763F2E97FF09C090958095709592
S1130AC061957F4F8F4F9F4FF0683F2E2AE030E0B3
S1130AD0A3010E949006882E861845C0853731F4FC
S1130AE0232D2F7EB22E2AE030E025C0932D997F4E
S1130AF0B92E8F36C1F018F4883579F0B5C0803737
S1130B0019F0883721F0B0C0E92FE061BE2EB4FEA1
S1130B100DC0FB2DF460BF2E09C034FE0AC0292F7E
S1130B202660B22E06C028E030E005C020E130E0A7
S1130B3002C020E132E0F801B7FE07C06081718194
S1130B40828193810C5F1F4F06C06081718180E0B8
S1130B5090E00E5F1F4FA3010E949006882E861816
S1130B60FB2DFF773F2E36FE0DC0232D2E7FA22EA8
S1130B70891458F434FE0BC032FC09C0832D8E7ED8
S1130B80A82E05C0B82CA32C03C0B82C01C0B92CC6
S1130B90A4FE0FC0FE01E80DF11D8081803321F415
S1130BA09A2D997EA92E09C0A2FE06C0B394B394CF
S1130BB004C08A2D867809F0B394A3FC11C0A0FE6A
S1130BC006C0B21488F4280C922C9B180EC0B214E0
S1130BD060F4B60180E290E00E945406B394F7CF2B
S1130BE0B21418F42B1802C0982C212CA4FE10C0A7
S1130BF0B60180E390E00E945406A2FE17C0A1FC57
S1130C0003C088E790E002C088E590E0B6010CC01C
S1130C108A2D867859F0A1FE02C08BE201C080E2E1
S1130C20A7FC8DE2B60190E00E945406891438F4C2
S1130C30B60180E390E00E9454069A94F7CF8A9418
S1130C40F301E80DF11D8081B60190E00E94540685
S1130C508110F5CF222009F442CEB60180E290E063
S1130C600E9454062A94F6CFF6018681978102C029
S1130C708FEF9FEF2B96E2E10C940A07FC0105909D
S1130C80615070400110D8F7809590958E0F9F1F8A
S1130C900895FC016150704001900110D8F78095CF
S1130CA090958E0F9F1F08950F931F93CF93DF93FB
S1130CB0FB01238121FD03C08FEF9FEF2CC022FF96
S1130CC016C046815781248135814217530744F465
S1130CD0A081B1819D012F5F3F4F318320838C938D
S1130CE0268137812F5F3F4F3783268314C08B01C2
S1130CF0EC01FB010084F185E02D0995892BE1F6D7
S1130D00D80116968D919C911797019617969C93EE
S1130D108E931697CE01DF91CF911F910F91089575
S1130D20FA01AA27283051F1203181F1E8946F9318
S1130D306E7F6E5F7F4F8F4F9F4FAF4FB1E03ED0BE
S1130D40B4E03CD0670F781F891F9A1FA11D680F5C
S1130D50791F8A1F911DA11D6A0F711D811D911D8F
S1130D60A11D20D009F468943F912AE0269F112404
S1130D703019305D3193DEF6CF010895462F477068
S1130D80405D4193B3E00FD0C9F7F6CF462F4F70C3
S1130D90405D4A3318F0495D31FD4052419302D021
S1130DA0A9F7EACFB4E0A6959795879577956795C7
S1130DB0BA95C9F700976105710508959B01AC01C7
S1130DC00A2E06945795479537952795BA95C9F7EE
S1130DD0620F731F841F951FA01D08952F923F92C9
S1130DE04F925F926F927F928F929F92AF92BF9237
S1130DF0CF92DF92EF92FF920F931F93CF93DF93E3
S1130E00CDB7DEB7CA1BDB0B0FB6F894DEBF0FBE3F
S1130E10CDBF09942A88398848885F846E847D848C
S1130E208C849B84AA84B984C884DF80EE80FD808E
S1130E300C811B81AA81B981CE0FD11D0FB6F89404
S1110E40DEBF0FBECDBFED010895F894FFCFC5
S1130E4E0101150C05080D0954696D653A2000253C
S10D0E5E6900446174653A20000045
S9030000FC
