:100000000C942A000C9434000C9434000C943400AA
:100010000C9434000C9434000C9434000C94340090
:100020000C9434000C9434000C9434000C94340080
:100030000C9434000C9434000C9434000C94340070
:100040000C9434000C9434000C9434000C94340060
:100050000C94340011241FBECFE5D8E0DEBFCDBF25
:100060000E9440000C9473000C9400008AB38160DD
:100070008ABB81B3806881BB82B3806882BB0895EC
:100080000E94360082B38F7782BB2FE785EB91E029
:10009000215080409040E1F700C0000082B38068AA
:1000A00082BB2FE788E391E0215080409040E1F748
:1000B00000C0000082B38F7782BB2FE785EB91E011
:1000C000215080409040E1F700C0000082B380687A
:1000D00082BB2FEF89E698E1215080409040E1F704
:0A00E00000C00000CFCFF894FFCF5E
:00000001FF
