:100000000C942A000C9447000C9447000C94470071
:100010000C9447000C9447000C9447000C94470044
:100020000C9447000C9447000C9447000C94440334
:100030000C9447000C9447000C9447000C94470024
:100040000C9447000C9447000C9447000C94470014
:100050000C94470011241FBECFE5D8E0DEBFCDBF12
:1000600010E0A0E6B0E0E6E4FDE002C005900D92ED
:10007000AC37B107D9F720E0ACE7B0E001C01D9282
:10008000AA38B207E1F70E94D8020C94A1060C949A
:10009000000011B880E280B984E886BF089594EA30
:1000A00096BF06B607FEFDCF91B1987F983011F04C
:1000B00081B1089590ED93B994E896BF06B607FE16
:1000C000FDCF91B1987F983111F081B1089583B936
:1000D00084E886BF06B607FEFDCF81B1887F8832EF
:1000E00011F081B1089584E986BF80E0089594EA13
:1000F00096BF06B607FEFDCF91B1987F983011F0FC
:1001000081B1089590ED93B994E896BF06B607FEC5
:10011000FDCF91B1987F983111F081B1089583B9E5
:1001200084E886BF06B607FEFDCF81B1887F88329E
:10013000A1F081B10895FB01E80FF11D908193B901
:1001400094E896BF06B607FEFDCF91B1987F98322E
:1001500011F081B108958F5F01C080E0841758F3DA
:1001600084E986BF80E00895DC0184EA86BF06B694
:1001700007FEFDCF81B1887F8830C9F781ED83B953
:1001800084E886BF06B607FEFDCF91B1987F903414
:10019000C9F720E00FC084EC86BF06B607FEFDCF8E
:1001A00091B1987F9035C9F7FD01E20FF11D83B140
:1001B00080832F5FE22FF0E0462F50E0415051093D
:1001C000E417F50744F384E886BF06B607FEFDCFC3
:1001D00091B1987F9835C9F7862F90E00197A80FC5
:1001E000B91F83B18C9384E986BF80E008958BB3F7
:1001F000806F8BBB8AB38F708ABB8BB384608BBBE1
:100200008BB384608BBB99B3907F8BB38B7F8BBB9D
:100210008BB384608BBB8BB384608BBB89B32BB3F4
:100220002B7F2BBB82958F70892B08952BB32F705A
:10023000382F307F40E1849FC0011124922F932BEF
:100240009BBB9BB394609BBB9BB39B7F9BBB822B55
:100250008BBB8BB384608BBB8BB38B7F8BBB0895C5
:10026000CF93DF931F92CDB7DEB78BB38E7F8BBB5F
:100270008BB382608BBB0E94F700898389818823BE
:10028000A4F38BB38D7F8BBB8FEF8ABB0F90DF9175
:10029000CF9108958FEF8ABB8ABB8BB38E7F8BBBC8
:1002A0008BB38D7F8BBB8BB38B7F8BBB8BB384600E
:1002B0008BBB8BB380628BBB8BB38B7F8BBB0E9462
:1002C000300188E20E9416010E9430018BB38E7FBC
:1002D0008BBB8EE00E9416010E9430018BB38E7F93
:1002E0008BBB86E00E9416010E9430010895282FE2
:1002F00030E021503109862F90E4299F800D112490
:100300009BB39E7F9BBB81580E9416010E943001C7
:1003100008958BB38E7F8BBB81E00E9416010E94F3
:10032000300108959BB391609BBB0E9416010E940F
:10033000300108950F931F93CF938C01C0E003C049
:100340000E949201CF5FF801EC0FF11D80818111B5
:10035000F7CFCF911F910F910895382F3F70982FAD
:1003600092959F70990F292F220F220F892F820FAC
:10037000830F08952DEC829F212D1124922F9695A5
:1003800096959695990F392F330F330F930F891B3D
:1003900026952695269530E1239F800D11240895FA
:1003A0000F931F93CF93DF93CEE7D0E088818F77B1
:1003B0000E94AD0180937D0089810E94AD018093F0
:1003C000670080916100882341F0809180008F71E7
:1003D0000E94AD018093660007C0809180008F73FA
:1003E0000E94AD0180936600CEE7D0E08C810E9430
:1003F000AD01809364008D810E94AD018093630004
:100400008E810E94AD01809362000E94890188E67E
:1004100090E00E949A01809166001F928F930FE6F0
:1004200010E01F930F93C5E8D0E0DF93CF930E94B5
:10043000B70367E081E00E947701CE010E949A0134
:1004400069E081E00E9477018AE30E949201809135
:1004500067001F928F931F930F93DF93CF930E9498
:10046000B7036AE081E00E947701CE010E949A0101
:100470006CE081E00E9477018AE30E949201809102
:100480007D001F928F931F930F93DF93CF930E9452
:10049000B7036DE081E00E947701CE010E949A01CE
:1004A000809161002DB73EB72E5E3F4F0FB6F89496
:1004B0003EBF0FBE2DBF882379F060E181E00E942E
:1004C00077018091800085FF04C080E50E94920141
:1004D00003C081E40E94920161E082E00E94770102
:1004E00082E790E00E949A01809162001F928F93B0
:1004F0008FE690E09F938F9385E890E09F938F9392
:100500000E94B70367E082E00E9477018091620059
:100510000F900F900F900F900F900F908A3018F45B
:1005200080E30E94920185E890E00E949A0169E0D0
:1005300082E00E9477018DE20E9492018091630027
:100540001F928F930FE610E01F930F93C5E8D0E042
:10055000DF93CF930E94B7036AE082E00E947701A5
:10056000CE010E949A016CE082E00E9477018DE248
:100570000E949201809164001F928F931F930F93AA
:10058000DF93CF930E94B7036DE082E00E94770172
:10059000CE010E949A018DB79EB70C960FB6F894C3
:1005A0009EBF0FBE8DBFDF91CF911F910F91089518
:1005B0000E944A010E9489012FEF8FE796E12150A6
:1005C00080409040E1F700C0000085E083BF81E0FB
:1005D00089BF789480917D000E94BA01CEE7D0E077
:1005E0008883809167000E94BA01898380916100AD
:1005F0008823A9F0809166000E94BA0140916100B1
:1006000020E4429FA00111242091600090E2299FE4
:1006100090011124842B282B2093800006C0809108
:1006200066000E94BA0180938000809165000E945C
:10063000BA01CEE7D0E08B83809164000E94BA01BA
:100640008C83809163000E94BA018D838091620047
:100650000E94BA018E830E94490047E0BE0180E0FB
:100660000E94770083E397E00197F1F780E00E9412
:100670004F0083E397E00197F1F767E0CE010E9416
:10068000B4000E94D001FFCF1F920F920FB60F92BD
:1006900011242F933F934F935F936F937F938F9387
:1006A0009F93AF93BF93EF93FF9380917C008F5FF5
:1006B00080937C0080917C008A3008F447C080E001
:1006C0000E944F0083E397E00197F1F767E08EE720
:1006D00090E00E94B40080917E000E94AD01909154
:1006E0007D00891789F180917E008F770E94AD018E
:1006F00080937D0080917D001F928F938FE690E024
:100700009F938F9385E890E09F938F930E94B70308
:100710006DE081E00E94770189E790E00E949A01F4
:100720006DE081E00E94770185E890E00E949A01E7
:1007300080917D000F900F900F900F900F900F9071
:10074000811102C00E94D00110927C00FF91EF91B4
:10075000BF91AF919F918F917F916F915F914F91D9
:100760003F912F910F900FBE0F901F901895AEE004
:10077000B0E0EDEBF3E00C9478060D891E8986E07D
:100780008C831A8309838FEF9FE79E838D83AE014D
:10079000475E5F4F6F89788DCE0101960E94D90325
:1007A000EF81F885E00FF11F10822E96E4E00C94A3
:1007B0009406ABE0B0E0EFEDF3E00C946A066C0158
:1007C0007B018A01FC0117821682838181FFCCC1E3
:1007D000CE0101963C01F6019381F70193FD8591CD
:1007E00093FF81917F01882309F4BAC1853239F4DE
:1007F00093FD859193FF81917F01853229F4B601A4
:1008000090E00E94D005E7CF912C212C312CFFE104
:10081000F315D8F08B3279F038F4803279F08332E6
:10082000A1F4232D20611DC08D3261F0803369F465
:10083000232D216016C0832D8260382EE32DE460C5
:100840003E2E2AC0F32DF8601DC037FC2DC020EDD0
:10085000280F2A3040F08E32B9F436FC81C1232DA6
:100860002064322E19C036FE06C08AE0989E200D04
:100870001124922E11C0EAE02E9E200D1124222E6A
:10088000F32DF0623F2E08C08C3621F4832D806852
:10089000382E02C0883641F4F70193FD859193FF0D
:1008A00081917F018111B3CF982F9F7D9554933013
:1008B00028F40C5F1F4F9FE399830DC0833631F0FE
:1008C000833771F0833509F059C021C0F801808168
:1008D00089830E5F1F4F88248394912C530113C08A
:1008E0002801F2E04F0E511CF801A080B18036FEC5
:1008F00003C0692D70E002C06FEF7FEFC5010E9459
:10090000C5054C018201F32DFF773F2E16C028014B
:1009100022E0420E511CF801A080B18036FE03C0D7
:10092000692D70E002C06FEF7FEFC5010E94BA052C
:100930004C01F32DF0683F2E820133FC1BC0822D49
:1009400090E088169906B0F4B60180E290E00E942B
:10095000D0052A94F4CFF50137FC859137FE8191BB
:100960005F01B60190E00E94D00521102A9421E099
:10097000821A91088114910471F7E8C0843611F04D
:10098000893641F5F80137FE07C0608171818281A7
:1009900093810C5F1F4F08C060817181072E000C8E
:1009A000880B990B0E5F1F4FF32DFF763F2E97FF9D
:1009B00009C090958095709561957F4F8F4F9F4F9F
:1009C000F0683F2E2AE030E0A3010E940C06882E3A
:1009D000861845C0853731F4232D2F7EB22E2AE0AC
:1009E00030E025C0932D997FB92E8F36C1F018F4D1
:1009F000883579F0B5C0803719F0883721F0B0C05C
:100A0000E92FE061BE2EB4FE0DC0FB2DF460BF2EB9
:100A100009C034FE0AC0292F2660B22E06C028E085
:100A200030E005C020E130E002C020E132E0F80112
:100A3000B7FE07C060817181828193810C5F1F4F77
:100A400006C06081718180E090E00E5F1F4FA301BE
:100A50000E940C06882E8618FB2DFF773F2E36FE4F
:100A60000DC0232D2E7FA22E891458F434FE0BC006
:100A700032FC09C0832D8E7EA82E05C0B82CA32C75
:100A800003C0B82C01C0B92CA4FE0FC0FE01E80DB4
:100A9000F11D8081803321F49A2D997EA92E09C001
:100AA000A2FE06C0B394B39404C08A2D867809F0E0
:100AB000B394A3FC11C0A0FE06C0B21488F4280CA5
:100AC000922C9B180EC0B21460F4B60180E290E044
:100AD0000E94D005B394F7CFB21418F42B1802C0BB
:100AE000982C212CA4FE10C0B60180E390E00E9457
:100AF000D005A2FE17C0A1FC03C088E790E002C0A9
:100B000088E590E0B6010CC08A2D867859F0A1FEE8
:100B100002C08BE201C080E2A7FC8DE2B60190E04A
:100B20000E94D005891438F4B60180E390E00E9459
:100B3000D0059A94F7CF8A94F301E80DF11D8081D6
:100B4000B60190E00E94D0058110F5CF222009F473
:100B500042CEB60180E290E00E94D0052A94F6CF02
:100B6000F6018681978102C08FEF9FEF2B96E2E11D
:100B70000C948606FC010590615070400110D8F776
:100B8000809590958E0F9F1F0895FC0161507040D5
:100B900001900110D8F7809590958E0F9F1F0895B2
:100BA0000F931F93CF93DF93FB01238121FD03C09C
:100BB0008FEF9FEF2CC022FF16C046815781248102
:100BC00035814217530744F4A081B1819D012F5F05
:100BD0003F4F318320838C93268137812F5F3F4F96
:100BE0003783268314C08B01EC01FB010084F1855F
:100BF000E02D0995892BE1F6D80116968D919C91EF
:100C00001797019617969C938E931697CE01DF91B6
:100C1000CF911F910F910895FA01AA27283051F121
:100C2000203181F1E8946F936E7F6E5F7F4F8F4F1D
:100C30009F4FAF4FB1E03ED0B4E03CD0670F781F7C
:100C4000891F9A1FA11D680F791F8A1F911DA11D61
:100C50006A0F711D811D911DA11D20D009F468949A
:100C60003F912AE0269F11243019305D3193DEF642
:100C7000CF010895462F4770405D4193B3E00FD0F8
:100C8000C9F7F6CF462F4F70405D4A3318F0495DE3
:100C900031FD4052419302D0A9F7EACFB4E0A695C6
:100CA0009795879577956795BA95C9F700976105E8
:100CB000710508959B01AC010A2E0694579547953E
:100CC00037952795BA95C9F7620F731F841F951F33
:100CD000A01D08952F923F924F925F926F927F9244
:100CE0008F929F92AF92BF92CF92DF92EF92FF923C
:100CF0000F931F93CF93DF93CDB7DEB7CA1BDB0BE8
:100D00000FB6F894DEBF0FBECDBF09942A8839888C
:100D100048885F846E847D848C849B84AA84B98493
:100D2000C884DF80EE80FD800C811B81AA81B9819F
:100D3000CE0FD11D0FB6F894DEBF0FBECDBFED01B3
:060D40000895F894FFCFB6
:100D46000101150C05080D0954696D653A20002549
:0C0D56006900446174653A200020200010
:00000001FF
