:100000000C9439000C94AE120C9414130C945C13E1
:100010000C9456000C9456000C9456000C94560008
:100020000C9456000C9456000C9456000C944012FC
:100030000C9456000C9456000C9456000C945600E8
:100040000C9456000C9456000C9456000C945600D8
:100050000C94560005A84CCDB2D44EB93836A9023E
:100060000C50B9918688083CA6AAAA2ABE000000B6
:10007000803F11241FBECFE5D8E0DEBFCDBF10E02A
:10008000A0E6B0E0EEE5FFE202C005900D92AA36D0
:10009000B107D9F720E0AAE6B0E001C01D92A3386D
:1000A000B207E1F70E94EA110C94AD170C9400001E
:1000B00011B888E480B984E886BF089594EA96BFB1
:1000C00006B607FEFDCF91B1987F983011F081B14F
:1000D000089590ED93B994E896BF06B607FEFDCF5C
:1000E00091B1987F983111F081B1089583B984E876
:1000F00086BF06B607FEFDCF81B1887F883211F03A
:1001000081B1089584E986BF80E0089594EA96BF9E
:1001100006B607FEFDCF91B1987F983011F081B1FE
:10012000089590ED93B994E896BF06B607FEFDCF0B
:1001300091B1987F983111F081B1089583B984E825
:1001400086BF06B607FEFDCF81B1887F8832A1F059
:1001500081B10895FB01E80FF11D908193B994E8F6
:1001600096BF06B607FEFDCF91B1987F983211F089
:1001700081B108958F5F01C080E0841758F384E94E
:1001800086BF80E00895DC0184EA86BF06B607FEDC
:10019000FDCF81B1887F8830C9F781ED83B984E8CC
:1001A00086BF06B607FEFDCF91B1987F9034C9F7A0
:1001B00020E00FC084EC86BF06B607FEFDCF91B1EC
:1001C000987F9035C9F7FD01E20FF11D83B180835F
:1001D0002F5FE22FF0E0462F50E041505109E41725
:1001E000F50744F384E886BF06B607FEFDCF91B15C
:1001F000987F9835C9F7862F90E00197A80FB91F0F
:1002000083B18C9384E986BF80E00895382F3F70D6
:10021000982F92959F70990F292F220F220F892FC7
:10022000820F830F08952DEC829F212D1124922F90
:10023000969596959695990F392F330F330F930F07
:10024000891B26952695269530E1239F800D112444
:100250000895CF93DF93CAE7D0E088818F770E941B
:1002600006018093750089810E94060180936900D0
:100270008A818F730E940601809368008B810E949F
:100280000601809367008C810E94060180936600BE
:100290008D810E940601809365008E810E94060177
:1002A00080936400DF91CF910895CF93DF93809185
:1002B00075000E941301CAE7D0E08883809169002D
:1002C0000E9413018983809168000E9413018A8330
:1002D000809167000E9413018B83809166000E94C9
:1002E00013018C83809165000E9413018D8380919E
:1002F00064000E9413018E8347E0BE0180E00E94EB
:1003000086008FEC97E00197F1F700C0000080E0D5
:100310000E945E008FEC97E00197F1F700C00000AB
:10032000DF91CF9108958FB9779BFECF0895CF933A
:10033000C62F98B39F7E98BB0E9493018C2F0E947A
:10034000930188B3806188BBCF910895CF93C8E0B3
:100350006FE08C2F0E949701C150D1F7CF91089583
:10036000CF93DF9380916C0081112EC380916A003E
:10037000811174C00E94A60160916900CDEC6C9F50
:10038000812D1124869586958695880F982F990F33
:10039000990F890F681B88E00E949701609169009E
:1003A0006C9F612D112466956695669587E00E9485
:1003B0009701609168006C9F812D11248695869528
:1003C0008695880F982F990F990F890F681B86E0E3
:1003D0000E949701609168006C9F612D11246695C1
:1003E0006695669585E00E949701609165006C9F17
:1003F000812D1124869586958695880F982F990FC3
:10040000990F890F681B84E00E9497016091650035
:100410006C9F612D112466956695669583E00E9418
:100420009701609166006C9F812D112486958695B9
:100430008695880F982F990F990F890F681B82E076
:100440000E949701609166006C9F612D1124669552
:100450006695669581E00E949701A3C7813009F0F7
:100460001EC10E94A601E0917600F09177009F01E5
:10047000369527953695279536952795A5ECB0E2C4
:100480000E948A17AC01529542954F7045275F70C4
:100490004527C8EED3E04C9FC0014D9F900D5C9F57
:1004A000900D1124AF01481B590B9A01ADECBCEC27
:1004B0000E948A1796958795969587959695879524
:1004C000BC01660F771F880F991F880F991F880F2F
:1004D000991F860F971F281B390B622F88E00E94F7
:1004E000970140917600509177009A0136952795B3
:1004F0003695279536952795A5ECB0E20E948A1788
:100500009C01329522952F7023273F7023272C9F23
:10051000C0012D9F900D3C9F900D11249A01281B26
:10052000390BADECBCEC0E948A17AC01569547958F
:1005300056954795569547959A010E948A17969524
:1005400087959695879596958795BC01660F771F39
:10055000880F991F880F991F880F991F860F971F63
:10056000281B390B622F87E00E949701409176008B
:10057000509177009A0136952795369527953695AF
:100580002795A5ECB0E20E948A17929582958F700C
:1005900089279F7089278C9F90018D9F300D9C9F8C
:1005A000300D1124CA01821B930B9C0136952795AF
:1005B00036952795ABE7B4E10E948A17AC015695B2
:1005C00047959A01ADECBCEC0E948A1796958795E9
:1005D0009695879596958795BC01660F771F880F2E
:1005E000991F880F991F880F991F860F971F281B27
:1005F000390B622F86E00E9497012091760030919E
:100600007700369527953695279536952795A5EC4D
:10061000B0E20E948A17929582958F7089279F7009
:100620008927682F85E00E94970160916500CDECD5
:100630006C9F812D1124869586958695880F982F1D
:10064000990F990F890F681B84E00E9497016091B0
:1006500065006C9F612D112466956695669583E013
:100660000E949701609166006C9F812D11248695F0
:1006700086958695880F982F990F990F890F681B7B
:1006800082E00E949701609166006C9F612D1124A9
:1006900066956695669581E00E94970182C68230D4
:1006A00009F01EC10E94A601E0918100F091820034
:1006B0009F01369527953695279536952795A5EC74
:1006C000B0E20E948A17AC01529542954F704527BF
:1006D0005F704527C8EED3E04C9FC0014D9F900D41
:1006E0005C9F900D1124AF01481B590B9A01ADEC92
:1006F000BCEC0E948A179695879596958795969556
:100700008795BC01660F771F880F991F880F991F67
:10071000880F991F860F971F281B390B622F88E0BF
:100720000E94970140918100509182009A01369574
:1007300027953695279536952795A5ECB0E20E942A
:100740008A179C01329522952F7023273F7023270B
:100750002C9FC0012D9F900D3C9F900D11249A015C
:10076000281B390BADECBCEC0E948A17AC015695E6
:10077000479556954795569547959A010E948A1731
:10078000969587959695879596958795BC01660F62
:10079000771F880F991F880F991F880F991F860F41
:1007A000971F281B390B622F87E00E949701409109
:1007B0008100509182009A013695279536952795AC
:1007C00036952795A5ECB0E20E948A1792958295FE
:1007D0008F7089279F7089278C9F90018D9F300D86
:1007E0009C9F300D1124CA01821B930B9C013695EE
:1007F000279536952795ABE7B4E10E948A17AC019F
:10080000569547959A01ADECBCEC0E948A179695D7
:1008100087959695879596958795BC01660F771F66
:10082000880F991F880F991F880F991F860F971F90
:10083000281B390B622F86E00E94970120918100CE
:1008400030918200369527953695279536952795D0
:10085000A5ECB0E20E948A17929582958F70892745
:100860009F708927682F85E00E9497016091790029
:10087000CDEC6C9F812D1124869586958695880FE9
:10088000982F990F990F890F681B84E00E94970198
:10089000609179006C9F612D11246695669566952F
:1008A00083E00E949701609178006C9F812D112454
:1008B000869586958695880F982F990F990F890FA1
:1008C000681B82E00E949701609178006C9F612D07
:1008D000112466956695669581E00E94970161C531
:1008E0000E94A60160917300CDEC6C9F812D1124B4
:1008F000869586958695880F982F990F990F890F61
:10090000681B88E00E949701609173006C9F612DC5
:10091000112466956695669587E00E94970160911F
:1009200074006C9F812D1124869586958695880F7D
:10093000982F990F990F890F681B86E00E949701E5
:10094000609174006C9F612D112466956695669583
:1009500085E00E949701609169006C9F812D1124B0
:10096000869586958695880F982F990F990F890FF0
:10097000681B84E00E949701609169006C9F612D63
:10098000112466956695669583E00E9497016091B3
:1009900068006C9F812D1124869586958695880F19
:1009A000982F990F990F890F681B82E00E94970179
:1009B000609168006C9F612D11246695669566951F
:1009C00081E00E949701EDC480916B00813009F0B5
:1009D00063C080916A0081115FC00E94A60160918E
:1009E0006900CDEC6C9F812D1124869586958695A6
:1009F000880F982F990F990F890F681B88E00E9424
:100A00009701609169006C9F612D11246695669530
:100A1000669587E00E949701609168006C9F812D28
:100A20001124869586958695880F982F990F990F92
:100A3000890F681B86E00E949701609168006C9F97
:100A4000612D112466956695669585E00E94970153
:100A5000609165006C9F812D112486958695869501
:100A6000880F982F990F990F890F681B84E00E94B7
:100A70009701609165006C9F612D112466956695C4
:100A8000669583E00E9497016FE082E00E949701E3
:100A90006FE081E00E94970180916B00823009F045
:100AA00063C080916A0081115FC00E94A6016091BD
:100AB0006900CDEC6C9F812D1124869586958695D5
:100AC000880F982F990F990F890F681B88E00E9453
:100AD0009701609169006C9F612D11246695669560
:100AE000669587E00E949701609168006C9F812D58
:100AF0001124869586958695880F982F990F990FC2
:100B0000890F681B86E00E949701609168006C9FC6
:100B1000612D112466956695669585E00E94970182
:100B20006FE084E00E9497016FE083E00E949701EC
:100B3000609166006C9F812D11248695869586951F
:100B4000880F982F990F990F890F681B82E00E94D8
:100B50009701609166006C9F612D112466956695E2
:100B6000669581E00E94970180916B00833009F0C7
:100B700063C080916A0081115FC00E94A6016091EC
:100B80006900CDEC6C9F812D112486958695869504
:100B9000880F982F990F990F890F681B88E00E9482
:100BA0009701609169006C9F612D1124669566958F
:100BB000669587E00E9497016FE086E00E949701AA
:100BC0006FE085E00E949701609165006C9F812D28
:100BD0001124869586958695880F982F990F990FE1
:100BE000890F681B84E00E949701609165006C9FEB
:100BF000612D112466956695669583E00E949701A4
:100C0000609166006C9F812D11248695869586954E
:100C1000880F982F990F990F890F681B82E00E9407
:100C20009701609166006C9F612D11246695669511
:100C3000669581E00E94970180916B00843009F0F5
:100C400063C080916A0081115FC00E94A6016FE0BD
:100C500088E00E9497016FE087E00E949701609111
:100C60006800CDEC6C9F812D112486958695869524
:100C7000880F982F990F990F890F681B86E00E94A3
:100C80009701609168006C9F612D112466956695AF
:100C9000669585E00E949701609165006C9F812DAB
:100CA0001124869586958695880F982F990F990F10
:100CB000890F681B84E00E949701609165006C9F1A
:100CC000612D112466956695669583E00E949701D3
:100CD000609166006C9F812D11248695869586957E
:100CE000880F982F990F990F890F681B82E00E9437
:100CF0009701609166006C9F612D11246695669541
:100D0000669581E00E94970180916B00813009F027
:100D10000EC180916A00813009F009C10E94A601CC
:100D2000E0917600F09177009F01369527953695F2
:100D3000279536952795A5ECB0E20E948A17AC015D
:100D4000529542954F7045275F704527C8EED3E016
:100D50004C9FC0014D9F900D5C9F900D1124AF01E1
:100D6000481B590B9A01ADECBCEC0E948A17969572
:100D700087959695879596958795BC01660F771F01
:100D8000880F991F880F991F880F991F860F971F2B
:100D9000281B390B622F88E00E9497014091760052
:100DA000509177009A013695279536952795369577
:100DB0002795A5ECB0E20E948A179C0132952295F6
:100DC0002F7023273F7023272C9FC0012D9F900D4C
:100DD0003C9F900D11249A01281B390BADECBCEC03
:100DE0000E948A17AC01569547955695479556959A
:100DF00047959A010E948A179695879596958795AB
:100E000096958795BC01660F771F880F991F880FED
:100E1000991F880F991F860F971F281B390B622F68
:100E200087E00E94970140917600509177009A01E7
:100E3000369527953695279536952795A5ECB0E2FA
:100E40000E948A17929582958F7089279F708927B3
:100E50008C9F90018D9F300D9C9F300D1124CA01F5
:100E6000821B930B9C013695279536952795ABE70A
:100E7000B4E10E948A17AC01569547959A01ADECF2
:100E8000BCEC0E948A1796958795969587959695BE
:100E90008795BC01660F771F880F991F880F991FD0
:100EA000880F991F860F971F281B390B622F86E02A
:100EB0000E94970120917600309177003695279512
:100EC0003695279536952795A5ECB0E20E948A17AE
:100ED000929582958F7089279F708927682F85E06A
:100EE0000E94970160916500CDEC6C9F812D1124CB
:100EF000869586958695880F982F990F990F890F5B
:100F0000681B84E00E949701609165006C9F612DD1
:100F1000112466956695669583E00E9497016FE0BF
:100F200082E00E9497016FE081E00E94970180912A
:100F30006B00823009F00EC180916A00813009F0A7
:100F400009C10E94A601E0917600F09177009F010F
:100F5000369527953695279536952795A5ECB0E2D9
:100F60000E948A17AC01529542954F7045275F70D9
:100F70004527C8EED3E04C9FC0014D9F900D5C9F6C
:100F8000900D1124AF01481B590B9A01ADECBCEC3C
:100F90000E948A1796958795969587959695879539
:100FA000BC01660F771F880F991F880F991F880F44
:100FB000991F860F971F281B390B622F88E00E940C
:100FC000970140917600509177009A0136952795C8
:100FD0003695279536952795A5ECB0E20E948A179D
:100FE0009C01329522952F7023273F7023272C9F39
:100FF000C0012D9F900D3C9F900D11249A01281B3C
:10100000390BADECBCEC0E948A17AC0156954795A4
:1010100056954795569547959A010E948A17969539
:1010200087959695879596958795BC01660F771F4E
:10103000880F991F880F991F880F991F860F971F78
:10104000281B390B622F87E00E94970140917600A0
:10105000509177009A0136952795369527953695C4
:101060002795A5ECB0E20E948A17929582958F7021
:1010700089279F7089278C9F90018D9F300D9C9FA1
:10108000300D1124CA01821B930B9C0136952795C4
:1010900036952795ABE7B4E10E948A17AC015695C7
:1010A00047959A01ADECBCEC0E948A1796958795FE
:1010B0009695879596958795BC01660F771F880F43
:1010C000991F880F991F880F991F860F971F281B3C
:1010D000390B622F86E00E949701209176003091B3
:1010E0007700369527953695279536952795A5EC63
:1010F000B0E20E948A17929582958F7089279F701F
:101100008927682F85E00E9497016FE084E00E94A4
:1011100097016FE083E00E94970160916600CDEC3B
:101120006C9F812D1124869586958695880F982F22
:10113000990F990F890F681B82E00E9497016091B7
:1011400066006C9F612D112466956695669581E019
:101150000E94970180916B00833009F050C080910C
:101160006A00813009F04BC00E94A6016FE088E060
:101170000E9497016FE087E00E9497016FE086E090
:101180000E9497016FE085E00E94970160916500E1
:10119000CDEC6C9F812D1124869586958695880FC0
:1011A000982F990F990F890F681B84E00E9497016F
:1011B000609165006C9F612D11246695669566951A
:1011C00083E00E949701609166006C9F812D11243D
:1011D000869586958695880F982F990F990F890F78
:1011E000681B82E00E949701609166006C9F612DF0
:1011F000112466956695669581E00E94970180911D
:101200006B00813009F064C080916A00833009F07E
:101210005FC00E94A60160917300CDEC6C9F812D90
:101220001124869586958695880F982F990F990F8A
:10123000890F681B88E00E949701609173006C9F82
:10124000612D112466956695669587E00E94970149
:101250006FE086E00E9497016FE085E00E949701B1
:10126000609169006C9F812D1124869586958695E5
:10127000880F982F990F990F890F681B84E00E949F
:101280009701609169006C9F612D112466956695A8
:10129000669583E00E949701609168006C9F812DA4
:1012A0001124869586958695880F982F990F990F0A
:1012B000890F681B82E00E949701609168006C9F13
:1012C000612D112466956695669581E00E949701CF
:1012D00080916B00823009F064C080916A00833095
:1012E00009F05FC00E94A6016FE088E00E949701AC
:1012F0006FE087E00E94970160917400CDEC6C9FD5
:10130000812D1124869586958695880F982F990FA3
:10131000990F890F681B86E00E9497016091740005
:101320006C9F612D112466956695669585E00E94F7
:101330009701609169006C9F812D11248695869597
:101340008695880F982F990F990F890F681B84E055
:101350000E949701609169006C9F612D1124669530
:101360006695669583E00E949701609168006C9F86
:10137000812D1124869586958695880F982F990F33
:10138000990F890F681B82E00E94970160916800A5
:101390006C9F612D112466956695669581E00E948B
:1013A0009701DF91CF9108954F925F926F927F9254
:1013B0008F929F92AF92BF92CF92DF92EF92FF9265
:1013C0000F931F93CF93DF93F82E8A01C62FD0E09F
:1013D0008EE090E08C1B9D0B6CE070E00E94761715
:1013E000072E000C880B990B0E947A150E94B515E8
:1013F0004B015C01B80160547D4E80E090E00E949A
:101400007815A50194010E9465142B013C0120E090
:1014100030E040E451E4C501B4010E9487164B015D
:101420005C01BE01DD0F880B990B0E947A15A501A6
:1014300094010E94661420E030E040E450E40E94F1
:1014400065144B015C016F2D70E080E090E00E941C
:101450007A156B017C0120E030E049E153E4C501DD
:10146000B4010E94871620E030E040E050E40E9482
:10147000661420E030E040EA50E40E94D7140E9455
:10148000B5159B01AC01C701B6010E9466146B0142
:101490007C0120E030E846EB53E4C301B2010E9436
:1014A00087169B01AC01C701B6010E9466146B014F
:1014B0007C0120E030E040E85EE3C301B2010E941D
:1014C00087160E94B5159B01AC01C701B6010E94A9
:1014D00066146B017C0120E030E048EC52E4C3016B
:1014E000B2010E94D7140E94B5159B01AC01C7013F
:1014F000B6010E9465144B015C0120E030E048EC2D
:1015000053E4C301B2010E94D7140E94B5159B0198
:10151000AC01C501B4010E94661420E03AE54AEF2F
:1015200056E40E9465144B015C0124E634E54CE06E
:101530005AE40E94D214882354F420E036EA4AEF99
:1015400056E4C701B6010E9465144B015C01C50158
:10155000B401DF91CF911F910F91FF90EF90DF9039
:10156000CF90BF90AF909F908F907F906F905F9043
:101570004F9008954F925F926F927F928F929F92B9
:10158000AF92BF92CF92DF92EF92FF92CF93DF9311
:10159000CDB7DEB764970FB6F894DEBF0FBECDBFF0
:1015A0006B017C0123E33BE94AE954E40E94D71430
:1015B00069837A838B839C839B01AC010E9487168D
:1015C0006D837E838F8398879B01AC0169817A81CB
:1015D0008B819C810E9487166D877E878F87988B71
:1015E00025EA3EE34CEE51E4C701B6010E9487169E
:1015F00023EB36E643E15AE40E9466144B015C019A
:1016000025E63BE047EF58E36D817E818F81988529
:101610000E9487169B01AC01C501B4010E946614AB
:101620004B015C0123E13EE646E254E36D857E8595
:101630008F8598890E9487169B01AC01C501B40172
:101640000E9465144B015C0128EB3EED44E053E43D
:1016500069817A818B819C810E9487162CE53FE805
:1016600046E253E40E9466142B013C012AE53AE469
:1016700046E15CE36D817E818F8198850E948716AB
:101680009B01AC01C301B2010E94651425E33AEF4E
:101690004EE85CE30E9487160E94F4162AED33E0C0
:1016A0004DEA59E30E9487169B01AC01C501B401C4
:1016B0000E946614698B7A8B8B8B9C8B25EC37EDA3
:1016C00048EE51E4C701B6010E94871623EB3CE9BE
:1016D00043EB53E40E9466144B015C012AE93BEAA8
:1016E0004BE058E36D817E818F8198850E9487163B
:1016F0009B01AC01C501B4010E9465144B015C0162
:1017000025E23EED48E656E36D857E858F85988916
:101710000E9487169B01AC01C501B4010E946514AB
:1017200069877A878B879C8721E938EE40EC53E400
:10173000C701B6010E9487162DE333E049E953E45F
:101740000E9466144B015C0126E63FEC4FE25CE32D
:101750006D817E818F8198850E9487169B01AC01E7
:10176000C501B4010E9466144B015C012CEC3DE5FF
:101770004FE457E36D857E858F8598890E94871693
:101780009B01AC01C501B4010E9466142B013C0110
:1017900023ED35E543EC53E4C701B6010E948716FB
:1017A00027E03FE54AEA51E40E9466146B017C01A0
:1017B00024EC32EA48ED5AE36D817E818F81988571
:1017C0000E9487169B01AC01C701B6010E946514F7
:1017D0006B017C0123EE33E640E256E36D857E85A6
:1017E0008F8598890E9487169B01AC01C701B601BD
:1017F0000E9465146B017C0121E93BE04EEC59E34A
:1018000069817A818B819C810E9487169B01AC0142
:1018100065EC7FE881E39EE30E9465144B015C0167
:1018200025E33AEF4EE85CE369857A858B859C85F4
:101830000E9487160E94F4169B01AC01C501B401F9
:101840000E9487164B015C0125E33AEF4EE05DE311
:1018500069857A858B859C850E9487160E94F4167F
:1018600027E230EA49E05BE30E9487169B01AC0166
:10187000C501B4010E9466144B015C0125E33AEFF7
:101880004EE85CE3C301B2010E9487160E94F41681
:1018900027E138E440ED5EE30E9487169B01AC012E
:1018A000C501B4010E9465144B015C0125E33AEFC8
:1018B0004EE05DE3C301B2010E9487160E94F41658
:1018C00026E234EE43E85CE30E9487169B01AC01FC
:1018D000C501B4010E9466144B015C0120E537E7A5
:1018E00046E55DE3C301B2010E9487160E94F4162B
:1018F00027E137EB41ED59E30E9487169B01AC01CC
:10190000C501B4010E9465144B015C0125E33AEF67
:101910004EE05DE3C701B6010E9487160E94F416EF
:1019200023EC34E64AE25CE30E9487169B01AC019B
:10193000C501B4010E9466144B015C01A301920130
:1019400069857A858B859C850E94661425E33AEF2C
:101950004EE85CE30E9487160E94F41627EE3DE1F4
:1019600047EA5BE30E9487169B01AC01C501B40105
:101970000E9465144B015C01A301920169857A857F
:101980008B859C850E94651425E33AEF4EE85CE365
:101990000E9487160E94F41623EB3BE742EF5BE3BD
:1019A0000E9487169B01AC01C501B4010E94651419
:1019B0004B015C01A7019601C701B6010E946614A4
:1019C0006B017C019B01AC0169857A858B859C85C7
:1019D0000E94661425E33AEF4EE85CE30E94871606
:1019E0000E94F41627E137EB41ED59E30E94871678
:1019F0009B01AC01C501B4010E9466144B015C015E
:101A000029853A854B855C85C701B6010E9465141E
:101A100025E33AEF4EE85CE30E9487160E94F41635
:101A200027E137EB41ED59E30E9487169B01AC019A
:101A3000C501B4010E9465144B015C01A701960128
:101A4000C301B2010E94661425E33AEF4EE85CE35D
:101A50000E9487160E94F41622E539E44DE15AE30C
:101A60000E9487169B01AC01C501B4010E94651458
:101A70004B015C01A3019201C701B6010E946514EC
:101A800025E33AEF4EE85CE30E9487160E94F416C5
:101A90002FE632E143E85AE30E9487169B01AC012E
:101AA000C501B4010E9466146B017C01A30192017F
:101AB000C301B2010E9466149B01AC0169857A855D
:101AC0008B859C850E94661425E33AEF4EE85CE323
:101AD0000E9487160E94F4162FE632E143E05AE393
:101AE0000E9487169B01AC01C701B6010E946614D3
:101AF0006B017C0120E030E040E351EC69817A81A8
:101B00008B819C810E94D21488230CF051C026E561
:101B100030EF4BE55AE369817A818B819C810E9489
:101B200087162FE632E143E85AE30E9466144B0120
:101B30005C0122E435E14DE659E36D817E818F81C0
:101B400098850E9487169B01AC01C501B4010E94D3
:101B500066144B015C0129E734EC4DE057E36D85D9
:101B60007E858F8598890E9487169B01AC01C501EF
:101B7000B4010E9465144B015C0129E332EF4DEA88
:101B800053E369817A818B819C810E9487169B0136
:101B9000AC016D857E858F8598890E9487169B0193
:101BA000AC01C501B4010E9465144B015C0124C065
:101BB00023EB3FEE4AE859E369817A818B819C816E
:101BC0000E94871627E830EC41E959E30E9465142A
:101BD0004B015C012BE03DE549E859E36D817E81D5
:101BE0008F8198850E9487169B01AC01C501B401C5
:101BF0000E9466144B015C01A701960169897A89EC
:101C00008B899C890E946614A50194010E94651429
:101C100020E030E040E05FE30E9466146B017C014D
:101C2000609160007091610080916200909163000A
:101C300020E030E040EC51E40E94D7149B01AC015D
:101C4000C701B6010E9466140E94B51564960FB6CE
:101C5000F894DEBF0FBECDBFDF91CF91FF90EF9024
:101C6000DF90CF90BF90AF909F908F907F906F90BC
:101C70005F904F9008954F925F926F927F928F92F4
:101C80009F92AF92BF92CF92DF92EF92FF92CF934B
:101C9000DF93CDB7DEB728970FB6F894DEBF0FBE3F
:101CA000CDBF26E631EA45E15AE40E9465146B0196
:101CB0007C01609160007091610080916200909160
:101CC000630020E030E040EC51E40E94D7149B0117
:101CD000AC01C701B6010E94651420E03DEA4EE068
:101CE00057E40E94D7146B017C019B01AC010E9458
:101CF00087164B015C012DE03FE94CE057E4C7013A
:101D0000B6010E9487162AEB33EC42EB53E40E94A3
:101D100066142B013C0126E139E743E259E3C50192
:101D2000B4010E9487169B01AC01C301B2010E945D
:101D300065142B013C0129E539ED40E055E3C7016D
:101D4000B6010E9487169B01AC01C501B4010E9437
:101D500087169B01AC01C301B2010E9465142B01DF
:101D60003C0125EC30EA4CE057E4C701B6010E9483
:101D7000871625EB3BE34CE853E40E946614698325
:101D80007A838B839C8321ED36EF4EE959E3C501BD
:101D9000B4010E9487169B01AC0169817A818B8115
:101DA0009C810E94661469837A838B839C832DEEC9
:101DB00037ED4DE95BE3C701B6010E9487169B0131
:101DC000AC016DE971E185EF9FE30E9465146D83BD
:101DD0007E838F8398872BE831EE4AE657E3C5016F
:101DE000B4010E9487169B01AC016D817E818F81B9
:101DF00098850E9465144B015C0125E33AEF4EE89B
:101E00005CE3C301B2010E9487160E94F4169B0195
:101E1000AC01C501B4010E9487164B015C0126EF9D
:101E20003FEC43ED58E3C701B6010E9487169B01C2
:101E3000AC016CE578EC83EA9CE30E9465146B01CD
:101E40007C0125E33AEF4EE05DE3C301B2010E945D
:101E500087160E94F4169B01AC01C701B6010E94CF
:101E600087169B01AC01C501B4010E9466146B0189
:101E70007C0120E537E746E55DE3C301B2010E943E
:101E800087160E94F41624E23BE048E959E30E94D9
:101E900087169B01AC01C701B6010E9466149B0125
:101EA000AC0169817A818B819C810E94661425E353
:101EB0003AEF4EE85CE30E9487166B017C012BED44
:101EC0003FE049EC50E40E94D7140E94B5152BED79
:101ED0003FE049EC50E40E9487169B01AC01C7012A
:101EE000B6010E9465142BED3FE049E450E40E94E6
:101EF000D71420E030E040EC50E40E9487160E94A6
:101F0000B51528960FB6F894DEBF0FBECDBFDF9192
:101F1000CF91FF90EF90DF90CF90BF90AF909F90C8
:101F20008F907F906F905F904F9008958F929F92C7
:101F3000AF92BF92CF92DF92EF92FF92AC016CE032
:101F40008FE10E94D40924EB36E643E15AE40E9473
:101F5000651425EA3EE34CEE51E40E94D7140E943A
:101F6000B5154B015C010E94BA0A6B017C010E940D
:101F70003B0E20E030E040E151E40E9482168823CD
:101F800064F020E030E040E85FE3C501B4010E9466
:101F900065140E94BA0A6B017C01C701B601FF906B
:101FA000EF90DF90CF90BF90AF909F908F9008956B
:101FB0004F925F926F927F928F929F92AF92BF9259
:101FC000CF92DF92EF92FF920F931F93CF93DF9305
:101FD00024EB36E643E15AE40E94651425EA3EE329
:101FE0004CEE51E40E94D71420E030E040E05FE383
:101FF0000E9466140E94B5154B015C0120E030E0A0
:1020000040E85FE30E9466140E94BA0A0E943B0EF9
:10201000762E672E582E492E0F2EC12CD12CF0E88B
:10202000EF2EFFE3FF2EF02D20E030E040E85FE3ED
:10203000C701B6010E9466146B017C019B01AC01D3
:10204000C501B4010E9466140E94BA0A0E943B0EA8
:10205000D62FC72F182F092F262F372F482F592F4C
:10206000672D762D852D942D0E94D214882371F032
:102070007D2E6C2E512E402E20E030E040E651E4C3
:10208000C701B6010E94D214882374F220E030E028
:1020900040E85FE3C701B6010E946514DF91CF916C
:1020A0001F910F91FF90EF90DF90CF90BF90AF9076
:1020B0009F908F907F906F905F904F9008954F9278
:1020C0005F926F927F928F929F92AF92BF92CF92C8
:1020D000DF92EF92FF920F931F93CF93DF93EA016A
:1020E0000E94D4094B015C0124EB36E643E15AE43B
:1020F0000E94651425EA3EE34CEE51E40E94D71499
:102100000E94B5152B013C0120E030E040E85FE380
:102110000E9466140E94BA0A6B017C019B01AC010B
:10212000C501B4010E94D214882334F4C301B20162
:102130000E94BA0A6B017C01CE010E94960F162FF5
:10214000072F782E692E262F372F482F592FC7019A
:10215000B6010E94D21418168CF0D0938200C0935E
:102160008100CE0101970E94960FC12FD02F572CCE
:10217000462C162F072F782E692E0CC0CE01019603
:1021800090938200809381000E94960FC62FD72FD4
:10219000582E492EA7019601C501B4010E9465146D
:1021A00020E030E040E85FE30E9466140E94491599
:1021B00060937800212F302F472D562DC701B6018F
:1021C0000E94651420E030E048EE51E40E94D714EC
:1021D0000E94B5156B017C0120E030E040E351E442
:1021E0000E9466140E94491560937900212F302FB8
:1021F000472D562D6C2F7D2F852D942D0E94651413
:1022000020E030E846EB53E40E9482161816D4F41E
:10221000612F702F872D962D0E94D80F9B01AC0146
:10222000C701B6010E948216882364F020E030E0E6
:1022300040E251E4C701B6010E9466140E944915AC
:1022400060937900809179008D3018F08C508093E4
:102250007900809179008B3098F020E030E040E800
:1022600050E4C701B6010E94D21488234CF4809137
:102270008100909182000197909382008093810069
:1022800060E070E0CB01DF91CF911F910F91FF9043
:10229000EF90DF90CF90BF90AF909F908F907F9006
:1022A0006F905F904F90089585E083BF81E089BF74
:1022B0007894089581B3837F81BB87B38B7F87BB7D
:1022C00008958AB381608ABB81B3806881BB089519
:1022D0008FE085BF80E484BF80EE8BBF7894089543
:1022E0008BB381608BBB2FEF84E39CE02150804057
:1022F0009040E1F700C000008BB38E7F8BBB2FEFC7
:1023000084E39CE0215080409040E1F700C0000051
:102310008BB381608BBB2FEF84E39CE02150804026
:102320009040E1F700C000008BB38E7F8BBB2FEF96
:1023300084E39CE0215080409040E1F700C0000021
:102340008BB381608BBB2FEF84E39CE021508040F6
:102350009040E1F700C000008BB38E7F8BBB2FEF66
:1023600084E39CE0215080409040E1F700C00000F1
:10237000089582B38F7782BB2FE785EB91E02150E0
:1023800080409040E1F700C0000082B3806882BBCB
:102390002FE788E391E0215080409040E1F700C0B2
:1023A000000082B38F7782BB2FE785EB91E021504D
:1023B00080409040E1F700C0000082B3806882BB9B
:1023C0002FEF89E698E1215080409040E1F700C06E
:1023D0000000089587B3806B87BB8DB182658DB98E
:1023E00067E08BE00E9497016FE08AE00E9497010E
:1023F00061E08CE00E9497016FEF89E00E949701F5
:102400000E945A110E9461110E9454110E94681189
:1024100078940E94580067E08AE790E00E94C30029
:102420000E9429018FEC97E00197F1F700C00000AE
:102430000E9470114091640050E04053584F5093F7
:1024400077004093760060916500809166000E945D
:102450005F100E94B0019091680080917400981301
:10246000E9CF90916900809173009813E3CF809138
:102470006D008823F9F20E94B0010E94B911DACFF1
:102480001F920F920FB60F9211242F933F934F93E9
:102490005F936F937F938F939F93AF93BF93EF93CC
:1024A000FF93809171009091720001969093720059
:1024B0008093710020916F00309170002F5F3F4F2B
:1024C0003093700020936F000A9708F180916E009E
:1024D000811119C00E945E008FEC97E00197F1F71F
:1024E00000C0000067E08AE790E00E94C30080918E
:1024F0007A000E94060190917500891721F00E94D0
:1025000029010E94B0011092720010927100809116
:102510006F00909170000F9780F080916E0088237B
:1025200041F090916C0081E0892780936C000E94BB
:10253000B0011092700010926F00FF91EF91BF9167
:10254000AF919F918F917F916F915F914F913F914B
:102550002F910F900FBE0F901F9018951F920F9202
:102560000FB60F9211242F933F934F935F936F9366
:102570007F938F939F93AF93BF93EF93FF9380913C
:102580006E00811109C090916A009F5F90936A006C
:10259000943010F010926A0090916A0091110CC072
:1025A000882351F010926A0010926B0010926C0018
:1025B0000E94550110926E0080916A00813079F47A
:1025C00080916E00882359F081E080936A00109218
:1025D0006B0010926C000E94550110926E00809169
:1025E0006A00833081F480916E00882361F083E07B
:1025F00080936A0010926B0010926C0081E08093CF
:102600006D0010926E00FF91EF91BF91AF919F917D
:102610008F917F916F915F914F913F912F910F908B
:102620000FBE0F901F9018951F920F920FB60F922A
:1026300011248F939F9380916A00811110C091E0C3
:1026400090936E0090916B009F5F90936B0095301C
:1026500030F010926B0010926C0010926E0081307E
:1026600081F491E090936E0090916B009F5F909346
:102670006B00943030F010926B0010926C0010924E
:102680006E00833091F481E080936E0080916B0046
:102690008F5F80936B00833040F010926B0010923C
:1026A0006C0010926D0010926E009F918F910F90B0
:1026B0000FBE0F901F9018951F920F920FB60F929A
:1026C00011242F933F934F935F938F939F93809108
:1026D0006D00882349F080916E00811105C0109231
:1026E0006D0082B3806882BB80916E00882309F4FC
:1026F00065C090916A00911161C090916B0091301A
:10270000D9F5209166002F5F209366003091650017
:10271000343031F0363021F0393011F03B3031F4C3
:102720002F3150F121E02093660026C0313061F056
:10273000333051F0353041F0373031F0383021F05E
:102740003A3011F03C3031F42032B0F021E02093E7
:10275000660012C0409176005091770044305105D8
:1027600030F42E3148F021E02093660005C02D3171
:1027700018F021E020936600923051F4209165001A
:102780002F5F209365002D3018F021E02093650025
:10279000933049F4209168002F5F2093680028311E
:1027A00010F010926800943049F4909169009F5F96
:1027B000909369009C3310F010926900882309F40B
:1027C0005BC090916A00913009F056C090916B0007
:1027D0009130D9F5209166002F5F209366003091EB
:1027E0006500343031F0363021F0393011F03B30B3
:1027F00031F42F3150F121E02093660026C03130B2
:1028000061F0333051F0353041F0373031F038304D
:1028100021F03A3011F03C3031F42032B0F021E0B8
:102820002093660012C040917600509177004430AA
:10283000510530F42E3148F021E02093660005C0A8
:102840002D3118F021E020936600923051F4209150
:1028500065002F5F209365002D3018F021E0209354
:102860006500933049F4909164009F5F90936400F9
:10287000943610F0109264008823E1F080916A0091
:102880008330C1F480916B00813049F490917400E1
:102890009F5F90937400983110F010927400823012
:1028A00049F4809173008F5F809373008C3310F034
:1028B000109273009F918F915F914F913F912F9153
:1028C0000F900FBE0F901F9018955058BB27AA2746
:1028D0000E947D140C9430160E94221638F00E943B
:1028E000291620F039F49F3F19F426F40C941F1692
:1028F0000EF4E095E7FB0C94F015E92F0E944116C9
:1029000058F3BA17620773078407950720F079F424
:10291000A6F50C947B160EF4E0950B2EBA2FA02D85
:102920000B01B90190010C01CA01A0011124FF277C
:10293000591B99F0593F50F4503E68F11A16F04077
:10294000A22F232F342F4427585FF3CF4695379576
:102950002795A795F0405395C9F77EF41F16BA0B3B
:10296000620B730B840BBAF09150A1F0FF0FBB1FE9
:10297000661F771F881FC2F70EC0BA0F621F731F32
:10298000841F48F4879577956795B795F7959E3F8F
:1029900008F0B0CF9395880F08F09927EE0F979520
:1029A000879508950E94CC1508F481E008950E944F
:1029B000EB140C9430160E94291658F00E9422162F
:1029C00040F029F45F3F29F00C94F01551110C945C
:1029D0007C160C941F160E94411668F39923B1F3DC
:1029E000552391F3951B550BBB27AA276217730735
:1029F000840738F09F5F5F4F220F331F441FAA1FC9
:102A0000A9F335D00E2E3AF0E0E832D09150504084
:102A1000E695001CCAF72BD0FE2F29D0660F771F32
:102A2000881FBB1F261737074807AB07B0E809F018
:102A3000BB0B802DBF01FF2793585F4F3AF09E3F9D
:102A4000510578F00C94F0150C947C165F3FE4F37C
:102A5000983ED4F3869577956795B795F7959F5FE0
:102A6000C9F7880F911D9695879597F90895E1E02C
:102A7000660F771F881FBB1F621773078407BA078B
:102A800020F0621B730B840BBA0BEE1F88F7E095E6
:102A900008950E94491688F09F5798F0B92F9927FA
:102AA000B751B0F0E1F0660F771F881F991F1AF039
:102AB000BA95C9F714C0B13091F00E947B16B1E00D
:102AC00008950C947B16672F782F8827B85F39F00C
:102AD000B93FCCF3869577956795B395D9F73EF4D2
:102AE00090958095709561957F4F8F4F9F4F08957A
:102AF000E89409C097FB3EF4909580957095619598
:102B00007F4F8F4F9F4F9923A9F0F92F96E9BB274D
:102B10009395F695879577956795B795F111F8CFC9
:102B2000FAF4BB0F11F460FF1BC06F5F7F4F8F4F34
:102B30009F4F16C0882311F096E911C0772321F02A
:102B40009EE8872F762F05C0662371F096E8862FC2
:102B500070E060E02AF09A95660F771F881FDAF719
:102B6000880F9695879597F908950E94631690F0BF
:102B70009F3748F4911116F00C947C1660E070E0D9
:102B800080E89FEB089526F41B16611D711D811DC1
:102B90000C94F6150C941116990F0008550FAA0BFA
:102BA000E0E8FEEF16161706E807F907C0F0121660
:102BB0001306E407F50798F0621B730B840B950B63
:102BC00039F40A2661F0232B242B252B21F40895B8
:102BD0000A2609F4A140A6958FEF811D811D089555
:102BE00097F99F6780E870E060E00895882371F4AA
:102BF000772321F09850872B762F07C0662311F496
:102C000099270DC09051862B70E060E02AF09A95CC
:102C1000660F771F881FDAF7880F9695879597F9C3
:102C200008959F3F31F0915020F4879577956795EF
:102C3000B795880F911D9695879597F908959FEF01
:102C400080EC089500240A94161617061806090643
:102C5000089500240A941216130614060506089512
:102C6000092E0394000C11F4882352F0BB0F40F49A
:102C7000BF2B11F460FF04C06F5F7F4F8F4F9F4FDA
:102C8000089557FD9058440F551F59F05F3F71F05C
:102C90004795880F97FB991F61F09F3F79F08795C3
:102CA0000895121613061406551FF2CF4695F1DF4C
:102CB00008C0161617061806991FF1CF86957105DC
:102CC0006105089408950E944916A0F0BEE7B9175F
:102CD00088F4BB279F3860F41616B11D672F782F34
:102CE0008827985FF7CF869577956795B11D93955F
:102CF0009639C8F30895E894BB2766277727CB0158
:102D000097F908950E94CC1508F48FEF08950E945A
:102D10009A160C9430160E94221638F00E9429163A
:102D200020F0952311F00C94F0150C941F1611242B
:102D30000C947C160E94411670F3959FC1F3950F79
:102D400050E0551F629FF001729FBB27F00DB11D2F
:102D5000639FAA27F00DB11DAA1F649F6627B00DBF
:102D6000A11D661F829F2227B00DA11D621F739FA8
:102D7000B00DA11D621F839FA00D611D221F749FB6
:102D80003327A00D611D231F849F600D211D822FFD
:102D9000762F6A2F11249F5750409AF0F1F0882324
:102DA0004AF0EE0FFF1FBB1F661F771F881F915051
:102DB0005040A9F79E3F510580F00C94F0150C94FB
:102DC0007C165F3FE4F3983ED4F38695779567953C
:102DD000B795F795E7959F5FC1F7FE2B880F911D7B
:102DE0009695879597F908959F930E94FE160F90E8
:102DF00007FCEE5F0C9427170C941F160E944916CF
:102E0000D8F3E894E0E0BB279F57F0F02AED3FE0CD
:102E100049EC06C0EE0FBB0F661F771F881F28F016
:102E2000B23A62077307840728F0B25A620B730B39
:102E3000840BE3959A9572F7803830F49A95BB0F1E
:102E4000661F771F881FD2F790480C941316EF93D4
:102E5000E0FF07C0A2EA2AED3FE049EC5FEB0E94E9
:102E60007D140E9430160F90039401FC9058E4E505
:102E7000F0E00C943B179F938F937F936F93FF9396
:102E8000EF939B01AC010E948716EF91FF910E9486
:102E90004F172F913F914F915F910C948716DF93BD
:102EA000CF931F930F93FF92EF92DF927B018C01E0
:102EB000689406C0DA2EEF010E949A16FE01E8948B
:102EC000A5912591359145915591A6F3EF010E9469
:102ED0007D14FE019701A801DA9469F7DF90EF9065
:102EE000FF900F911F91CF91DF91089597FB072ECF
:102EF00016F4009407D077FD09D00E94991707FCBB
:102F000005D03EF4909581959F4F089570956195F9
:102F10007F4F0895A29FB001B39FC001A39F700D82
:102F2000811D1124911DB29F700D811D1124911DD1
:102F30000895AA1BBB1B51E107C0AA1FBB1FA61700
:102F4000B70710F0A61BB70B881F991F5A95A9F752
:0E2F500080959095BC01CD010895F894FFCFB7
:0A2F5E000000E040160113040E0A03
:00000001FF
