:100000000C9439000C94C0110C9426120C946E12AE
:100010000C9456000C9456000C9456000C94560008
:100020000C9456000C9456000C9456000C945211EB
:100030000C9456000C9456000C9456000C945600E8
:100040000C9456000C9456000C9456000C945600D8
:100050000C94560005A84CCDB2D44EB93836A9023E
:100060000C50B9918688083CA6AAAA2ABE000000B6
:10007000803F11241FBECFE5D8E0DEBFCDBF10E02A
:10008000A0E6B0E0E2E8FDE202C005900D92A836DD
:10009000B107D9F720E0A8E6B0E001C01D92A8386A
:1000A000B207E1F70E940E110C94BF160C940000E9
:1000B00011B888E480B984E886BF089594EA96BFB1
:1000C00006B607FEFDCF91B1987F983011F081B14F
:1000D000089590ED93B994E896BF06B607FEFDCF5C
:1000E00091B1987F983111F081B1089583B984E876
:1000F00086BF06B607FEFDCF81B1887F883211F03A
:1001000081B1089584E986BF80E0089594EA96BF9E
:1001100006B607FEFDCF91B1987F983011F081B1FE
:10012000089590ED93B994E896BF06B607FEFDCF0B
:1001300091B1987F983111F081B1089583B984E825
:1001400086BF06B607FEFDCF81B1887F8832A1F059
:1001500081B10895FB01E80FF11D908193B994E8F6
:1001600096BF06B607FEFDCF91B1987F983211F089
:1001700081B108958F5F01C080E0841758F384E94E
:1001800086BF80E00895DC0184EA86BF06B607FEDC
:10019000FDCF81B1887F8830C9F781ED83B984E8CC
:1001A00086BF06B607FEFDCF91B1987F9034C9F7A0
:1001B00020E00FC084EC86BF06B607FEFDCF91B1EC
:1001C000987F9035C9F7FD01E20FF11D83B180835F
:1001D0002F5FE22FF0E0462F50E041505109E41725
:1001E000F50744F384E886BF06B607FEFDCF91B15C
:1001F000987F9835C9F7862F90E00197A80FB91F0F
:1002000083B18C9384E986BF80E00895382F3F70D6
:10021000982F92959F70990F292F220F220F892FC7
:10022000820F830F08952DEC829F212D1124922F90
:10023000969596959695990F392F330F330F930F07
:10024000891B26952695269530E1239F800D112444
:100250000895CF93DF93CFE7D0E088818F770E9416
:1002600006018093750089810E94060180936700D2
:1002700080917300882341F0809181008F710E94EA
:1002800006018093740007C0809181008F730E94E3
:10029000060180937400CFE7D0E08B810E940601B5
:1002A000809366008C810E940601809365008D8199
:1002B0000E940601809364008E810E940601809353
:1002C0006300DF91CF910895CF93DF938091750004
:1002D0000E941301CFE7D0E08883809167000E94DD
:1002E00013018983C0917300CC2399F0809174002D
:1002F0000E94130190E4C99F900111244091620073
:1003000090E2499FA0011124822B842B80938100CD
:1003100006C0809174000E94130180938100809137
:1003200066000E941301CFE7D0E08B8380916500C7
:100330000E9413018C83809164000E9413018D83BD
:10034000809163000E9413018E8347E0BE0180E02C
:100350000E9486008FEC97E00197F1F700C0000043
:1003600080E00E945E008FEC97E00197F1F700C0FB
:100370000000DF91CF9108958FB9779BFECF08954C
:10038000CF93C62F98B39F7E98BB0E94BC018C2F41
:100390000E94BC0188B3806188BBCF910895CF9340
:1003A000C09160006FE08C2F0E94C001C150D1F756
:1003B000CF910895CF93DF9380916A008111F6C2A7
:1003C00080916800811174C00E94CF016091670024
:1003D000CDEC6C9F812D1124869586958695880F8E
:1003E000982F990F990F890F681B88E00E94C00110
:1003F000609167006C9F612D1124669566956695E6
:1004000087E00E94C001609174006C9F812D1124CF
:10041000869586958695880F982F990F990F890F45
:10042000681B86E00E94C001609174006C9F612D82
:10043000112466956695669585E00E94C0016091DD
:1004400064006C9F812D1124869586958695880F72
:10045000982F990F990F890F681B84E00E94C001A3
:10046000609164006C9F612D112466956695669578
:1004700083E00E94C001609165006C9F812D112472
:10048000869586958695880F982F990F990F890FD5
:10049000681B82E00E94C001609165006C9F612D25
:1004A000112466956695669581E00E94C001F7C6A5
:1004B000813009F01EC10E94CF01E0917600F091D9
:1004C00077009F0136952795369527953695279580
:1004D000A5ECB0E20E949C16AC01529542954F707B
:1004E00045275F704527C8EED3E04C9FC0014D9F64
:1004F000900D5C9F900D1124AF01481B590B9A0180
:10050000ADECBCEC0E949C169695879596958795C8
:1005100096958795BC01660F771F880F991F880FE6
:10052000991F880F991F860F971F281B390B622F61
:1005300088E00E94C00140917600509177009A01B6
:10054000369527953695279536952795A5ECB0E2F3
:100550000E949C169C01329522952F7023273F7094
:1005600023272C9FC0012D9F900D3C9F900D11249F
:100570009A01281B390BADECBCEC0E949C16AC0117
:100580005695479556954795569547959A010E94D9
:100590009C16969587959695879596958795BC0117
:1005A000660F771F880F991F880F991F880F991F53
:1005B000860F971F281B390B622F87E00E94C0010E
:1005C00040917600509177009A013695279536959F
:1005D000279536952795A5ECB0E20E949C1692953A
:1005E00082958F7089279F7089278C9F90018D9F9E
:1005F000300D9C9F300D1124CA01821B930B9C016E
:100600003695279536952795ABE7B4E10E949C1661
:10061000AC01569547959A01ADECBCEC0E949C1636
:10062000969587959695879596958795BC01660FC3
:10063000771F880F991F880F991F880F991F860FA2
:10064000971F281B390B622F86E00E94C001209162
:100650007600309177003695279536952795369513
:100660002795A5ECB0E20E949C16929582958F701A
:1006700089279F708927682F85E00E94C0016091BB
:100680006400CDEC6C9F812D11248695869586950E
:10069000880F982F990F990F890F681B84E00E948B
:1006A000C001609164006C9F612D11246695669570
:1006B000669583E00E94C001609165006C9F812D6A
:1006C0001124869586958695880F982F990F990FF6
:1006D000890F681B82E00E94C001609165006C9FD9
:1006E000612D112466956695669581E00E94C00192
:1006F000D6C5823009F01EC10E94CF01E09186006C
:10070000F09187009F013695279536952795369568
:100710002795A5ECB0E20E949C16AC01529542953B
:100720004F7045275F704527C8EED3E04C9FC0014E
:100730004D9F900D5C9F900D1124AF01481B590BEC
:100740009A01ADECBCEC0E949C1696958795969507
:10075000879596958795BC01660F771F880F991F1F
:10076000880F991F880F991F860F971F281B390B19
:10077000622F88E00E94C00140918600509187005E
:100780009A01369527953695279536952795A5ECA8
:10079000B0E20E949C169C01329522952F7023276F
:1007A0003F7023272C9FC0012D9F900D3C9F900DE3
:1007B00011249A01281B390BADECBCEC0E949C164D
:1007C000AC015695479556954795569547959A018C
:1007D0000E949C16969587959695879596958795F0
:1007E000BC01660F771F880F991F880F991F880F0C
:1007F000991F860F971F281B390B622F87E00E94D5
:10080000C00140918600509187009A013695279546
:100810003695279536952795A5ECB0E20E949C1653
:10082000929582958F7089279F7089278C9F900160
:100830008D9F300D9C9F300D1124CA01821B930B9C
:100840009C013695279536952795ABE7B4E10E9434
:100850009C16AC01569547959A01ADECBCEC0E94F4
:100860009C16969587959695879596958795BC0144
:10087000660F771F880F991F880F991F880F991F80
:10088000860F971F281B390B622F86E00E94C0013C
:1008900020918600309187003695279536952795CB
:1008A00036952795A5ECB0E20E949C16929582950C
:1008B0008F7089279F708927682F85E00E94C0016B
:1008C00060917900CDEC6C9F812D112486958695E1
:1008D0008695880F982F990F990F890F681B84E0D0
:1008E0000E94C001609179006C9F612D1124669572
:1008F0006695669583E00E94C001609178006C9FC8
:10090000812D1124869586958695880F982F990FAD
:10091000990F890F681B82E00E94C00160917800E6
:100920006C9F612D112466956695669581E00E9405
:10093000C001B5C40E94CF0160917100CDEC6C9FE5
:10094000812D1124869586958695880F982F990F6D
:10095000990F890F681B88E00E94C00160917100A7
:100960006C9F612D112466956695669587E00E94BF
:10097000C001609172006C9F812D1124869586952F
:100980008695880F982F990F990F890F681B86E01D
:100990000E94C001609172006C9F612D11246695C8
:1009A0006695669585E00E94C00179C480916900D2
:1009B000813009F063C08091680081115FC00E949E
:1009C000CF0160916700CDEC6C9F812D112486953D
:1009D00086958695880F982F990F990F890F681B18
:1009E00088E00E94C001609167006C9F612D112416
:1009F00066956695669587E00E94C00160917400D7
:100A00006C9F812D1124869586958695880F982F49
:100A1000990F990F890F681B86E00E94C0016091B1
:100A200074006C9F612D112466956695669585E02E
:100A30000E94C001609164006C9F812D11248695F5
:100A400086958695880F982F990F990F890F681BA7
:100A500084E00E94C001609164006C9F612D1124AC
:100A600066956695669583E00E94C0016FE082E01E
:100A70000E94C0016FE081E00E94C0018091690086
:100A8000823009F063C08091680081115FC00E94CC
:100A9000CF0160916700CDEC6C9F812D112486956C
:100AA00086958695880F982F990F990F890F681B47
:100AB00088E00E94C001609167006C9F612D112445
:100AC00066956695669587E00E94C0016091740006
:100AD0006C9F812D1124869586958695880F982F79
:100AE000990F990F890F681B86E00E94C0016091E1
:100AF00074006C9F612D112466956695669585E05E
:100B00000E94C0016FE084E00E94C0016FE083E0BA
:100B10000E94C001609165006C9F812D1124869513
:100B200086958695880F982F990F990F890F681BC6
:100B300082E00E94C001609165006C9F612D1124CC
:100B400066956695669581E00E94C0018091690076
:100B5000833009F063C08091680081115FC00E94FA
:100B6000CF0160916700CDEC6C9F812D112486959B
:100B700086958695880F982F990F990F890F681B76
:100B800088E00E94C001609167006C9F612D112474
:100B900066956695669587E00E94C0016FE086E0E5
:100BA0000E94C0016FE085E00E94C0016091640076
:100BB0006C9F812D1124869586958695880F982F98
:100BC000990F990F890F681B84E00E94C001609102
:100BD00064006C9F612D112466956695669583E08F
:100BE0000E94C001609165006C9F812D1124869543
:100BF00086958695880F982F990F990F890F681BF6
:100C000082E00E94C001609165006C9F612D1124FB
:100C100066956695669581E00E94C00180916900A5
:100C2000843009F063C08091680081115FC00E9428
:100C3000CF016FE088E00E94C0016FE087E00E9472
:100C4000C00160917400CDEC6C9F812D11248695BC
:100C500086958695880F982F990F990F890F681B95
:100C600086E00E94C001609174006C9F612D112488
:100C700066956695669585E00E94C0016091640066
:100C80006C9F812D1124869586958695880F982FC7
:100C9000990F990F890F681B84E00E94C001609131
:100CA00064006C9F612D112466956695669583E0BE
:100CB0000E94C001609165006C9F812D1124869572
:100CC00086958695880F982F990F990F890F681B25
:100CD00082E00E94C001609165006C9F612D11242B
:100CE00066956695669581E00E94C00180916900D5
:100CF000813009F00EC180916800813009F009C18E
:100D00000E94CF01E0917600F09177009F01369527
:100D100027953695279536952795A5ECB0E20E9444
:100D20009C16AC01529542954F7045275F70452740
:100D3000C8EED3E04C9FC0014D9F900D5C9F900D7D
:100D40001124AF01481B590B9A01ADECBCEC0E9479
:100D50009C16969587959695879596958795BC014F
:100D6000660F771F880F991F880F991F880F991F8B
:100D7000860F971F281B390B622F88E00E94C00145
:100D800040917600509177009A01369527953695D7
:100D9000279536952795A5ECB0E20E949C169C01FC
:100DA000329522952F7023273F7023272C9FC00157
:100DB0002D9F900D3C9F900D11249A01281B390BFB
:100DC000ADECBCEC0E949C16AC015695479556952F
:100DD0004795569547959A010E949C16969587953A
:100DE0009695879596958795BC01660F771F880F16
:100DF000991F880F991F880F991F860F971F281B0F
:100E0000390B622F87E00E94C0014091760050911B
:100E100077009A013695279536952795369527952B
:100E2000A5ECB0E20E949C16929582958F7089275E
:100E30009F7089278C9F90018D9F300D9C9F300D56
:100E40001124CA01821B930B9C0136952795369578
:100E50002795ABE7B4E10E949C16AC0156954795E7
:100E60009A01ADECBCEC0E949C16969587959695E0
:100E7000879596958795BC01660F771F880F991FF8
:100E8000880F991F880F991F860F971F281B390BF2
:100E9000622F86E00E94C001209176003091770099
:100EA000369527953695279536952795A5ECB0E28A
:100EB0000E949C16929582958F7089279F70892732
:100EC000682F85E00E94C00160916400CDEC6C9FAA
:100ED000812D1124869586958695880F982F990FD8
:100EE000990F890F681B84E00E94C0016091640023
:100EF0006C9F612D112466956695669583E00E942E
:100F0000C0016FE082E00E94C0016FE081E00E94BA
:100F1000C00180916900823009F00EC180916800A3
:100F2000813009F009C10E94CF01E0917600F09173
:100F300077009F0136952795369527953695279505
:100F4000A5ECB0E20E949C16AC01529542954F7000
:100F500045275F704527C8EED3E04C9FC0014D9FE9
:100F6000900D5C9F900D1124AF01481B590B9A0105
:100F7000ADECBCEC0E949C1696958795969587954E
:100F800096958795BC01660F771F880F991F880F6C
:100F9000991F880F991F860F971F281B390B622FE7
:100FA00088E00E94C00140917600509177009A013C
:100FB000369527953695279536952795A5ECB0E279
:100FC0000E949C169C01329522952F7023273F701A
:100FD00023272C9FC0012D9F900D3C9F900D112425
:100FE0009A01281B390BADECBCEC0E949C16AC019D
:100FF0005695479556954795569547959A010E945F
:101000009C16969587959695879596958795BC019C
:10101000660F771F880F991F880F991F880F991FD8
:10102000860F971F281B390B622F87E00E94C00193
:1010300040917600509177009A0136952795369524
:10104000279536952795A5ECB0E20E949C169295BF
:1010500082958F7089279F7089278C9F90018D9F23
:10106000300D9C9F300D1124CA01821B930B9C01F3
:101070003695279536952795ABE7B4E10E949C16E7
:10108000AC01569547959A01ADECBCEC0E949C16BC
:10109000969587959695879596958795BC01660F49
:1010A000771F880F991F880F991F880F991F860F28
:1010B000971F281B390B622F86E00E94C0012091E8
:1010C0007600309177003695279536952795369599
:1010D0002795A5ECB0E20E949C16929582958F70A0
:1010E00089279F708927682F85E00E94C0016FE0E3
:1010F00084E00E94C0016FE083E00E94C001609123
:101100006500CDEC6C9F812D112486958695869582
:10111000880F982F990F990F890F681B82E00E9402
:10112000C001609165006C9F612D112466956695E4
:10113000669581E00E94C00180916900833009F0CA
:1011400050C080916800813009F04BC00E94CF01EF
:101150006FE088E00E94C0016FE087E00E94C0015C
:101160006FE086E00E94C0016FE085E00E94C00150
:1011700060916400CDEC6C9F812D1124869586953D
:101180008695880F982F990F990F890F681B84E017
:101190000E94C001609164006C9F612D11246695CE
:1011A0006695669583E00E94C001609165006C9F22
:1011B000812D1124869586958695880F982F990FF5
:1011C000990F890F681B82E00E94C0016091650041
:1011D0006C9F612D112466956695669581E00E944D
:1011E000C00180916900813059F580916800833099
:1011F00039F50E94CF0160917100CDEC6C9F812D7B
:101200001124869586958695880F982F990F990FAA
:10121000890F681B88E00E94C001609171006C9F7B
:10122000612D112466956695669587E00E94C00140
:101230006FE086E00E94C0016FE085E00E94C0017F
:1012400080916900823059F580916800833039F5CA
:101250000E94CF016FE088E00E94C0016FE087E04C
:101260000E94C00160917200CDEC6C9F812D112411
:10127000869586958695880F982F990F990F890FD7
:10128000681B86E00E94C001609172006C9F612D16
:10129000112466956695669585E00E94C001DF91F0
:1012A000CF9108954F925F926F927F928F929F920B
:1012B000AF92BF92CF92DF92EF92FF920F931F9364
:1012C000CF93DF93F82E8A01C62FD0E08EE090E016
:1012D0008C1B9D0B6CE070E00E948816072E000CA2
:1012E000880B990B0E948C140E94C7144B015C015F
:1012F000B80160547D4E80E090E00E948A14A50100
:1013000094010E9477132B013C0120E030E040E47F
:1013100051E4C501B4010E9499154B015C01BE0165
:10132000DD0F880B990B0E948C14A50194010E947B
:10133000781320E030E040E450E40E9477134B0142
:101340005C016F2D70E080E090E00E948C146B01D6
:101350007C0120E030E049E153E4C501B4010E9482
:10136000991520E030E040E050E40E94781320E03E
:1013700030E040EA50E40E94E9130E94C7149B0148
:10138000AC01C701B6010E9478136B017C0120E01B
:1013900030E846EB53E4C301B2010E9499159B016A
:1013A000AC01C701B6010E9478136B017C0120E0FB
:1013B00030E040E85EE3C301B2010E9499150E944B
:1013C000C7149B01AC01C701B6010E9478136B01E1
:1013D0007C0120E030E048EC52E4C301B2010E94FD
:1013E000E9130E94C7149B01AC01C701B6010E941A
:1013F00077134B015C0120E030E048EC53E4C3017B
:10140000B2010E94E9130E94C7149B01AC01C501FF
:10141000B4010E94781320E03AE54AEF56E40E94B6
:1014200077134B015C0124E634E54CE05AE40E945A
:10143000E413882354F420E036EA4AEF56E4C70167
:10144000B6010E9477134B015C01C501B401DF9125
:10145000CF911F910F91FF90EF90DF90CF90BF90B1
:10146000AF909F908F907F906F905F904F90089576
:101470004F925F926F927F928F929F92AF92BF92A4
:10148000CF92DF92EF92FF92CF93DF93CDB7DEB78B
:1014900066970FB6F894DEBF0FBECDBF6B017C011F
:1014A0005E8B4D8B23E33BE94AE954E40E94E91348
:1014B00069837A838B839C839B01AC010E9499157D
:1014C0006D837E838F8398879B01AC0169817A81CC
:1014D0008B819C810E9499156D877E878F87988B61
:1014E00025EA3EE34CEE51E4C701B6010E9499158E
:1014F00023EB36E643E15AE40E9478134B015C018A
:1015000025E63BE047EF58E36D817E818F8198852A
:101510000E9499159B01AC01C501B4010E9478138A
:101520004B015C0123E13EE646E254E36D857E8596
:101530008F8598890E9499159B01AC01C501B40162
:101540000E9477134B015C0128EB3EED44E053E42D
:1015500069817A818B819C810E9499152CE53FE8F5
:1015600046E253E40E9478132B013C012AE53AE459
:1015700046E15CE36D817E818F8198850E9499159B
:101580009B01AC01C301B2010E94771325E33AEF3E
:101590004EE85CE30E9499150E9406162AED33E09E
:1015A0004DEA59E30E9499159B01AC01C501B401B4
:1015B0000E947813698B7A8B8B8B9C8B25EC37ED93
:1015C00048EE51E4C701B6010E94991523EB3CE9AE
:1015D00043EB53E40E9478134B015C012AE93BEA98
:1015E0004BE058E36D817E818F8198850E9499152B
:1015F0009B01AC01C501B4010E9477134B015C0152
:1016000025E23EED48E656E36D857E858F85988917
:101610000E9499159B01AC01C501B4010E9477138A
:1016200069877A878B879C8721E938EE40EC53E401
:10163000C701B6010E9499152DE333E049E953E44F
:101640000E9478134B015C0126E63FEC4FE25CE31D
:101650006D817E818F8198850E9499159B01AC01D7
:10166000C501B4010E9478134B015C012CEC3DE5EF
:101670004FE457E36D857E858F8598890E94991583
:101680009B01AC01C501B4010E9478132B013C0100
:1016900023ED35E543EC53E4C701B6010E949915EB
:1016A00027E03FE54AEA51E40E9478136B017C0190
:1016B00024EC32EA48ED5AE36D817E818F81988572
:1016C0000E9499159B01AC01C701B6010E947713D6
:1016D0006B017C0123EE33E640E256E36D857E85A7
:1016E0008F8598890E9499159B01AC01C701B601AD
:1016F0000E9477136B017C0121E93BE04EEC59E33A
:1017000069817A818B819C810E9499159B01AC0132
:1017100065EC7FE881E39EE30E9477134B015C0157
:1017200025E33AEF4EE85CE369857A858B859C85F5
:101730000E9499150E9406169B01AC01C501B401D7
:101740000E9499154B015C0125E33AEF4EE05DE301
:1017500069857A858B859C850E9499150E9406165D
:1017600027E230EA49E05BE30E9499159B01AC0156
:10177000C501B4010E9478134B015C0125E33AEFE7
:101780004EE85CE3C301B2010E9499150E9406165F
:1017900027E138E440ED5EE30E9499159B01AC011E
:1017A000C501B4010E9477134B015C0125E33AEFB8
:1017B0004EE05DE3C301B2010E9499150E94061636
:1017C00026E234EE43E85CE30E9499159B01AC01EC
:1017D000C501B4010E9478134B015C0120E537E795
:1017E00046E55DE3C301B2010E9499150E94061609
:1017F00027E137EB41ED59E30E9499159B01AC01BC
:10180000C501B4010E9477134B015C0125E33AEF57
:101810004EE05DE3C701B6010E9499150E940616CD
:1018200023EC34E64AE25CE30E9499159B01AC018B
:10183000C501B4010E9478134B015C01A301920120
:1018400069857A858B859C850E94781325E33AEF1C
:101850004EE85CE30E9499150E94061627EE3DE1D2
:1018600047EA5BE30E9499159B01AC01C501B401F5
:101870000E9477134B015C01A301920169857A856F
:101880008B859C850E94771325E33AEF4EE85CE355
:101890000E9499150E94061623EB3BE742EF5BE39B
:1018A0000E9499159B01AC01C501B4010E947713F8
:1018B0004B015C01A7019601C701B6010E94781394
:1018C0006B017C019B01AC0169857A858B859C85C8
:1018D0000E94781325E33AEF4EE85CE30E949915E5
:1018E0000E94061627E137EB41ED59E30E94991556
:1018F0009B01AC01C501B4010E9478134B015C014E
:1019000029853A854B855C85C701B6010E9477130E
:1019100025E33AEF4EE85CE30E9499150E94061613
:1019200027E137EB41ED59E30E9499159B01AC018A
:10193000C501B4010E9477134B015C01A701960118
:10194000C301B2010E94781325E33AEF4EE85CE34D
:101950000E9499150E94061622E539E44DE15AE3EA
:101960000E9499159B01AC01C501B4010E94771337
:101970004B015C01A3019201C701B6010E947713DC
:1019800025E33AEF4EE85CE30E9499150E940616A3
:101990002FE632E143E85AE30E9499159B01AC011E
:1019A000C501B4010E9478136B017C01A30192016F
:1019B000C301B2010E9478139B01AC0169857A854D
:1019C0008B859C850E94781325E33AEF4EE85CE313
:1019D0000E9499150E9406162FE632E143E05AE371
:1019E0000E9499159B01AC01C701B6010E947813B2
:1019F0006B017C0120E030E040E351EC69817A81A9
:101A00008B819C810E94E41388230CF051C026E551
:101A100030EF4BE55AE369817A818B819C810E948A
:101A200099152FE632E143E85AE30E9478134B01FF
:101A30005C0122E435E14DE659E36D817E818F81C1
:101A400098850E9499159B01AC01C501B4010E94C3
:101A500078134B015C0129E734EC4DE057E36D85C9
:101A60007E858F8598890E9499159B01AC01C501DF
:101A7000B4010E9477134B015C0129E332EF4DEA78
:101A800053E369817A818B819C810E9499159B0126
:101A9000AC016D857E858F8598890E9499159B0183
:101AA000AC01C501B4010E9477134B015C0124C055
:101AB00023EB3FEE4AE859E369817A818B819C816F
:101AC0000E94991527E830EC41E959E30E94771309
:101AD0004B015C012BE03DE549E859E36D817E81D6
:101AE0008F8198850E9499159B01AC01C501B401B5
:101AF0000E9478134B015C01A701960169897A89DC
:101B00008B899C890E947813A50194010E94771308
:101B100020E030E040E05FE30E9478136B017C013D
:101B20008D899E8968E170E00E948816072E000C5E
:101B3000880B990B0E948C149B01AC01C701B60164
:101B40000E9478130E94C71466960FB6F894DEBF01
:101B50000FBECDBFDF91CF91FF90EF90DF90CF9080
:101B6000BF90AF909F908F907F906F905F904F90BD
:101B700008954F925F926F927F928F929F92AF9251
:101B8000BF92CF92DF92EF92FF92CF93DF93CDB7C8
:101B9000DEB728970FB6F894DEBF0FBECDBF5A014F
:101BA00026E631EA45E15AE40E9477136B017C0195
:101BB000C50168E170E00E948816072E000C880BB2
:101BC000990B0E948C149B01AC01C701B6010E94C5
:101BD000771320E03DEA4EE057E40E94E9136B01E1
:101BE0007C019B01AC010E9499154B015C012DE029
:101BF0003FE94CE057E4C701B6010E9499152AEB72
:101C000033EC42EB53E40E9478132B013C0126E1B4
:101C100039E743E259E3C501B4010E9499159B01DC
:101C2000AC01C301B2010E9477132B013C0129E5ED
:101C300039ED40E055E3C701B6010E9499159B01BB
:101C4000AC01C501B4010E9499159B01AC01C3010F
:101C5000B2010E9477132B013C0125EC30EA4CE0E5
:101C600057E4C701B6010E94991525EB3BE34CE808
:101C700053E40E94781369837A838B839C8321EDDC
:101C800036EF4EE959E3C501B4010E9499159B0155
:101C9000AC0169817A818B819C810E947813698370
:101CA0007A838B839C832DEE37ED4DE95BE3C7018F
:101CB000B6010E9499159B01AC016DE971E185EFB8
:101CC0009FE30E9477136D837E838F8398872BE831
:101CD00031EE4AE657E3C501B4010E9499159B0114
:101CE000AC016D817E818F8198850E9477134B01B5
:101CF0005C0125E33AEF4EE85CE3C301B2010E94C8
:101D000099150E9406169B01AC01C501B4010E9401
:101D100099154B015C0126EF3FEC43ED58E3C701F9
:101D2000B6010E9499159B01AC016CE578EC83EA41
:101D30009CE30E9477136B017C0125E33AEF4EE0B0
:101D40005DE3C301B2010E9499150E9406169B0132
:101D5000AC01C701B6010E9499159B01AC01C501F8
:101D6000B4010E9478136B017C0120E537E746E55A
:101D70005DE3C301B2010E9499150E94061624E298
:101D80003BE048E959E30E9499159B01AC01C7016A
:101D9000B6010E9478139B01AC0169817A818B8125
:101DA0009C810E94781325E33AEF4EE85CE30E94A1
:101DB00099156B017C012BED3FE049EC50E40E944A
:101DC000E9130E94C7142BED3FE049EC50E40E9458
:101DD00099159B01AC01C701B6010E9477132BED49
:101DE0003FE049E450E40E94E91320E030E040EC99
:101DF00050E40E9499150E94C71428960FB6F894D3
:101E0000DEBF0FBECDBFDF91CF91FF90EF90DF908F
:101E1000CF90BF90AF909F908F907F906F905F908A
:101E20004F9008958F929F92AF92BF92CF92DF9280
:101E3000EF92FF92CF93DF93EB01AC016CE08FE167
:101E40000E94520924EB36E643E15AE40E947713DC
:101E500025EA3EE34CEE51E40E94E9130E94C714C8
:101E60004B015C01AE010E94380A6B017C01AE019E
:101E70000E94B90D20E030E040E151E40E94941549
:101E800088236CF020E030E040E85FE3C501B40156
:101E90000E947713AE010E94380A6B017C01C701D2
:101EA000B601DF91CF91FF90EF90DF90CF90BF9080
:101EB000AF909F908F9008952F923F924F925F9294
:101EC0006F927F928F929F92AF92BF92CF92DF924A
:101ED000EF92FF920F931F93CF93DF93EA0124EBCE
:101EE00036E643E15AE40E94771325EA3EE34CEEDE
:101EF00051E40E94E91320E030E040E05FE30E94FB
:101F000078130E94C7144B015C0120E030E040E8E8
:101F10005FE30E947813AE010E94380AAE010E946E
:101F2000B90D562E472E382E292E0F2EC12CD12C0E
:101F3000F0E8EF2EFFE3FF2EF02D20E030E040E848
:101F40005FE3C701B6010E9478136B017C019B011E
:101F5000AC01C501B4010E947813AE010E94380A99
:101F6000AE010E94B90D162F072F782E692E262F4D
:101F7000372F482F592F652D742D832D922D0E94B8
:101F8000E413882371F0512E402E372C262C20E0AC
:101F900030E040E651E4C701B6010E94E413882313
:101FA00064F220E030E040E85FE3C701B6010E9440
:101FB0007713DF91CF911F910F91FF90EF90DF90FA
:101FC000CF90BF90AF909F908F907F906F905F90D9
:101FD0004F903F902F9008952F923F924F925F9293
:101FE0006F927F928F929F92AF92BF92CF92DF9229
:101FF000EF92FF920F931F93CF93DF93EA011901A2
:102000000E9452094B015C0124EB36E643E15AE49D
:102010000E94771325EA3EE34CEE51E40E94E91357
:102020000E94C7142B013C0120E030E040E85FE350
:102030000E947813A1010E94380A6B017C019B0168
:10204000AC01C501B4010E94E41388233CF4A10152
:10205000C301B2010E94380A6B017C01B101CE01BB
:102060000E94120F162F072F782E692E262F372F3A
:10207000482F592FC701B6010E94E413181694F097
:10208000D0938700C0938600B101CE0101970E94D2
:10209000120FC12FD02F572C462C162F072F782E1A
:1020A000692E0DC0CE010196909387008093860023
:1020B000B1010E94120FC62FD72F582E492EA7010B
:1020C0009601C501B4010E94771320E030E040E89A
:1020D0005FE30E9478130E945B1460937800212FC5
:1020E000302F472D562DC701B6010E94771320E0EF
:1020F00030E048EE51E40E94E9130E94C7146B01DE
:102100007C0120E030E040E351E40E9478130E941B
:102110005B1460937900212F302F472D562D6C2FA3
:102120007D2F852D942D0E94771320E030E846EB1B
:1021300053E40E9494151816DCF4A101612F702F4E
:10214000872D962D0E945C0F9B01AC01C701B60143
:102150000E949415882364F020E030E040E251E4CE
:10216000C701B6010E9478130E945B146093790046
:10217000809179008D3018F08C5080937900809197
:1021800079008B3098F020E030E040E850E4C7015F
:10219000B6010E94E41388234CF48091860090914C
:1021A00087000197909387008093860060E070E03D
:1021B000CB01DF91CF911F910F91FF90EF90DF90B6
:1021C000CF90BF90AF909F908F907F906F905F90D7
:1021D0004F903F902F90089585E083BF81E089BFA5
:1021E0007894089581B3837F81BB81B3806881BB7C
:1021F00081B38F7781BB82B38C6082BB87B38B7FC7
:1022000087BB88B3846088BB8AB381608ABB08952A
:1022100015BE14BE80EE8BBF7894089587B3806B93
:1022200087BB8DB182658DB967E08BE00E94C001EC
:1022300065E08AE00E94C00161E08CE00E94C0017C
:102240006FEF89E00E94C0010E94F21078940E9412
:10225000EC100E9408110E94580067E08FE790E0A0
:102260000E94C3000E9429018FEC97E00197F1F7CB
:1022700000C000008BB381608BBB4091630050E0D5
:102280004053584F5093770040937600209161005F
:1022900030E060916400809165000E94EC0F0E9424
:1022A000DA01EBCF1F920F920FB60F9211242F93EA
:1022B0003F934F935F936F937F938F939F93AF93CE
:1022C000BF93EF93FF9380916F0090917000019600
:1022D0009093700080936F0020916D0030916E009C
:1022E0002F5F3F4F30936E0020936D000A9708F1E7
:1022F00080916C00811119C00E945E008FEC97E004
:102300000197F1F700C0000067E08FE790E00E94BE
:10231000C30080917F000E9406019091750089178B
:1023200021F00E9429010E94DA011092700010929F
:102330006F0080916D0090916E000F9780F08091FA
:102340006C00882341F090916A0081E08927809396
:102350006A000E94DA0110926E0010926D00FF91E7
:10236000EF91BF91AF919F918F917F916F915F910D
:102370004F913F912F910F900FBE0F901F90189586
:102380001F920F920FB60F9211242F933F934F93EA
:102390005F936F937F938F939F93AF93BF93EF93CD
:1023A000FF9380916C00811109C0909168009F5F3C
:1023B00090936800943010F010926800909168003B
:1023C00091110CC0882351F010926800109269009E
:1023D00010926A000E94640110926C008091680063
:1023E000813079F480916C00882359F081E08093EA
:1023F00068001092690010926A000E9464011092B5
:102400006C0080916800833081F480916C00882397
:1024100061F083E0809368001092690010926A0076
:1024200081E080936B0010926C00FF91EF91BF915F
:10243000AF919F918F917F916F915F914F913F915C
:102440002F910F900FBE0F901F9018951F920F9213
:102450000FB60F9211248F939F9380916800811182
:1024600010C091E090936C00909169009F5F9093F1
:102470006900953030F01092690010926A00109255
:102480006C00813081F491E090936C009091690030
:102490009F5F90936900943030F010926900109221
:1024A0006A0010926C00833091F481E080936C009C
:1024B000809169008F5F80936900833040F01092B3
:1024C000690010926A0010926B0010926C009F914C
:1024D0008F910F900FBE0F901F9018951F920F9223
:1024E0000FB60F9211242F933F934F935F938F93C7
:1024F0009F9380916B00882349F080916C0081113B
:1025000005C010926B0082B38F7782BB80916C0004
:10251000882309F465C090916800911161C0909181
:1025200069009130D9F5209165002F5F20936500F7
:1025300030916400343031F0363021F0393011F010
:102540003B3031F42F3150F121E02093650026C05B
:10255000313061F0333051F0353041F0373031F007
:10256000383021F03A3011F03C3031F42032B0F004
:1025700021E02093650012C04091760050917700D1
:102580004430510530F42E3148F021E020936500AD
:1025900005C02D3118F021E020936500923051F4F0
:1025A000209164002F5F209364002D3018F021E00B
:1025B00020936400933049F4209174002F5F20939E
:1025C0007400283110F010927400943049F4909106
:1025D00067009F5F909367009C3310F01092670034
:1025E000882309F45BC090916800913009F056C0CF
:1025F000909169009130D9F5209165002F5F20936B
:10260000650030916400343031F0363021F03930DB
:1026100011F03B3031F42F3150F121E0209365006F
:1026200026C0313061F0333051F0353041F0373071
:1026300031F0383021F03A3011F03C3031F42032B2
:10264000B0F021E02093650012C0409176005091D7
:1026500077004430510530F42E3148F021E02093CA
:10266000650005C02D3118F021E0209365009230FF
:1026700051F4209164002F5F209364002D3018F0F6
:1026800021E020936400933049F4909163009F5FB0
:1026900090936300943610F0109263008823E1F069
:1026A000809168008330C1F480916900813049F4E1
:1026B000909172009F5F90937200983110F0109289
:1026C0007200823049F4809171008F5F80937100B5
:1026D0008C3310F0109271009F918F915F914F9108
:1026E0003F912F910F900FBE0F901F90189550584B
:1026F000BB27AA270E948F130C9442150E94341501
:1027000038F00E943B1520F039F49F3F19F426F46D
:102710000C9431150EF4E095E7FB0C940215E92FAB
:102720000E94531558F3BA17620773078407950779
:1027300020F079F4A6F50C948D150EF4E0950B2E8F
:10274000BA2FA02D0B01B90190010C01CA01A00103
:102750001124FF27591B99F0593F50F4503E68F15E
:102760001A16F040A22F232F342F4427585FF3CF9F
:10277000469537952795A795F0405395C9F77EF470
:102780001F16BA0B620B730B840BBAF09150A1F0B9
:10279000FF0FBB1F661F771F881FC2F70EC0BA0F3F
:1027A000621F731F841F48F4879577956795B795C7
:1027B000F7959E3F08F0B0CF9395880F08F09927C2
:1027C000EE0F9795879508950E94DE1408F481E036
:1027D00008950E94FD130C9442150E943B1558F079
:1027E0000E94341540F029F45F3F29F00C94021543
:1027F00051110C948E150C9431150E94531568F3E9
:102800009923B1F3552391F3951B550BBB27AA27A9
:1028100062177307840738F09F5F5F4F220F331FE3
:10282000441FAA1FA9F335D00E2E3AF0E0E832D0AB
:1028300091505040E695001CCAF72BD0FE2F29D0AE
:10284000660F771F881FBB1F261737074807AB0780
:10285000B0E809F0BB0B802DBF01FF2793585F4FF5
:102860003AF09E3F510578F00C9402150C948E15A9
:102870005F3FE4F3983ED4F3869577956795B795D7
:10288000F7959F5FC9F7880F911D9695879597F9E2
:102890000895E1E0660F771F881FBB1F621773075B
:1028A0008407BA0720F0621B730B840BBA0BEE1F70
:1028B00088F7E09508950E945B1588F09F5798F07F
:1028C000B92F9927B751B0F0E1F0660F771F881F35
:1028D000991F1AF0BA95C9F714C0B13091F00E944F
:1028E0008D15B1E008950C948D15672F782F8827EA
:1028F000B85F39F0B93FCCF3869577956795B39576
:10290000D9F73EF490958095709561957F4F8F4FE4
:102910009F4F0895E89409C097FB3EF490958095E9
:10292000709561957F4F8F4F9F4F9923A9F0F92F95
:1029300096E9BB279395F695879577956795B79513
:10294000F111F8CFFAF4BB0F11F460FF1BC06F5FF9
:102950007F4F8F4F9F4F16C0882311F096E911C00B
:10296000772321F09EE8872F762F05C0662371F02C
:1029700096E8862F70E060E02AF09A95660F771F40
:10298000881FDAF7880F9695879597F908950E9422
:10299000751590F09F3748F4911116F00C948E1530
:1029A00060E070E080E89FEB089526F41B16611D3F
:1029B000711D811D0C9408150C942315990F0008A6
:1029C000550FAA0BE0E8FEEF16161706E807F90701
:1029D000C0F012161306E407F50798F0621B730B9C
:1029E000840B950B39F40A2661F0232B242B252B1D
:1029F00021F408950A2609F4A140A6958FEF811DC0
:102A0000811D089597F99F6780E870E060E0089560
:102A1000882371F4772321F09850872B762F07C0F5
:102A2000662311F499270DC09051862B70E060E069
:102A30002AF09A95660F771F881FDAF7880F969508
:102A4000879597F908959F3F31F0915020F487952D
:102A500077956795B795880F911D9695879597F906
:102A600008959FEF80EC089500240A941616170627
:102A700018060906089500240A941216130614066F
:102A800005060895092E0394000C11F4882352F0D2
:102A9000BB0F40F4BF2B11F460FF04C06F5F7F4F8A
:102AA0008F4F9F4F089557FD9058440F551F59F071
:102AB0005F3F71F04795880F97FB991F61F09F3F2B
:102AC00079F087950895121613061406551FF2CF54
:102AD0004695F1DF08C0161617061806991FF1CFA4
:102AE000869571056105089408950E945B15A0F014
:102AF000BEE7B91788F4BB279F3860F41616B11DDE
:102B0000672F782F8827985FF7CF869577956795F9
:102B1000B11D93959639C8F30895E894BB276627AD
:102B20007727CB0197F908950E94DE1408F48FEF00
:102B300008950E94AC150C9442150E94341538F08B
:102B40000E943B1520F0952311F00C9402150C9473
:102B5000311511240C948E150E94531570F3959F16
:102B6000C1F3950F50E0551F629FF001729FBB2784
:102B7000F00DB11D639FAA27F00DB11DAA1F649F20
:102B80006627B00DA11D661F829F2227B00DA11DD3
:102B9000621F739FB00DA11D621F839FA00D611D59
:102BA000221F749F3327A00D611D231F849F600D7A
:102BB000211D822F762F6A2F11249F5750409AF0A3
:102BC000F1F088234AF0EE0FFF1FBB1F661F771F2F
:102BD000881F91505040A9F79E3F510580F00C94FA
:102BE00002150C948E155F3FE4F3983ED4F386955E
:102BF00077956795B795F795E7959F5FC1F7FE2B9A
:102C0000880F911D9695879597F908959F930E9437
:102C100010160F9007FCEE5F0C9439160C943115CA
:102C20000E945B15D8F3E894E0E0BB279F57F0F0D3
:102C30002AED3FE049EC06C0EE0FBB0F661F771F81
:102C4000881F28F0B23A62077307840728F0B25A47
:102C5000620B730B840BE3959A9572F7803830F40E
:102C60009A95BB0F661F771F881FD2F790480C9468
:102C70002515EF93E0FF07C0A2EA2AED3FE049ECFB
:102C80005FEB0E948F130E9442150F90039401FC8A
:102C90009058E4E5F0E00C944D169F938F937F934A
:102CA0006F93FF93EF939B01AC010E949915EF91F5
:102CB000FF910E9461162F913F914F915F910C946B
:102CC0009915DF93CF931F930F93FF92EF92DF92AB
:102CD0007B018C01689406C0DA2EEF010E94AC15CE
:102CE000FE01E894A5912591359145915591A6F362
:102CF000EF010E948F13FE019701A801DA9469F792
:102D0000DF90EF90FF900F911F91CF91DF91089589
:102D100097FB072E16F4009407D077FD09D00E9488
:102D2000AB1607FC05D03EF4909581959F4F089512
:102D3000709561957F4F0895A29FB001B39FC00128
:102D4000A39F700D811D1124911DB29F700D811DD7
:102D50001124911D0895AA1BBB1B51E107C0AA1F96
:102D6000BB1FA617B70710F0A61BB70B881F991F2C
:102D70005A95A9F780959095BC01CD010895F894D6
:022D8000FFCF83
:082D820008070116010F0727E5
:00000001FF
