:100000000C9439000C94150F0C94770F0C94B10FCD
:100010000C9456000C9456000C9456000C94560008
:100020000C9456000C9456000C9456000C94C60B7D
:100030000C9456000C9456000C9456000C945600E8
:100040000C9456000C9456000C9456000C945600D8
:100050000C94560005A84CCDB2D44EB93836A9023E
:100060000C50B9918688083CA6AAAA2ABE000000B6
:10007000803F11241FBECFE5D8E0DEBFCDBF10E02A
:10008000A0E6B0E0E0E0F9E202C005900D92A437EE
:10009000B107D9F720E0A4E7B0E001C01D92A43970
:1000A000B207E1F70E945B0B0C947E140C940000E5
:1000B00011B880E280B984E886BF089594EA96BFBB
:1000C00006B607FEFDCF91B1987F983011F081B14F
:1000D000089590ED93B994E896BF06B607FEFDCF5C
:1000E00091B1987F983111F081B1089583B984E876
:1000F00086BF06B607FEFDCF81B1887F883211F03A
:1001000081B1089584E986BF80E0089594EA96BF9E
:1001100006B607FEFDCF91B1987F983011F081B1FE
:10012000089590ED93B994E896BF06B607FEFDCF0B
:1001300091B1987F983111F081B1089583B984E825
:1001400086BF06B607FEFDCF81B1887F8832A1F059
:1001500081B10895FB01E80FF11D908193B994E8F6
:1001600096BF06B607FEFDCF91B1987F983211F089
:1001700081B108958F5F01C080E0841758F384E94E
:1001800086BF80E00895DC0184EA86BF06B607FEDC
:10019000FDCF81B1887F8830C9F781ED83B984E8CC
:1001A00086BF06B607FEFDCF91B1987F9034C9F7A0
:1001B00020E00FC084EC86BF06B607FEFDCF91B1EC
:1001C000987F9035C9F7FD01E20FF11D83B180835F
:1001D0002F5FE22FF0E0462F50E041505109E41725
:1001E000F50744F384E886BF06B607FEFDCF91B15C
:1001F000987F9835C9F7862F90E00197A80FB91F0F
:1002000083B18C9384E986BF80E00895382F3F70D6
:10021000982F92959F70990F292F220F220F892FC7
:10022000820F830F08952DEC829F212D1124922F90
:10023000969596959695990F392F330F330F930F07
:10024000891B26952695269530E1239F800D112444
:100250000895CF93DF93CBE8D0E088818F770E9419
:10026000060190E0909372008093710089810E9452
:10027000060190E09093700080936F0080917E0063
:1002800090917F00892B59F080918D008F710E9491
:10029000060190E090936E0080936D000AC08091FB
:1002A0008D008F730E94060190E090936E00809302
:1002B0006D00CBE8D0E08B810E94060190E0909326
:1002C0006C0080936B008C810E94060190E09093FB
:1002D0006A00809369008D810E94060190E09093EE
:1002E0006800809367008E810E94060190E09093E1
:1002F000660080936500DF91CF910895CF93DF93DF
:1003000080917100909172000E941301CBE8D0E0BF
:10031000888380916F00909170000E9413018983FF
:1003200080917E0090917F00892B21F180916D005A
:1003300090916E000E94130140917E0050917F00C9
:100340000024569547950794569547950794542F42
:10035000402D2091630030916400220F331F2295BD
:100360003295307F3227207F3227842B282B209311
:100370008D0008C080916D0090916E000E94130165
:1003800080938D0080916B0090916C000E9413010E
:10039000CBE8D0E08B838091690090916A000E9445
:1003A00013018C8380916700909168000E94130173
:1003B0008D8380916500909166000E9413018E8369
:1003C00047E0BE0180E00E9486008FEC97E0019735
:1003D000F1F700C0000080E00E945E008FEC97E023
:1003E0000197F1F700C00000DF91CF91089581B32C
:1003F000837F81BB80E881BB8CE082BB08954F92F4
:100400005F926F927F928F929F92AF92BF92CF92A4
:10041000DF92EF92FF920F931F93CF93DF93F82E0B
:100420008A01C62FD0E08EE090E08C1B9D0B6CE023
:1004300070E00E945614072E000C880B990B0E9446
:100440005A120E9495124B015C01B80160547D4E16
:1004500080E090E00E945812A50194010E943E1194
:100460002B013C0120E030E040E451E4C501B4013F
:100470000E9467134B015C01BE01DD0F880B990BD5
:100480000E945A12A50194010E943F1120E030E021
:1004900040E450E40E943E114B015C016F2D70E07E
:1004A00080E090E00E945A126B017C0120E030E075
:1004B00049E153E4C501B4010E94671320E030E034
:1004C00040E050E40E943F1120E030E040EA50E478
:1004D0000E94B0110E9495129B01AC01C701B601A8
:1004E0000E943F116B017C0120E030E846EB53E4B1
:1004F000C301B2010E9467139B01AC01C701B601A1
:100500000E943F116B017C0120E030E040E85EE397
:10051000C301B2010E9467130E9495129B01AC01B6
:10052000C701B6010E943F116B017C0120E030E061
:1005300048EC52E4C301B2010E94B0110E9495122E
:100540009B01AC01C701B6010E943E114B015C0149
:1005500020E030E048EC53E4C301B2010E94B01146
:100560000E9495129B01AC01C501B4010E943F118C
:1005700020E03AE54AEF56E40E943E114B015C014F
:1005800024E634E54CE05AE40E94AB11882354F48D
:1005900020E036EA4AEF56E4C701B6010E943E1158
:1005A0004B015C01C501B401DF91CF911F910F9107
:1005B000FF90EF90DF90CF90BF90AF909F908F9083
:1005C0007F906F905F904F9008954F925F926F92DF
:1005D0007F928F929F92AF92BF92CF92DF92EF92D3
:1005E000FF92CF93DF93CDB7DEB766970FB6F8943F
:1005F000DEBF0FBECDBF6B017C015E8B4D8B23E355
:100600003BE94AE954E40E94B01169837A838B8301
:100610009C839B01AC010E9467136D837E838F8353
:1006200098879B01AC0169817A818B819C810E94B2
:1006300067136D877E878F87988B25EA3EE34CEEA4
:1006400051E4C701B6010E94671323EB36E643E18C
:100650005AE40E943F114B015C0125E63BE047EF65
:1006600058E36D817E818F8198850E9467139B017D
:10067000AC01C501B4010E943F114B015C0123E1B3
:100680003EE646E254E36D857E858F8598890E941B
:1006900067139B01AC01C501B4010E943E114B01DF
:1006A0005C0128EB3EED44E053E469817A818B8163
:1006B0009C810E9467132CE53FE846E253E40E94C8
:1006C0003F112B013C012AE53AE446E15CE36D81F0
:1006D0007E818F8198850E9467139B01AC01C301C5
:1006E000B2010E943E1125E33AEF4EE85CE30E941E
:1006F00067130E94D4132AED33E04DEA59E30E94B8
:1007000067139B01AC01C501B4010E943F11698BC5
:100710007A8B8B8B9C8B25EC37ED48EE51E4C7012F
:10072000B6010E94671323EB3CE943EB53E40E94BC
:100730003F114B015C012AE93BEA4BE058E36D8134
:100740007E818F8198850E9467139B01AC01C50152
:10075000B4010E943E114B015C0125E23EED48E6EA
:1007600056E36D857E858F8598890E9467139B016E
:10077000AC01C501B4010E943E1169877A878B875D
:100780009C8721E938EE40EC53E4C701B6010E9492
:1007900067132DE333E049E953E40E943F114B0115
:1007A0005C0126E63FEC4FE25CE36D817E818F8148
:1007B00098850E9467139B01AC01C501B4010E949A
:1007C0003F114B015C012CEC3DE54FE457E36D8597
:1007D0007E858F8598890E9467139B01AC01C501B6
:1007E000B4010E943F112B013C0123ED35E543ECA0
:1007F00053E4C701B6010E94671327E03FE54AEAC8
:1008000051E40E943F116B017C0124EC32EA48ED77
:100810005AE36D817E818F8198850E9467139B01C9
:10082000AC01C701B6010E943E116B017C0123EEB1
:1008300033E640E256E36D857E858F8598890E9478
:1008400067139B01AC01C701B6010E943E116B0109
:100850007C0121E93BE04EEC59E369817A818B818F
:100860009C810E9467139B01AC0165EC7FE881E3EA
:100870009EE30E943E114B015C0125E33AEF4EE8F6
:100880005CE369857A858B859C850E9467130E944D
:10089000D4139B01AC01C501B4010E9467134B0145
:1008A0005C0125E33AEF4EE05DE369857A858B854F
:1008B0009C850E9467130E94D41327E230EA49E026
:1008C0005BE30E9467139B01AC01C501B4010E9468
:1008D0003F114B015C0125E33AEF4EE85CE3C301B5
:1008E000B2010E9467130E94D41327E138E440ED5F
:1008F0005EE30E9467139B01AC01C501B4010E9435
:100900003E114B015C0125E33AEF4EE05DE3C3018C
:10091000B2010E9467130E94D41326E234EE43E82A
:100920005CE30E9467139B01AC01C501B4010E9406
:100930003F114B015C0120E537E746E55DE3C3016C
:10094000B2010E9467130E94D41327E137EB41EDF7
:1009500059E30E9467139B01AC01C501B4010E94D9
:100960003E114B015C0125E33AEF4EE05DE3C70128
:10097000B6010E9467130E94D41323EC34E64AE2C6
:100980005CE30E9467139B01AC01C501B4010E94A6
:100990003F114B015C01A301920169857A858B852A
:1009A0009C850E943F1125E33AEF4EE85CE30E94EC
:1009B00067130E94D41327EE3DE147EA5BE30E94F0
:1009C00067139B01AC01C501B4010E943E114B01AC
:1009D0005C01A301920169857A858B859C850E94C3
:1009E0003E1125E33AEF4EE85CE30E9467130E9454
:1009F000D41323EB3BE742EF5BE30E9467139B01B9
:100A0000AC01C501B4010E943E114B015C01A7017C
:100A10009601C701B6010E943F116B017C019B0149
:100A2000AC0169857A858B859C850E943F1125E301
:100A30003AEF4EE85CE30E9467130E94D41327E16B
:100A400037EB41ED59E30E9467139B01AC01C501EF
:100A5000B4010E943F114B015C0129853A854B8509
:100A60005C85C701B6010E943E1125E33AEF4EE8CE
:100A70005CE30E9467130E94D41327E137EB41ED3A
:100A800059E30E9467139B01AC01C501B4010E94A8
:100A90003E114B015C01A7019601C301B2010E9406
:100AA0003F1125E33AEF4EE85CE30E9467130E9492
:100AB000D41322E539E44DE15AE30E9467139B0108
:100AC000AC01C501B4010E943E114B015C01A301C0
:100AD0009201C701B6010E943E1125E33AEF4EE8AC
:100AE0005CE30E9467130E94D4132FE632E143E8CF
:100AF0005AE30E9467139B01AC01C501B4010E9437
:100B00003F116B017C01A3019201C301B2010E945C
:100B10003F119B01AC0169857A858B859C850E947C
:100B20003F1125E33AEF4EE85CE30E9467130E9411
:100B3000D4132FE632E143E05AE30E9467139B018E
:100B4000AC01C701B6010E943F116B017C0120E09E
:100B500030E040E351EC69817A818B819C810E9475
:100B6000AB1188230CF051C026E530EF4BE55AE37A
:100B700069817A818B819C810E9467132FE632E123
:100B800043E85AE30E943F114B015C0122E435E146
:100B90004DE659E36D817E818F8198850E946713B0
:100BA0009B01AC01C501B4010E943F114B015C01E6
:100BB00029E734EC4DE057E36D857E858F85988974
:100BC0000E9467139B01AC01C501B4010E943E1154
:100BD0004B015C0129E332EF4DEA53E369817A81ED
:100BE0008B819C810E9467139B01AC016D857E8582
:100BF0008F8598890E9467139B01AC01C501B401E0
:100C00000E943E114B015C0124C023EB3FEE4AE8F9
:100C100059E369817A818B819C810E94671327E85F
:100C200030EC41E959E30E943E114B015C012BE09D
:100C30003DE549E859E36D817E818F8198850E9469
:100C400067139B01AC01C501B4010E943F114B0128
:100C50005C01A701960169897A898B899C890E9428
:100C60003F11A50194010E943E1120E030E040E0D8
:100C70005FE30E943F116B017C018D899E8968E1D1
:100C800070E00E945614072E000C880B990B0E94EE
:100C90005A129B01AC01C701B6010E943F110E948C
:100CA000951266960FB6F894DEBF0FBECDBFDF91EA
:100CB000CF91FF90EF90DF90CF90BF90AF909F903B
:100CC0008F907F906F905F904F9008954F925F92BA
:100CD0006F927F928F929F92AF92BF92CF92DF924C
:100CE000EF92FF92CF93DF93CDB7DEB728970FB681
:100CF000F894DEBF0FBECDBF5A0126E631EA45E1CA
:100D00005AE40E943E116B017C01C50168E170E06C
:100D10000E945614072E000C880B990B0E945A1241
:100D20009B01AC01C701B6010E943E1120E03DEAE3
:100D30004EE057E40E94B0116B017C019B01AC01B5
:100D40000E9467134B015C012DE03FE94CE057E442
:100D5000C701B6010E9467132AEB33EC42EB53E460
:100D60000E943F112B013C0126E139E743E259E3A0
:100D7000C501B4010E9467139B01AC01C301B2011C
:100D80000E943E112B013C0129E539ED40E055E37D
:100D9000C701B6010E9467139B01AC01C501B401F4
:100DA0000E9467139B01AC01C301B2010E943E1176
:100DB0002B013C0125EC30EA4CE057E4C701B601B9
:100DC0000E94671325EB3BE34CE853E40E943F117C
:100DD00069837A838B839C8321ED36EF4EE959E357
:100DE000C501B4010E9467139B01AC0169817A813E
:100DF0008B819C810E943F1169837A838B839C83C2
:100E00002DEE37ED4DE95BE3C701B6010E94671394
:100E10009B01AC016DE971E185EF9FE30E943E11FA
:100E20006D837E838F8398872BE831EE4AE657E304
:100E3000C501B4010E9467139B01AC016D817E81E5
:100E40008F8198850E943E114B015C0125E33AEFAA
:100E50004EE85CE3C301B2010E9467130E94D41301
:100E60009B01AC01C501B4010E9467134B015C01F9
:100E700026EF3FEC43ED58E3C701B6010E9467132C
:100E80009B01AC016CE578EC83EA9CE30E943E1187
:100E90006B017C0125E33AEF4EE05DE3C301B20153
:100EA0000E9467130E94D4139B01AC01C701B601D5
:100EB0000E9467139B01AC01C501B4010E943F1160
:100EC0006B017C0120E537E746E55DE3C301B20134
:100ED0000E9467130E94D41324E23BE048E959E3DF
:100EE0000E9467139B01AC01C701B6010E943F112C
:100EF0009B01AC0169817A818B819C810E943F11A9
:100F000025E33AEF4EE85CE30E9467136B017C0136
:100F10002BED3FE049EC50E40E94B0110E94951285
:100F20002BED3FE049EC50E40E9467139B01AC01BC
:100F3000C701B6010E943E112BED3FE049E450E4A9
:100F40000E94B01120E030E040EC50E40E946713B2
:100F50000E94951228960FB6F894DEBF0FBECDBF43
:100F6000DF91CF91FF90EF90DF90CF90BF90AF9047
:100F70009F908F907F906F905F904F9008958F9289
:100F80009F92AF92BF92CF92DF92EF92FF92CF9358
:100F9000DF93EB01AC016CE08FE10E94FF0124EBD9
:100FA00036E643E15AE40E943E1125EA3EE34CEE68
:100FB00051E40E94B0110E9495124B015C01AE01F8
:100FC0000E94E5026B017C01AE010E94660620E0F2
:100FD00030E040E151E40E94621388236CF020E08D
:100FE00030E040E85FE3C501B4010E943E11AE016C
:100FF0000E94E5026B017C01C701B601DF91CF9130
:10100000FF90EF90DF90CF90BF90AF909F908F9028
:1010100008952F923F924F925F926F927F928F929C
:101020009F92AF92BF92CF92DF92EF92FF920F9377
:101030001F93CF93DF93EA0124EB36E643E15AE4B2
:101040000E943E1125EA3EE34CEE51E40E94B011AD
:1010500020E030E040E05FE30E943F110E949512E3
:101060004B015C0120E030E040E85FE30E943F116B
:10107000AE010E94E502AE010E946606562E472E82
:10108000382E292E0F2EC12CD12CF0E8EF2EFFE3A5
:10109000FF2EF02D20E030E040E85FE3C701B6010D
:1010A0000E943F116B017C019B01AC01C501B401A1
:1010B0000E943F11AE010E94E502AE010E94660649
:1010C000162F072F782E692E262F372F482F592FAE
:1010D000652D742D832D922D0E94AB11882371F004
:1010E000512E402E372C262C20E030E040E651E4F3
:1010F000C701B6010E94AB11882364F220E030E002
:1011000040E85FE3C701B6010E943E11DF91CF9135
:101110001F910F91FF90EF90DF90CF90BF90AF9015
:101120009F908F907F906F905F904F903F902F9007
:1011300008952F923F924F925F926F927F928F927B
:101140009F92AF92BF92CF92DF92EF92FF920F9356
:101150001F93CF93DF93EA0119010E94FF014B0116
:101160005C0124EB36E643E15AE40E943E1125EA95
:101170003EE34CEE51E40E94B0110E9495122B0107
:101180003C0120E030E040E85FE30E943F11A10114
:101190000E94E5026B017C019B01AC01C501B40119
:1011A0000E94AB1188233CF4A101C301B2010E944B
:1011B000E5026B017C01B101CE010E94BF07162F31
:1011C000072F782E692E262F372F482F592FC7012A
:1011D000B6010E94AB11181694F0D0939300C093FF
:1011E0009200B101CE0101970E94BF07C12FD02FFD
:1011F000572C462C162F072F782E692E0DC0CE01A6
:1012000001969093930080939200B1010E94BF07D2
:10121000C62FD72F582E492EA7019601C501B4011C
:101220000E943E1120E030E040E85FE30E943F1161
:101230000E9422127093830060938200212F302F2E
:10124000472D562DC701B6010E943E1120E030E027
:1012500048EE51E40E94B0110E9495126B017C018E
:1012600020E030E040E351E40E943F110E9422124E
:101270007093850060938400212F302F472D562DC9
:101280006C2F7D2F852D942D0E943E1120E030E89B
:1012900046EB53E40E9462131816ECF4A101612F8F
:1012A000702F872D962D0E9409089B01AC01C70164
:1012B000B6010E946213882374F020E030E040E21F
:1012C00051E4C701B6010E943F110E94221270939F
:1012D00085006093840080918400909185000D9733
:1012E0004CF080918400909185000C97909385003C
:1012F0008093840080918400909185000B979CF0EE
:1013000020E030E040E850E4C701B6010E94AB1194
:1013100088234CF4809192009091930001979093D0
:10132000930080939200DF91CF911F910F91FF90D6
:10133000EF90DF90CF90BF90AF909F908F907F9075
:101340006F905F904F903F902F9008958FB9779B4B
:10135000FECF0895CF93C62F98B39F7E98BB0E946F
:10136000A6098C2F0E94A60988B3806188BBCF9103
:101370000895CF93C09160006FE08C2F0E94AA095E
:10138000C150D1F7CF9108950F931F93CF93DF935F
:1013900080917400811156C00E94B9096FE070E01D
:1013A00088E090E00E94AA096FE070E087E090E09A
:1013B0000E94AA098091710090917200CAE0D0E069
:1013C000BE010E945614BC0186E090E00E94AA096A
:1013D0008091710090917200BE010E94561485E0C8
:1013E00090E00E94AA0980916F0090917000BE0168
:1013F0000E945614BC0184E090E00E94AA098091EA
:101400006F0090917000BE010E94561483E090E03E
:101410000E94AA0980916D0090916E00BE010E9409
:101420005614BC0182E090E00E94AA0980916D00F0
:1014300090916E00BE010E94561481E090E00E94DF
:10144000AA0928C180917400813009F076C00E94F9
:10145000B909809180009091810008EE13E0B801F5
:101460000E945614CAE0D0E0BE010E945614BC018E
:1014700088E090E00E94AA0980918000909181000C
:10148000B8010E945614BE010E945614CB01BE0141
:101490000E945614BC0187E090E00E94AA09809146
:1014A000800090918100B8010E94561464E670E0BB
:1014B0000E945614CB01BE010E945614BC0186E066
:1014C00090E00E94AA098091800090918100B8016B
:1014D0000E94561485E090E00E94AA09809167005E
:1014E00090916800BE010E945614BC0184E090E017
:1014F0000E94AA098091670090916800BE010E9435
:10150000561483E090E00E94AA09809169009091AE
:101510006A00BE010E945614BC0182E090E00E9465
:10152000AA098091690090916A00BE010E94561438
:1015300081E090E00E94AA09ADC0809174008230E1
:1015400009F076C00E94B9098091920090919300B1
:1015500008EE13E0B8010E945614CAE0D0E0BE01C4
:101560000E945614BC0188E090E00E94AA09809174
:10157000920090919300B8010E945614BE010E94FF
:101580005614CB01BE010E945614BC0187E090E0C6
:101590000E94AA098091920090919300B8010E9444
:1015A000561464E670E00E945614CB01BE010E94FE
:1015B0005614BC0186E090E00E94AA098091920036
:1015C00090919300B8010E94561485E090E00E942B
:1015D000AA098091840090918500BE010E94561452
:1015E000BC0184E090E00E94AA098091840090915F
:1015F0008500BE010E94561483E090E00E94AA0973
:101600008091820090918300BE010E945614BC011B
:1016100082E090E00E94AA0980918200909183006C
:10162000BE010E94561481E090E00E94AA0932C0D7
:101630000E94B90980917A0090917B00CAE0D0E0C5
:10164000BE010E945614BC0184E090E00E94AA09E9
:1016500080917A0090917B00BE010E94561483E035
:1016600090E00E94AA0980917C0090917D00BE01CB
:101670000E945614BC0182E090E00E94AA09809169
:101680007C0090917D00BE010E94561481E090E0A4
:101690000E94AA09DF91CF911F910F91089585E0D3
:1016A00083BF81E089BF7894089515BE14BE80EE93
:1016B0008BBF7894089587B3806B87BB8DB18265AB
:1016C0008DB967E08BE00E94AA0965E08AE00E947C
:1016D000AA0961E08CE00E94AA096FEF89E00E94EC
:1016E000AA090E947E010E94F7010E944F0B0E94EE
:1016F000550B0E94580067E08BE890E00E94C30001
:101700000E9429018FEC97E00197F1F700C00000DB
:1017100080916500909166008053984F909381006E
:1017200080938000209161003091620040918000A0
:10173000509181006091670070916800809169000C
:1017400090916A000E9499080E94C40920916D003E
:1017500030916E0080917C0090917D0028173907B0
:10176000B9F620916F003091700080917A009091CD
:101770007B002817390761F680917600882341F2B3
:101780000E94C40982B3806882BBC2CF1F920F92AD
:101790000FB60F9211240F931F932F933F934F93E4
:1017A0005F936F937F938F939F93AF93BF93CF93E9
:1017B000DF93EF93FF9380917800909179000196E9
:1017C00090937900809378008091780090917900CF
:1017D0000A9728F18091770081111DC00E945E0058
:1017E0008FEC97E00197F1F700C0000067E08BE80D
:1017F00090E00E94C30080918B000E94060190E05F
:1018000020917100309172008217930721F00E949D
:1018100029010E94C40910927900109278008091E9
:10182000780090917900069708F452C08091780072
:10183000909179000A9708F04BC080917500813033
:1018400009F046C080917400811142C06FEF89E0B9
:101850000E94AA090E94B9096FE088E00E94AA09C3
:101860006FE087E00E94AA09809171009091720058
:10187000CAE0D0E0BE010E945614682F86E00E94A4
:10188000AA098091710090917200BE010E945614C5
:1018900085E00E94AA0980916F0090917000BE01BE
:1018A0000E945614682F84E00E94AA0980916F005C
:1018B00090917000BE010E94561483E00E94AA0914
:1018C0006FE082E00E94AA096FE081E00E94AA090D
:1018D0008091780090917900069708F452C0809129
:1018E0007800909179000A9708F04BC080917500BC
:1018F000823009F046C080917400811142C06FEFC0
:1019000089E00E94AA090E94B9096FE088E00E945C
:10191000AA096FE087E00E94AA0980917100909166
:101920007200CAE0D0E0BE010E945614682F86E023
:101930000E94AA098091710090917200BE010E94DC
:10194000561485E00E94AA096FE084E00E94AA096B
:101950006FE083E00E94AA0980916D0090916E0073
:10196000BE010E945614682F82E00E94AA0980914D
:101970006D0090916E00BE010E94561481E00E949D
:10198000AA098091780090917900069708F452C0D6
:1019900080917800909179000A9708F04BC080916F
:1019A0007500833009F046C080917400811142C0F7
:1019B0006FEF89E00E94AA090E94B9096FE088E0F0
:1019C0000E94AA096FE087E00E94AA096FE086E002
:1019D0000E94AA096FE085E00E94AA0980916F0029
:1019E00090917000CAE0D0E0BE010E945614682FAA
:1019F00084E00E94AA0980916F0090917000BE015E
:101A00000E94561483E00E94AA0980916D00909173
:101A10006E00BE010E945614682F82E00E94AA093F
:101A200080916D0090916E00BE010E94561481E07D
:101A30000E94AA098091780090917900069708F495
:101A400075C080917800909179000A9708F06EC077
:101A500080917500813009F069C0809174008130F7
:101A600009F064C06FEF89E00E94AA090E94B909D9
:101A7000809180009091810008EE13E0B8010E94EF
:101A80005614CAE0D0E0BE010E945614682F88E0C8
:101A90000E94AA098091800090918100B8010E9463
:101AA0005614BE010E945614CB01BE010E9456146A
:101AB000682F87E00E94AA098091800090918100A0
:101AC000B8010E94561464E670E00E945614CB01DF
:101AD000BE010E945614682F86E00E94AA098091D8
:101AE000800090918100B8010E94561485E00E9408
:101AF000AA098091670090916800BE010E94561467
:101B0000682F84E00E94AA09809167009091680084
:101B1000BE010E94561483E00E94AA096FE082E091
:101B20000E94AA096FE081E00E94AA0980917800D2
:101B300090917900069708F475C080917800909193
:101B400079000A9708F06EC080917500823009F024
:101B500069C080917400813009F064C06FEF89E042
:101B60000E94AA090E94B909809180009091810089
:101B700008EE13E0B8010E945614CAE0D0E0BE019E
:101B80000E945614682F88E00E94AA098091800064
:101B900090918100B8010E945614BE010E94561413
:101BA000CB01BE010E945614682F87E00E94AA094B
:101BB0008091800090918100B8010E94561464E6E3
:101BC00070E00E945614CB01BE010E945614682F8B
:101BD00086E00E94AA098091800090918100B8015E
:101BE0000E94561485E00E94AA096FE084E00E94DA
:101BF000AA096FE083E00E94AA0980916900909190
:101C00006A00BE010E945614682F82E00E94AA0951
:101C10008091690090916A00BE010E94561481E093
:101C20000E94AA098091780090917900069708F4A3
:101C300053C080917800909179000A9708F04CC0C9
:101C400080917500833009F047C080917400813025
:101C500009F042C06FEF89E00E94AA090E94B90909
:101C60006FE088E00E94AA096FE087E00E94AA095D
:101C70006FE086E00E94AA096FE085E00E94AA0951
:101C80008091670090916800CAE0D0E0BE010E9498
:101C90005614682F84E00E94AA09809167009091F1
:101CA0006800BE010E94561483E00E94AA09809138
:101CB000690090916A00BE010E945614682F82E06C
:101CC0000E94AA098091690090916A00BE010E9459
:101CD000561481E00E94AA098091780090917900C1
:101CE000069708F443C080917800909179000A9794
:101CF000E8F5809175008130C9F5809174008330DA
:101D0000A9F56FEF89E00E94AA090E94B9096FE066
:101D100088E00E94AA096FE087E00E94AA096FE0AC
:101D200086E00E94AA096FE085E00E94AA098091DE
:101D30007A0090917B00CAE0D0E0BE010E94561468
:101D4000682F84E00E94AA0980917A0090917B001C
:101D5000BE010E94561483E00E94AA096FE082E04F
:101D60000E94AA096FE081E00E94AA098091780090
:101D700090917900069708F443C080917800909183
:101D800079000A97E8F5809175008230C9F5809155
:101D900074008330A9F56FEF89E00E94AA090E94C0
:101DA000B9096FE088E00E94AA096FE087E00E940D
:101DB000AA096FE086E00E94AA096FE085E00E9410
:101DC000AA096FE084E00E94AA096FE083E00E9404
:101DD000AA0980917C0090917D00CAE0D0E0BE010C
:101DE0000E945614682F82E00E94AA0980917C000C
:101DF00090917D00BE010E94561481E00E94AA09C4
:101E0000FF91EF91DF91CF91BF91AF919F918F9112
:101E10007F916F915F914F913F912F911F910F9102
:101E20000F900FBE0F901F9018951F920F920FB634
:101E30000F9211242F933F934F935F936F937F9350
:101E40008F939F93AF93BF93EF93FF93809177000E
:101E500081110BC0909174009F5F909374009091DA
:101E60007400943010F010927400909174009111ED
:101E70000AC0882341F010927400109275000E94ED
:101E80007E011092770080917400813069F4809116
:101E90007700882349F081E08093740010927500E8
:101EA0000E947E011092770080917400833071F45B
:101EB00080917700882351F083E080937400109222
:101EC000750081E08093760010927700FF91EF918A
:101ED000BF91AF919F918F917F916F915F914F9142
:101EE0003F912F910F900FBE0F901F9018951F924A
:101EF0000F920FB60F9211248F9381E08093770099
:101F0000809175008F5F80937500809174008111BE
:101F100008C080917500843020F0109275001092F6
:101F2000770080917400813041F480917500843095
:101F300020F0109275001092770080917400833029
:101F400051F480917500833030F01092750010923A
:101F50007600109277008F910F900FBE0F901F9018
:101F600018951F920F920FB60F9211242F933F9343
:101F70008F939F9380917600882339F0809177002A
:101F8000811103C01092760012BA809177008823E5
:101F900009F451C09091740091114DC09091750059
:101FA0009130B1F420916D0030916E002F5F3F4F62
:101FB00030936E0020936D0020916D0030916E0083
:101FC00028313105C4F110926E0010926D0033C0BB
:101FD000909175009230B1F420916F0030917000B3
:101FE0002F5F3F4F3093700020936F0020916F0060
:101FF000309170002C333105F4F010927000109283
:102000006F0019C0909175009330A9F42091710070
:10201000309172002F5F3F4F309372002093710018
:1020200020917100309172002C33310524F0109210
:10203000720010927100882309F4E3C0909174003B
:10204000913009F0DEC090917500913009F0A4C084
:102050002091690030916A002F5F3F4F30936A00F2
:102060002093690020916700309168002430310589
:10207000A9F020916700309168002630310571F099
:1020800020916700309168002930310539F02091A6
:102090006700309168002B30310579F42091690098
:1020A00030916A002F3131050CF4ABC021E030E0F3
:1020B00030936A0020936900A4C02091670030919A
:1020C00068002130310551F120916700309168009E
:1020D0002330310519F120916700309168002530D7
:1020E0003105E1F02091670030916800273031051B
:1020F000A9F020916700309168002830310571F017
:1021000020916700309168002A30310539F0209124
:102110006700309168002C30310579F42091690016
:1021200030916A00203231050CF46BC021E030E0C0
:1021300030936A002093690064C020918000309140
:1021400081002D5F3F4F27303105C0F42091800082
:102150003091810021573E4F2F31334078F4209148
:10216000690030916A002E3131050CF44AC021E03B
:1021700030E030936A002093690043C020916900E9
:1021800030916A002D313105E4F121E030E03093E7
:102190006A002093690035C0909175009230C1F4B7
:1021A00020916700309168002F5F3F4F30936800A7
:1021B0002093670020916700309168002D30310531
:1021C00004F121E030E0309368002093670019C0EB
:1021D000909175009330A9F42091650030916600CC
:1021E0002F5F3F4F3093660020936500209165007C
:1021F000309166002436310524F01092660010926A
:102200006500882391F180917400833071F580918D
:102210007500813099F480917C0090917D00019649
:1022200090937D0080937C0080917C0090917D0054
:10223000489724F010927D0010927C0080917500E8
:10224000823099F480917A0090917B00019690936E
:102250007B0080937A0080917A0090917B00CC97EC
:1022600024F010927B0010927A009F918F913F9101
:102270002F910F900FBE0F901F9018955058BB27AD
:10228000AA270E9456110C9410130E94021338F0D2
:102290000E94091320F039F49F3F19F426F40C949E
:1022A000FF120EF4E095E7FB0C94D012E92F0E9488
:1022B000211358F3BA17620773078407950720F0B4
:1022C00079F4A6F50C945B130EF4E0950B2EBA2F5F
:1022D000A02D0B01B90190010C01CA01A00111242C
:1022E000FF27591B99F0593F50F4503E68F11A16D8
:1022F000F040A22F232F342F4427585FF3CF469569
:1023000037952795A795F0405395C9F77EF41F168A
:10231000BA0B620B730B840BBAF09150A1F0FF0F54
:10232000BB1F661F771F881FC2F70EC0BA0F621F40
:10233000731F841F48F4879577956795B795F79530
:102340009E3F08F0B0CF9395880F08F09927EE0FC5
:102350009795879508950E94AC1208F481E008953E
:102360000E94C4110C9410130E94091358F00E948B
:10237000021340F029F45F3F29F00C94D012511160
:102380000C945C130C94FF120E94211368F39923A0
:10239000B1F3552391F3951B550BBB27AA27621761
:1023A0007307840738F09F5F5F4F220F331F441F6E
:1023B000AA1FA9F335D00E2E3AF0E0E832D09150A2
:1023C0005040E695001CCAF72BD0FE2F29D0660F8F
:1023D000771F881FBB1F261737074807AB07B0E8D2
:1023E00009F0BB0B802DBF01FF2793585F4F3AF0D8
:1023F0009E3F510578F00C94D0120C945C135F3F13
:10240000E4F3983ED4F3869577956795B795F7955D
:102410009F5FC9F7880F911D9695879597F9089545
:10242000E1E0660F771F881FBB1F621773078407E1
:10243000BA0720F0621B730B840BBA0BEE1F88F7F0
:10244000E09508950E9429126894B1110C945C13D0
:1024500008950E94291388F09F5798F0B92F992763
:10246000B751B0F0E1F0660F771F881F991F1AF07F
:10247000BA95C9F714C0B13091F00E945B13B1E076
:1024800008950C945B13672F782F8827B85F39F075
:10249000B93FCCF3869577956795B395D9F73EF418
:1024A00090958095709561957F4F8F4F9F4F0895C0
:1024B000E89409C097FB3EF49095809570956195DE
:1024C0007F4F8F4F9F4F9923A9F0F92F96E9BB2794
:1024D0009395F695879577956795B795F111F8CF10
:1024E000FAF4BB0F11F460FF1BC06F5F7F4F8F4F7B
:1024F0009F4F16C0882311F096E911C0772321F071
:102500009EE8872F762F05C0662371F096E8862F08
:1025100070E060E02AF09A95660F771F881FDAF75F
:10252000880F9695879597F908950E94431390F028
:102530009F3748F4911116F00C945C1360E070E042
:1025400080E89FEB089526F41B16611D711D811D07
:102550000C94D6120C94F112990F0008550FAA0B87
:10256000E0E8FEEF16161706E807F907C0F01216A6
:102570001306E407F50798F0621B730B840B950BA9
:1025800039F40A2661F0232B242B252B21F40895FE
:102590000A2609F4A140A6958FEF811D811D08959B
:1025A00097F99F6780E870E060E00895882371F4F0
:1025B000772321F09850872B762F07C0662311F4DC
:1025C00099270DC09051862B70E060E02AF09A9513
:1025D000660F771F881FDAF7880F9695879597F90A
:1025E00008959F3F31F0915020F487957795679536
:1025F000B795880F911D9695879597F908959FEF48
:1026000080EC089500240A94161617061806090689
:10261000089500240A941216130614060506089558
:10262000092E0394000C11F4882352F0BB0F40F4E0
:10263000BF2B11F460FF04C06F5F7F4F8F4F9F4F20
:10264000089557FD9058440F551F59F05F3F71F0A2
:102650004795880F97FB991F61F09F3F79F0879509
:102660000895121613061406551FF2CF4695F1DF92
:1026700008C0161617061806991FF1CF8695710522
:102680006105089408950E942913A0F0BEE7B917C8
:1026900088F4BB279F3860F41616B11D672F782F7A
:1026A0008827985FF7CF869577956795B11D9395A5
:1026B0009639C8F30895E894BB2766277727CB019E
:1026C00097F908950E94AC1208F48FEF08950E94C4
:1026D0007A130C9410130E94021338F00E9409130D
:1026E00020F0952311F00C94D0120C94FF121124B9
:1026F0000C945C130E94211370F3959FC1F3950F06
:1027000050E0551F629FF001729FBB27F00DB11D75
:10271000639FAA27F00DB11DAA1F649F6627B00D05
:10272000A11D661F829F2227B00DA11D621F739FEE
:10273000B00DA11D621F839FA00D611D221F749FFC
:102740003327A00D611D231F849F600D211D822F43
:10275000762F6A2F11249F5750409AF0F1F088236A
:102760004AF0EE0FFF1FBB1F661F771F881F915097
:102770005040A9F79E3F510580F00C94D0120C9464
:102780005C135F3FE4F3983ED4F3869577956795A5
:10279000B795F795E7959F5FC1F7FE2B880F911DC1
:1027A0009695879597F908959F930E94DE130F9051
:1027B00007FCEE5F0C9407140C94FF120E9429137F
:1027C000D8F3E894E0E0BB279F57F0F02AED3FE014
:1027D00049EC06C0EE0FBB0F661F771F881F28F05D
:1027E000B23A62077307840728F0B25A620B730B80
:1027F000840BE3959A9572F7803830F49A95BB0F65
:10280000661F771F881FD2F790480C94F312EF933E
:10281000E0FF07C0A2EA2AED3FE049EC5FEB0E942F
:1028200056110E9410130F90039401FC9058E4E598
:10283000F0E00C941B149F938F937F936F93FF93FF
:10284000EF939B01AC010E946713EF91FF910E94EF
:102850002F142F913F914F915F910C946713DF9349
:10286000CF931F930F93FF92EF92DF927B018C0126
:10287000689406C0DA2EEF010E947A13FE01E894F4
:10288000A5912591359145915591A6F3EF010E94AF
:102890005611FE019701A801DA9469F7DF90EF90D5
:1028A000FF900F911F91CF91DF91089597FB072E15
:1028B00016F4009407D077FD09D00E946A1407FC33
:1028C00005D03EF4909581959F4F08957095619540
:1028D0007F4F0895AA1BBB1B51E107C0AA1FBB1F56
:1028E000A617B70710F0A61BB70B881F991F5A959C
:1028F000A9F780959095BC01CD010895F894FFCF7C
:10290000080700010015000C000600020017003B3C
:042910000032000091
:00000001FF
