:100000000C9439000C94660F0C94CE0F0C942510B0
:100010000C9456000C9456000C9456000C94560008
:100020000C9456000C9456000C9456000C94F10E4F
:100030000C9456000C9456000C9456000C945600E8
:100040000C9456000C9456000C9456000C945600D8
:100050000C94560005A84CCDB2D44EB93836A9023E
:100060000C50B9918688083CA6AAAA2ABE000000B6
:10007000803F11241FBECFE5D8E0DEBFCDBF10E02A
:10008000A0E6B0E0E0E4FBE202C005900D92A437E8
:10009000B107D9F720E0A4E7B0E001C01D92A7396D
:1000A000B207E1F70E94840E0C949E150C94000098
:1000B00011B880E280B984E886BF089594EA96BFBB
:1000C00006B607FEFDCF91B1987F983011F081B14F
:1000D000089590ED93B994E896BF06B607FEFDCF5C
:1000E00091B1987F983111F081B1089583B984E876
:1000F00086BF06B607FEFDCF81B1887F883211F03A
:1001000081B1089584E986BF80E0089594EA96BF9E
:1001100006B607FEFDCF91B1987F983011F081B1FE
:10012000089590ED93B994E896BF06B607FEFDCF0B
:1001300091B1987F983111F081B1089583B984E825
:1001400086BF06B607FEFDCF81B1887F8832A1F059
:1001500081B10895FB01E80FF11D908193B994E8F6
:1001600096BF06B607FEFDCF91B1987F983211F089
:1001700081B108958F5F01C080E0841758F384E94E
:1001800086BF80E00895DC0184EA86BF06B607FEDC
:10019000FDCF81B1887F8830C9F781ED83B984E8CC
:1001A00086BF06B607FEFDCF91B1987F9034C9F7A0
:1001B00020E00FC084EC86BF06B607FEFDCF91B1EC
:1001C000987F9035C9F7FD01E20FF11D83B180835F
:1001D0002F5FE22FF0E0462F50E041505109E41725
:1001E000F50744F384E886BF06B607FEFDCF91B15C
:1001F000987F9835C9F7862F90E00197A80FB91F0F
:1002000083B18C9384E986BF80E00895382F3F70D6
:10021000982F92959F70990F292F220F220F892FC7
:10022000820F830F08952DEC829F212D1124922F90
:10023000969596959695990F392F330F330F930F07
:10024000891B26952695269530E1239F800D112444
:100250000895CF93DF93CEE8D0E088818F770E9416
:10026000060190E0909372008093710089810E9452
:10027000060190E09093700080936F008091810060
:1002800090918200892B59F0809190008F710E948B
:10029000060190E090936E0080936D000AC08091FB
:1002A00090008F730E94060190E090936E008093FF
:1002B0006D00CEE8D0E08B810E94060190E0909323
:1002C0006C0080936B008C810E94060190E09093FB
:1002D0006A00809369008D810E94060190E09093EE
:1002E0006800809367008E810E94060190E09093E1
:1002F000660080936500DF91CF910895CF93DF93DF
:1003000080917100909172000E941301CEE8D0E0BC
:10031000888380916F00909170000E9413018983FF
:100320008091810090918200892B21F180916D0054
:1003300090916E000E9413014091810050918200C3
:100340000024569547950794569547950794542F42
:10035000402D2091630030916400220F331F2295BD
:100360003295307F3227207F3227842B282B209311
:10037000900008C080916D0090916E000E94130162
:100380008093900080916B0090916C000E9413010B
:10039000CEE8D0E08B838091690090916A000E9442
:1003A00013018C8380916700909168000E94130173
:1003B0008D8380916500909166000E9413018E8369
:1003C00047E0BE0180E00E9486008FEC97E0019735
:1003D000F1F700C0000080E00E945E008FEC97E023
:1003E0000197F1F700C00000DF91CF91089581B32C
:1003F000837F81BB80E881BB8CE082BB87B38B7F2E
:1004000087BB84E088BB81E08ABB08954F925F92EE
:100410006F927F928F929F92AF92BF92CF92DF9214
:10042000EF92FF920F931F93CF93DF93F82E8A01E1
:10043000C62FD0E08EE090E08C1B9D0B6CE070E04E
:100440000E947615072E000C880B990B0E947A13D8
:100450000E94B5134B015C01B80160547D4E80E0F1
:1004600090E00E947813A50194010E945E122B0176
:100470003C0120E030E040E451E4C501B4010E94B9
:1004800087144B015C01BE01DD0F880B990B0E94A4
:100490007A13A50194010E945F1220E030E040E44D
:1004A00050E40E945E124B015C016F2D70E080E011
:1004B00090E00E947A136B017C0120E030E049E17A
:1004C00053E4C501B4010E94871420E030E040E00D
:1004D00050E40E945F1220E030E040EA50E40E94C5
:1004E000D0120E94B5139B01AC01C701B6010E9456
:1004F0005F126B017C0120E030E846EB53E4C3015E
:10050000B2010E9487149B01AC01C701B6010E9491
:100510005F126B017C0120E030E040E85EE3C30144
:10052000B2010E9487140E94B5139B01AC01C70160
:10053000B6010E945F126B017C0120E030E048ECC4
:1005400052E4C301B2010E94D0120E94B5139B0174
:10055000AC01C701B6010E945E124B015C0120E0B4
:1005600030E048EC53E4C301B2010E94D0120E9473
:10057000B5139B01AC01C501B4010E945F1220E0DC
:100580003AE54AEF56E40E945E124B015C0124E614
:1005900034E54CE05AE40E94CB12882354F420E066
:1005A00036EA4AEF56E4C701B6010E945E124B01DB
:1005B0005C01C501B401DF91CF911F910F91FF90B4
:1005C000EF90DF90CF90BF90AF909F908F907F90F3
:1005D0006F905F904F9008954F925F926F927F92CD
:1005E0008F929F92AF92BF92CF92DF92EF92FF9243
:1005F000CF93DF93CDB7DEB766970FB6F894DEBF23
:100600000FBECDBF6B017C015E8B4D8B23E33BE9BD
:100610004AE954E40E94D01269837A838B839C83D5
:100620009B01AC010E9487146D837E838F83988722
:100630009B01AC0169817A818B819C810E94871426
:100640006D877E878F87988B25EA3EE34CEE51E4D9
:10065000C701B6010E94871423EB36E643E15AE452
:100660000E945F124B015C0125E63BE047EF58E337
:100670006D817E818F8198850E9487149B01AC01DA
:10068000C501B4010E945F124B015C0123E13EE60B
:1006900046E254E36D857E858F8598890E94871494
:1006A0009B01AC01C501B4010E945E124B015C01CB
:1006B00028EB3EED44E053E469817A818B819C8193
:1006C0000E9487142CE53FE846E253E40E945F1243
:1006D0002B013C012AE53AE446E15CE36D817E8131
:1006E0008F8198850E9487149B01AC01C301B201E0
:1006F0000E945E1225E33AEF4EE85CE30E94871405
:100700000E94F4142AED33E04DEA59E30E94871465
:100710009B01AC01C501B4010E945F12698B7A8B09
:100720008B8B9C8B25EC37ED48EE51E4C701B6016D
:100730000E94871423EB3CE943EB53E40E945F12D1
:100740004B015C012AE93BEA4BE058E36D817E8175
:100750008F8198850E9487149B01AC01C501B4016B
:100760000E945E124B015C0125E23EED48E656E335
:100770006D857E858F8598890E9487149B01AC01C9
:10078000C501B4010E945E1269877A878B879C87B6
:1007900021E938EE40EC53E4C701B6010E9487140A
:1007A0002DE333E049E953E40E945F124B015C0101
:1007B00026E63FEC4FE25CE36D817E818F81988578
:1007C0000E9487149B01AC01C501B4010E945F1215
:1007D0004B015C012CEC3DE54FE457E36D857E85D4
:1007E0008F8598890E9487149B01AC01C501B401D3
:1007F0000E945F122B013C0123ED35E543EC53E4ED
:10080000C701B6010E94871427E03FE54AEA51E498
:100810000E945F126B017C0124EC32EA48ED5AE33E
:100820006D817E818F8198850E9487149B01AC0128
:10083000C701B6010E945E126B017C0123EE33E614
:1008400040E256E36D857E858F8598890E948714E6
:100850009B01AC01C701B6010E945E126B017C01D5
:1008600021E93BE04EEC59E369817A818B819C81DF
:100870000E9487149B01AC0165EC7FE881E39EE355
:100880000E945E124B015C0125E33AEF4EE85CE307
:1008900069857A858B859C850E9487140E94F41453
:1008A0009B01AC01C501B4010E9487144B015C019E
:1008B00025E33AEF4EE05DE369857A858B859C857B
:1008C0000E9487140E94F41427E230EA49E05BE3B7
:1008D0000E9487149B01AC01C501B4010E945F1204
:1008E0004B015C0125E33AEF4EE85CE3C301B20142
:1008F0000E9487140E94F41427E138E440ED5EE37F
:100900000E9487149B01AC01C501B4010E945E12D4
:100910004B015C0125E33AEF4EE05DE3C301B20118
:100920000E9487140E94F41426E234EE43E85CE34C
:100930000E9487149B01AC01C501B4010E945F12A3
:100940004B015C0120E537E746E55DE3C301B201F9
:100950000E9487140E94F41427E137EB41ED59E31C
:100960000E9487149B01AC01C501B4010E945E1274
:100970004B015C0125E33AEF4EE05DE3C701B601B0
:100980000E9487140E94F41423EC34E64AE25CE3EC
:100990000E9487149B01AC01C501B4010E945F1243
:1009A0004B015C01A301920169857A858B859C8549
:1009B0000E945F1225E33AEF4EE85CE30E94871441
:1009C0000E94F41427EE3DE147EA5BE30E9487149E
:1009D0009B01AC01C501B4010E945E124B015C0198
:1009E000A301920169857A858B859C850E945E12A0
:1009F00025E33AEF4EE85CE30E9487140E94F4146A
:100A000023EB3BE742EF5BE30E9487149B01AC01C1
:100A1000C501B4010E945E124B015C01A701960161
:100A2000C701B6010E945F126B017C019B01AC0102
:100A300069857A858B859C850E945F1225E33AEF54
:100A40004EE85CE30E9487140E94F41427E137EB20
:100A500041ED59E30E9487149B01AC01C501B4012B
:100A60000E945F124B015C0129853A854B855C85AC
:100A7000C701B6010E945E1225E33AEF4EE85CE33F
:100A80000E9487140E94F41427E137EB41ED59E3EB
:100A90000E9487149B01AC01C501B4010E945E1243
:100AA0004B015C01A7019601C301B2010E945F12D4
:100AB00025E33AEF4EE85CE30E9487140E94F414A9
:100AC00022E539E44DE15AE30E9487149B01AC0111
:100AD000C501B4010E945E124B015C01A3019201A9
:100AE000C701B6010E945E1225E33AEF4EE85CE3CF
:100AF0000E9487140E94F4142FE632E143E85AE37F
:100B00000E9487149B01AC01C501B4010E945F12D1
:100B10006B017C01A3019201C301B2010E945F122B
:100B20009B01AC0169857A858B859C850E945F124B
:100B300025E33AEF4EE85CE30E9487140E94F41428
:100B40002FE632E143E05AE30E9487149B01AC0197
:100B5000C701B6010E945F126B017C0120E030E00A
:100B600040E351EC69817A818B819C810E94CB1298
:100B700088230CF051C026E530EF4BE55AE369813C
:100B80007A818B819C810E9487142FE632E143E8B1
:100B90005AE30E945F124B015C0122E435E14DE60D
:100BA00059E36D817E818F8198850E9487149B0116
:100BB000AC01C501B4010E945F124B015C0129E741
:100BC00034EC4DE057E36D857E858F8598890E94D2
:100BD00087149B01AC01C501B4010E945E124B0158
:100BE0005C0129E332EF4DEA53E369817A818B811D
:100BF0009C810E9487149B01AC016D857E858F8549
:100C000098890E9487149B01AC01C501B4010E9420
:100C10005E124B015C0124C023EB3FEE4AE859E32E
:100C200069817A818B819C810E94871427E830EC4E
:100C300041E959E30E945E124B015C012BE03DE566
:100C400049E859E36D817E818F8198850E948714E0
:100C50009B01AC01C501B4010E945F124B015C0114
:100C6000A701960169897A898B899C890E945F1204
:100C7000A50194010E945E1220E030E040E05FE3B5
:100C80000E945F126B017C018D899E8968E170E092
:100C90000E947615072E000C880B990B0E947A1380
:100CA0009B01AC01C701B6010E945F120E94B513FF
:100CB00066960FB6F894DEBF0FBECDBFDF91CF9121
:100CC000FF90EF90DF90CF90BF90AF909F908F906C
:100CD0007F906F905F904F9008954F925F926F92C8
:100CE0007F928F929F92AF92BF92CF92DF92EF92BC
:100CF000FF92CF93DF93CDB7DEB728970FB6F89466
:100D0000DEBF0FBECDBF5A0126E631EA45E15AE407
:100D10000E945E126B017C01C50168E170E00E94D7
:100D20007615072E000C880B990B0E947A139B01F5
:100D3000AC01C701B6010E945E1220E03DEA4EE020
:100D400057E40E94D0126B017C019B01AC010E9410
:100D500087144B015C012DE03FE94CE057E4C701EB
:100D6000B6010E9487142AEB33EC42EB53E40E9455
:100D70005F122B013C0126E139E743E259E3C5014B
:100D8000B4010E9487149B01AC01C301B2010E940F
:100D90005E122B013C0129E539ED40E055E3C70126
:100DA000B6010E9487149B01AC01C501B4010E94E9
:100DB00087149B01AC01C301B2010E945E122B019A
:100DC0003C0125EC30EA4CE057E4C701B6010E9433
:100DD000871425EB3BE34CE853E40E945F126983E0
:100DE0007A838B839C8321ED36EF4EE959E3C5016D
:100DF000B4010E9487149B01AC0169817A818B81C7
:100E00009C810E945F1269837A838B839C832DEE81
:100E100037ED4DE95BE3C701B6010E9487149B01E2
:100E2000AC016DE971E185EF9FE30E945E126D8375
:100E30007E838F8398872BE831EE4AE657E3C5011E
:100E4000B4010E9487149B01AC016D817E818F816A
:100E500098850E945E124B015C0125E33AEF4EE853
:100E60005CE3C301B2010E9487140E94F4149B0149
:100E7000AC01C501B4010E9487144B015C0126EF4F
:100E80003FEC43ED58E3C701B6010E9487149B0174
:100E9000AC016CE578EC83EA9CE30E945E126B0186
:100EA0007C0125E33AEF4EE05DE3C301B2010E940D
:100EB00087140E94F4149B01AC01C701B6010E9483
:100EC00087149B01AC01C501B4010E945F126B0144
:100ED0007C0120E537E746E55DE3C301B2010E94EE
:100EE00087140E94F41424E23BE048E959E30E948D
:100EF00087149B01AC01C701B6010E945F129B01E0
:100F0000AC0169817A818B819C810E945F1225E30B
:100F10003AEF4EE85CE30E9487146B017C012BEDF5
:100F20003FE049EC50E40E94D0120E94B5132BED33
:100F30003FE049EC50E40E9487149B01AC01C701DB
:100F4000B6010E945E122BED3FE049E450E40E949E
:100F5000D01220E030E040EC50E40E9487140E9460
:100F6000B51328960FB6F894DEBF0FBECDBFDF9144
:100F7000CF91FF90EF90DF90CF90BF90AF909F9078
:100F80008F907F906F905F904F9008958F929F9277
:100F9000AF92BF92CF92DF92EF92FF92CF93DF9307
:100FA000EB01AC016CE08FE10E94060224EB36E617
:100FB00043E15AE40E945E1225EA3EE34CEE51E41E
:100FC0000E94D0120E94B5134B015C01AE010E9439
:100FD000EC026B017C01AE010E946D0620E030E066
:100FE00040E151E40E94821488236CF020E030E05C
:100FF00040E85FE3C501B4010E945E12AE010E94A9
:10100000EC026B017C01C701B601DF91CF91FF902B
:10101000EF90DF90CF90BF90AF909F908F9008950A
:101020002F923F924F925F926F927F928F929F92F8
:10103000AF92BF92CF92DF92EF92FF920F931F93E6
:10104000CF93DF93EA0124EB36E643E15AE40E94B2
:101050005E1225EA3EE34CEE51E40E94D01220E0FD
:1010600030E040E05FE30E945F120E94B5134B0145
:101070005C0120E030E040E85FE30E945F12AE01D7
:101080000E94EC02AE010E946D06562E472E382EAD
:10109000292E0F2EC12CD12CF0E8EF2EFFE3FF2ECE
:1010A000F02D20E030E040E85FE3C701B6010E9488
:1010B0005F126B017C019B01AC01C501B4010E9470
:1010C0005F12AE010E94EC02AE010E946D06162F67
:1010D000072F782E692E262F372F482F592F652D51
:1010E000742D832D922D0E94CB12882371F0512EE6
:1010F000402E372C262C20E030E040E651E4C7019A
:10110000B6010E94CB12882364F220E030E040E870
:101110005FE3C701B6010E945E12DF91CF911F917C
:101120000F91FF90EF90DF90CF90BF90AF909F9086
:101130008F907F906F905F904F903F902F90089589
:101140002F923F924F925F926F927F928F929F92D7
:10115000AF92BF92CF92DF92EF92FF920F931F93C5
:10116000CF93DF93EA0119010E9406024B015C0153
:1011700024EB36E643E15AE40E945E1225EA3EE3A0
:101180004CEE51E40E94D0120E94B5132B013C0199
:1011900020E030E040E85FE30E945F12A1010E947E
:1011A000EC026B017C019B01AC01C501B4010E9402
:1011B000CB1288233CF4A101C301B2010E94EC02CE
:1011C0006B017C01B101CE010E94C607162F072FCB
:1011D000782E692E262F372F482F592FC701B60199
:1011E0000E94CB12181694F0D0939600C0939500ED
:1011F000B101CE0101970E94C607C12FD02F572CF5
:10120000462C162F072F782E692E0DC0CE01019681
:101210009093960080939500B1010E94C607C62F57
:10122000D72F582E492EA7019601C501B4010E945F
:101230005E1220E030E040E85FE30E945F120E940F
:1012400042137093860060938500212F302F472D25
:10125000562DC701B6010E945E1220E030E048EE34
:1012600051E40E94D0120E94B5136B017C0120E072
:1012700030E040E351E40E945F120E9442137093F9
:10128000880060938700212F302F472D562D6C2F1B
:101290007D2F852D942D0E945E1220E030E846EBD4
:1012A00053E40E9482141816ECF4A101612F702FF0
:1012B000872D962D0E9410089B01AC01C701B60135
:1012C0000E948214882374F020E030E040E251E470
:1012D000C701B6010E945F120E94421370938800FA
:1012E0006093870080918700909188000D974CF063
:1012F00080918700909188000C979093880080934C
:10130000870080918700909188000B979CF020E0E7
:1013100030E040E850E4C701B6010E94CB128823B8
:101320004CF48091950090919600019790939600CF
:1013300080939500DF91CF911F910F91FF90EF90D7
:10134000DF90CF90BF90AF909F908F907F906F90E5
:101350005F904F903F902F9008958FB9779BFECF6D
:101360000895CF93C62F98B39F7E98BB0E94AD0976
:101370008C2F0E94AD0988B3806188BBCF910895FE
:10138000CF93C09160006FE08C2F0E94B109C150D3
:10139000D1F7CF9108950F931F93CF93DF9380914F
:1013A000760081118EC180917400811161C00E940C
:1013B000C00980916F0090917000CAE0D0E0BE013A
:1013C0000E947615BC0188E090E00E94B1098091EE
:1013D0006F0090917000BE010E94761587E090E04A
:1013E0000E94B10980916D0090916E00BE010E9433
:1013F0007615BC0186E090E00E94B10980916D00F5
:1014000090916E00BE010E94761585E090E00E94EA
:10141000B1098091670090916800BE010E94761525
:10142000BC0184E090E00E94B10980916700909136
:101430006800BE010E94761583E090E00E94B10929
:101440008091690090916A00BE010E947615BC01EE
:1014500082E090E00E94B1098091690090916A0059
:10146000BE010E94761581E090E00E94B1093BC464
:1014700080917400813009F076C00E94C00980918B
:1014800083009091840008EE13E0B8010E94761565
:10149000CAE0D0E0BE010E947615BC0188E090E071
:1014A0000E94B1098091830090918400B8010E944C
:1014B0007615BE010E947615CB01BE010E947615FD
:1014C000BC0187E090E00E94B10980918300909177
:1014D0008400B8010E94761564E670E00E947615DB
:1014E000CB01BE010E947615BC0186E090E00E940F
:1014F000B1098091830090918400B8010E94761513
:1015000085E090E00E94B1098091670090916800A9
:10151000BE010E947615BC0184E090E00E94B109F2
:101520008091670090916800BE010E94761583E06B
:1015300090E00E94B1098091690090916A00BE011B
:101540000E947615BC0182E090E00E94B109809172
:10155000690090916A00BE010E94761581E090E0DA
:101560000E94B109C0C380917400823009F076C036
:101570000E94C009809195009091960008EE13E0BA
:10158000B8010E947615CAE0D0E0BE010E9476152F
:10159000BC0188E090E00E94B10980919500909193
:1015A0009600B8010E947615BE010E947615CB0107
:1015B000BE010E947615BC0187E090E00E94B1094F
:1015C0008091950090919600B8010E94761564E68E
:1015D00070E00E947615CB01BE010E947615BC0119
:1015E00086E090E00E94B10980919500909196006C
:1015F000B8010E94761585E090E00E94B1098091C3
:10160000870090918800BE010E947615BC0184E09D
:1016100090E00E94B1098091870090918800BE01FE
:101620000E94761583E090E00E94B10980918500C8
:1016300090918600BE010E947615BC0182E090E088
:101640000E94B1098091850090918600BE010E94A0
:10165000761581E090E00E94B10945C30E94C0095F
:1016600080917D0090917E00CAE0D0E0BE010E9492
:101670007615BC0188E090E00E94B10980917D0060
:1016800090917E00BE010E94761587E090E00E9456
:10169000B10980917F0090918000BE010E94761573
:1016A000BC0186E090E00E94B10980917F0090919A
:1016B0008000BE010E94761585E090E00E94B1098D
:1016C00012C380917500813009F059C08091740077
:1016D000811155C00E94C00980916F0090917000E7
:1016E000CAE0D0E0BE010E947615BC0188E090E01F
:1016F0000E94B10980916F0090917000BE010E941C
:10170000761587E090E00E94B10980916D0090917C
:101710006E00BE010E947615BC0186E090E00E943A
:10172000B10980916D0090916E00BE010E94761506
:1017300085E090E00E94B109809167009091680077
:10174000BE010E947615BC0184E090E00E94B109C0
:101750008091670090916800BE010E94761583E039
:1017600090E00E94B1096FE070E082E090E00E949A
:10177000B1096FE070E081E090E00E94B1098091D2
:101780007500823009F059C080917400811155C0F4
:101790000E94C00980916F0090917000CAE0D0E073
:1017A000BE010E947615BC0188E090E00E94B1095C
:1017B00080916F0090917000BE010E94761587E0C5
:1017C00090E00E94B10980916D0090916E00BE0181
:1017D0000E947615BC0186E090E00E94B1098091DC
:1017E0006D0090916E00BE010E94761585E090E03C
:1017F0000E94B1096FE070E084E090E00E94B109BE
:101800006FE070E083E090E00E94B1098091690090
:1018100090916A00BE010E947615BC0182E090E0C2
:101820000E94B1098091690090916A00BE010E94F6
:10183000761581E090E00E94B109809175008330B7
:1018400009F059C080917400811155C00E94C009EF
:1018500080916F0090917000CAE0D0E0BE010E94BC
:101860007615BC0188E090E00E94B10980916F007C
:1018700090917000BE010E94761587E090E00E9472
:10188000B1096FE070E086E090E00E94B1096FE07E
:1018900070E085E090E00E94B1098091670090912E
:1018A0006800BE010E947615BC0184E090E00E94B1
:1018B000B1098091670090916800BE010E94761581
:1018C00083E090E00E94B1098091690090916A00E4
:1018D000BE010E947615BC0182E090E00E94B10931
:1018E0008091690090916A00BE010E94761581E0A6
:1018F00090E00E94B10980917500843009F059C0D0
:1019000080917400811155C00E94C0096FE070E0A1
:1019100088E090E00E94B1096FE070E087E090E01D
:101920000E94B10980916D0090916E00CAE0D0E0F4
:10193000BE010E947615BC0186E090E00E94B109CC
:1019400080916D0090916E00BE010E94761585E039
:1019500090E00E94B1098091670090916800BE01FB
:101960000E947615BC0184E090E00E94B10980914C
:10197000670090916800BE010E94761583E090E0B8
:101980000E94B1098091690090916A00BE010E9495
:101990007615BC0182E090E00E94B1098091690057
:1019A00090916A00BE010E94761581E090E00E944D
:1019B000B10980917500813009F06FC08091740089
:1019C000813009F06AC00E94C00980918300909123
:1019D000840008EE13E0B8010E947615CAE0D0E05A
:1019E000BE010E947615BC0188E090E00E94B1091A
:1019F0008091830090918400B8010E947615BE0109
:101A00000E947615CB01BE010E947615BC0187E0CD
:101A100090E00E94B1098091830090918400B80108
:101A20000E94761564E670E00E947615CB01BE0137
:101A30000E947615BC0186E090E00E94B109809179
:101A4000830090918400B8010E94761585E090E0B3
:101A50000E94B1098091670090916800BE010E94C8
:101A60007615BC0184E090E00E94B1098091670086
:101A700090916800BE010E94761583E090E00E947C
:101A8000B1096FE070E082E090E00E94B1096FE080
:101A900070E081E090E00E94B10980917500823091
:101AA00009F06FC080917400813009F06AC00E9413
:101AB000C009809183009091840008EE13E0B80182
:101AC0000E947615CAE0D0E0BE010E947615BC01E6
:101AD00088E090E00E94B109809183009091840099
:101AE000B8010E947615BE010E947615CB01BE0199
:101AF0000E947615BC0187E090E00E94B1098091B8
:101B0000830090918400B8010E94761564E670E02D
:101B10000E947615CB01BE010E947615BC0186E0BD
:101B200090E00E94B1098091830090918400B801F7
:101B30000E94761585E090E00E94B1096FE070E0A8
:101B400084E090E00E94B1096FE070E083E090E0F3
:101B50000E94B1098091690090916A00BE010E94C3
:101B60007615BC0182E090E00E94B1098091690085
:101B700090916A00BE010E94761581E090E00E947B
:101B8000B10980917500833009F04FC080917400D5
:101B9000813009F04AC00E94C0096FE070E088E01F
:101BA00090E00E94B1096FE070E087E090E00E9451
:101BB000B1096FE070E086E090E00E94B1096FE04B
:101BC00070E085E090E00E94B109809167009091FB
:101BD0006800CAE0D0E0BE010E947615BC0184E036
:101BE00090E00E94B1098091670090916800BE0169
:101BF0000E94761583E090E00E94B109809169000F
:101C000090916A00BE010E947615BC0182E090E0CE
:101C10000E94B1098091690090916A00BE010E9402
:101C2000761581E090E00E94B109809175008130C5
:101C300059F580917400833039F50E94C009809174
:101C40007D0090917E00CAE0D0E0BE010E94761532
:101C5000BC0188E090E00E94B10980917D009091E4
:101C60007E00BE010E94761587E090E00E94B109D7
:101C70006FE070E086E090E00E94B1096FE070E0F4
:101C800085E090E00E94B10980917500823059F59D
:101C900080917400833039F50E94C0096FE070E0D4
:101CA00088E090E00E94B1096FE070E087E090E08A
:101CB0000E94B10980917F0090918000CAE0D0E03D
:101CC000BE010E947615BC0186E090E00E94B10939
:101CD00080917F0090918000BE010E94761585E082
:101CE00090E00E94B109DF91CF911F910F9108956B
:101CF00085E083BF81E089BF7894089515BE14BE46
:101D000080EE8BBF7894089587B3806B87BB8DB1CD
:101D100082658DB967E08BE00E94B10965E08AE0D9
:101D20000E94B10961E08CE00E94B1096FEF89E087
:101D30000E94B1090E94F7010E94780E0E947E0E57
:101D40000E94580067E08EE890E00E94C3000E9465
:101D500029018FEC97E00197F1F700C000009BB3D9
:101D600081E089278BBB809165009091660080534C
:101D7000984F90938400809383002091610030916C
:101D800062004091830050918400609167007091DF
:101D900068008091690090916A000E94A0080E94EA
:101DA000CB0920916D0030916E0080917F00909161
:101DB000800028173907B9F620916F003091700024
:101DC00080917D0090917E002817390761F68091FF
:101DD0007700882341F20E94CB0982B3806882BBDE
:101DE000C2CF1F920F920FB60F9211242F933F93E1
:101DF0004F935F936F937F938F939F93AF93BF9313
:101E0000EF93FF9380917B0090917C0001969093DB
:101E10007C0080937B008091790090917A000196FC
:101E200090937A008093790080917B0090917C0060
:101E30000A9728F18091780081111DC00E945E00F0
:101E40008FEC97E00197F1F700C0000067E08EE8A3
:101E500090E00E94C30080918E000E94060190E0F5
:101E600020917100309172008217930721F00E9437
:101E700029010E94CB0910927C0010927B00809176
:101E8000790090917A004E9780F0809178008823B5
:101E900041F09091760081E08927809376000E943E
:101EA000CB0910927A0010927900FF91EF91BF91C7
:101EB000AF919F918F917F916F915F914F913F91E2
:101EC0002F910F900FBE0F901F9018951F920F9299
:101ED0000FB60F9211242F933F934F935F936F93FD
:101EE0007F938F939F93AF93BF93EF93FF938091D3
:101EF000780081110BC0909174009F5F90937400E3
:101F000090917400943010F01092740090917400CD
:101F100091110CC0882351F010927400109275003A
:101F2000109276000E947E011092780080917400D9
:101F3000813079F480917800882359F081E0809392
:101F4000740010927500109276000E947E0110922B
:101F5000780080917400833081F480917800882328
:101F600061F083E080937400109275001092760007
:101F700081E08093770010927800FF91EF91BF91FC
:101F8000AF919F918F917F916F915F914F913F9111
:101F90002F910F900FBE0F901F9018951F920F92C8
:101FA0000FB60F9211248F9380917400811112C08B
:101FB00081E080937800809175008F5F8093750039
:101FC00080917500853030F0109275001092760087
:101FD0001092780080917400813089F480937800A9
:101FE000809175008F5F80937500809175008430BB
:101FF00030F0109275001092760010927800809167
:1020000074008330E1F481E0809378008091750062
:102010008F5F8093750080917500833080F01092FF
:102020007500109276001092800010927F0010923E
:102030007E0010927D0010927700109278008F91B0
:102040000F900FBE0F901F9018951F920F920FB612
:102050000F9211242F933F938F939F93809177003A
:10206000882339F080917800811103C010927700A5
:1020700012BA80917800882309F4FDC09091740011
:102080009111F9C090917500913009F0A5C020918F
:10209000690030916A002F5F3F4F30936A002093B0
:1020A0006900209167003091680024303105A9F063
:1020B00020916700309168002630310571F0209141
:1020C0006700309168002930310539F020916700B0
:1020D000309168002B30310579F4209169003091FE
:1020E0006A002F3131050CF4C6C021E030E0309396
:1020F0006A0020936900BFC020916700309168009A
:102100002130310551F12091670030916800233072
:10211000310519F1209167003091680025303105B3
:10212000E1F0209167003091680027303105A9F077
:1021300020916700309168002830310571F02091BE
:102140006700309168002A30310539F0209167002E
:10215000309168002C30310579F42091690030917C
:102160006A00203231050CF486C021E030E0309363
:102170006A00209369007FC0209183003091840021
:102180002D5F3F4F27303105C0F4209183003091FF
:10219000840021573E4F2F31334078F4209169005D
:1021A00030916A002E3131050CF465C021E030E039
:1021B00030936A00209369005EC0209169003091DD
:1021C0006A002D3131050CF456C021E030E0309327
:1021D0006A00209369004FC0909175009230C1F45D
:1021E00020916700309168002F5F3F4F3093680067
:1021F0002093670020916700309168002D303105F1
:10220000D4F121E030E0309368002093670033C0C0
:10221000909175009330B1F420916D0030916E0073
:102220002F5F3F4F30936E0020936D0020916D0023
:1022300030916E0028313105F4F010926E0010924A
:102240006D0019C0909175009430A9F420916F0031
:10225000309170002F5F3F4F3093700020936F00DC
:1022600020916F00309170002C33310524F01092D2
:10227000700010926F00882309F4E3C090917400FD
:10228000913009F0DEC090917500913009F0A4C042
:102290002091690030916A002F5F3F4F30936A00B0
:1022A0002093690020916700309168002430310547
:1022B000A9F020916700309168002630310571F057
:1022C00020916700309168002930310539F0209164
:1022D0006700309168002B30310579F42091690056
:1022E00030916A002F3131050CF4ABC021E030E0B1
:1022F00030936A0020936900A4C020916700309158
:1023000068002130310551F120916700309168005B
:102310002330310519F12091670030916800253094
:102320003105E1F0209167003091680027303105D8
:10233000A9F020916700309168002830310571F0D4
:1023400020916700309168002A30310539F02091E2
:102350006700309168002C30310579F420916900D4
:1023600030916A00203231050CF46BC021E030E07E
:1023700030936A002093690064C0209183003091FB
:1023800084002D5F3F4F27303105C0F4209183003A
:102390003091840021573E4F2F31334078F4209103
:1023A000690030916A002E3131050CF44AC021E0F9
:1023B00030E030936A002093690043C020916900A7
:1023C00030916A002D313105E4F121E030E03093A5
:1023D0006A002093690035C0909175009230C1F475
:1023E00020916700309168002F5F3F4F3093680065
:1023F0002093670020916700309168002D303105EF
:1024000004F121E030E0309368002093670019C0A8
:10241000909175009330A9F4209165003091660089
:102420002F5F3F4F30936600209365002091650039
:10243000309166002436310524F010926600109227
:102440006500882391F180917400833071F580914B
:102450007500813099F480917F0090918000019601
:102460009093800080937F0080917F009091800006
:10247000489724F01092800010927F0080917500A0
:10248000823099F480917D0090917E000196909326
:102490007E0080937D0080917D0090917E00CC979E
:1024A00024F010927E0010927D009F918F913F91B9
:1024B0002F910F900FBE0F901F9018955058BB276B
:1024C000AA270E9476120C9430140E94221438F02D
:1024D0000E94291420F039F49F3F19F426F40C943B
:1024E0001F140EF4E095E7FB0C94F013E92F0E9403
:1024F000411458F3BA17620773078407950720F051
:1025000079F4A6F50C947B140EF4E0950B2EBA2FFB
:10251000A02D0B01B90190010C01CA01A0011124E9
:10252000FF27591B99F0593F50F4503E68F11A1695
:10253000F040A22F232F342F4427585FF3CF469526
:1025400037952795A795F0405395C9F77EF41F1648
:10255000BA0B620B730B840BBAF09150A1F0FF0F12
:10256000BB1F661F771F881FC2F70EC0BA0F621FFE
:10257000731F841F48F4879577956795B795F795EE
:102580009E3F08F0B0CF9395880F08F09927EE0F83
:102590009795879508950E94CC1308F481E00895DB
:1025A0000E94E4120C9430140E94291458F00E94E6
:1025B000221440F029F45F3F29F00C94F0135111DC
:1025C0000C947C140C941F140E94411468F39923FA
:1025D000B1F3552391F3951B550BBB27AA2762171F
:1025E0007307840738F09F5F5F4F220F331F441F2C
:1025F000AA1FA9F335D00E2E3AF0E0E832D0915060
:102600005040E695001CCAF72BD0FE2F29D0660F4C
:10261000771F881FBB1F261737074807AB07B0E88F
:1026200009F0BB0B802DBF01FF2793585F4F3AF095
:102630009E3F510578F00C94F0130C947C145F3F8E
:10264000E4F3983ED4F3869577956795B795F7951B
:102650009F5FC9F7880F911D9695879597F9089503
:10266000E1E0660F771F881FBB1F6217730784079F
:10267000BA0720F0621B730B840BBA0BEE1F88F7AE
:10268000E09508950E9449136894B1110C947C144C
:1026900008950E94491488F09F5798F0B92F992700
:1026A000B751B0F0E1F0660F771F881F991F1AF03D
:1026B000BA95C9F714C0B13091F00E947B14B1E013
:1026C00008950C947B14672F782F8827B85F39F012
:1026D000B93FCCF3869577956795B395D9F73EF4D6
:1026E00090958095709561957F4F8F4F9F4F08957E
:1026F000E89409C097FB3EF490958095709561959C
:102700007F4F8F4F9F4F9923A9F0F92F96E9BB2751
:102710009395F695879577956795B795F111F8CFCD
:10272000FAF4BB0F11F460FF1BC06F5F7F4F8F4F38
:102730009F4F16C0882311F096E911C0772321F02E
:102740009EE8872F762F05C0662371F096E8862FC6
:1027500070E060E02AF09A95660F771F881FDAF71D
:10276000880F9695879597F908950E94631490F0C5
:102770009F3748F4911116F00C947C1460E070E0DF
:1027800080E89FEB089526F41B16611D711D811DC5
:102790000C94F6130C941114990F0008550FAA0B02
:1027A000E0E8FEEF16161706E807F907C0F0121664
:1027B0001306E407F50798F0621B730B840B950B67
:1027C00039F40A2661F0232B242B252B21F40895BC
:1027D0000A2609F4A140A6958FEF811D811D089559
:1027E00097F99F6780E870E060E00895882371F4AE
:1027F000772321F09850872B762F07C0662311F49A
:1028000099270DC09051862B70E060E02AF09A95D0
:10281000660F771F881FDAF7880F9695879597F9C7
:1028200008959F3F31F0915020F4879577956795F3
:10283000B795880F911D9695879597F908959FEF05
:1028400080EC089500240A94161617061806090647
:10285000089500240A941216130614060506089516
:10286000092E0394000C11F4882352F0BB0F40F49E
:10287000BF2B11F460FF04C06F5F7F4F8F4F9F4FDE
:10288000089557FD9058440F551F59F05F3F71F060
:102890004795880F97FB991F61F09F3F79F08795C7
:1028A0000895121613061406551FF2CF4695F1DF50
:1028B00008C0161617061806991FF1CF86957105E0
:1028C0006105089408950E944914A0F0BEE7B91765
:1028D00088F4BB279F3860F41616B11D672F782F38
:1028E0008827985FF7CF869577956795B11D939563
:1028F0009639C8F30895E894BB2766277727CB015C
:1029000097F908950E94CC1308F48FEF08950E9460
:102910009A140C9430140E94221438F00E94291446
:1029200020F0952311F00C94F0130C941F14112433
:102930000C947C140E94411470F3959FC1F3950F81
:1029400050E0551F629FF001729FBB27F00DB11D33
:10295000639FAA27F00DB11DAA1F649F6627B00DC3
:10296000A11D661F829F2227B00DA11D621F739FAC
:10297000B00DA11D621F839FA00D611D221F749FBA
:102980003327A00D611D231F849F600D211D822F01
:10299000762F6A2F11249F5750409AF0F1F0882328
:1029A0004AF0EE0FFF1FBB1F661F771F881F915055
:1029B0005040A9F79E3F510580F00C94F0130C9401
:1029C0007C145F3FE4F3983ED4F386957795679542
:1029D000B795F795E7959F5FC1F7FE2B880F911D7F
:1029E0009695879597F908959F930E94FE140F90EE
:1029F00007FCEE5F0C9427150C941F140E944914D9
:102A0000D8F3E894E0E0BB279F57F0F02AED3FE0D1
:102A100049EC06C0EE0FBB0F661F771F881F28F01A
:102A2000B23A62077307840728F0B25A620B730B3D
:102A3000840BE3959A9572F7803830F49A95BB0F22
:102A4000661F771F881FD2F790480C941314EF93DA
:102A5000E0FF07C0A2EA2AED3FE049EC5FEB0E94ED
:102A600076120E9430140F90039401FC9058E4E514
:102A7000F0E00C943B159F938F937F936F93FF939C
:102A8000EF939B01AC010E948714EF91FF910E948C
:102A90004F152F913F914F915F910C948714DF93C5
:102AA000CF931F930F93FF92EF92DF927B018C01E4
:102AB000689406C0DA2EEF010E949A14FE01E89491
:102AC000A5912591359145915591A6F3EF010E946D
:102AD0007612FE019701A801DA9469F7DF90EF9072
:102AE000FF900F911F91CF91DF91089597FB072ED3
:102AF00016F4009407D077FD09D00E948A1507FCD0
:102B000005D03EF4909581959F4F089570956195FD
:102B10007F4F0895AA1BBB1B51E107C0AA1FBB1F13
:102B2000A617B70710F0A61BB70B881F991F5A9559
:102B3000A9F780959095BC01CD010895F894FFCF39
:102B4000080700010015000C00190007000B0032F7
:042B5000003200004F
:00000001FF
