S016000046696E616C2D63616C656E6461722E73726563BD
S11300000C9439000C94FB0E0C94660F0C94AD0FF9
S11300100C9456000C9456000C9456000C94560004
S11300200C9456000C9456000C9456000C94AC0B93
S11300300C9456000C9456000C9456000C945600E4
S11300400C9456000C9456000C9456000C945600D4
S11300500C94560005A84CCDB2D44EB93836A9023A
S11300600C50B9918688083CA6AAAA2ABE000000B2
S1130070803F11241FBECFE5D8E0DEBFCDBF10E026
S1130080A0E6B0E0EAE0F9E202C005900D92A437E0
S1130090B107D9F720E0A4E7B0E001C01D92A4396C
S11300A0B207E1F70E945F0B0C9483140C940000D8
S11300B011B880E280B984E886BF089594EA96BFB7
S11300C006B607FEFDCF91B1987F983011F081B14B
S11300D0089590ED93B994E896BF06B607FEFDCF58
S11300E091B1987F983111F081B1089583B984E872
S11300F086BF06B607FEFDCF81B1887F883211F036
S113010081B1089584E986BF80E0089594EA96BF9A
S113011006B607FEFDCF91B1987F983011F081B1FA
S1130120089590ED93B994E896BF06B607FEFDCF07
S113013091B1987F983111F081B1089583B984E821
S113014086BF06B607FEFDCF81B1887F8832A1F055
S113015081B10895FB01E80FF11D908193B994E8F2
S113016096BF06B607FEFDCF91B1987F983211F085
S113017081B108958F5F01C080E0841758F384E94A
S113018086BF80E00895DC0184EA86BF06B607FED8
S1130190FDCF81B1887F8830C9F781ED83B984E8C8
S11301A086BF06B607FEFDCF91B1987F9034C9F79C
S11301B020E00FC084EC86BF06B607FEFDCF91B1E8
S11301C0987F9035C9F7FD01E20FF11D83B180835B
S11301D02F5FE22FF0E0462F50E041505109E41721
S11301E0F50744F384E886BF06B607FEFDCF91B158
S11301F0987F9835C9F7862F90E00197A80FB91F0B
S113020083B18C9384E986BF80E00895382F3F70D2
S1130210982F92959F70990F292F220F220F892FC3
S1130220820F830F08952DEC829F212D1124922F8C
S1130230969596959695990F392F330F330F930F03
S1130240891B26952695269530E1239F800D112440
S11302500895CF93DF93CBE8D0E088818F770E9415
S1130260060190E0909372008093710089810E944E
S1130270060190E09093700080936F0080917E005F
S113028090917F00892B59F080918D008F710E948D
S1130290060190E090936E0080936D000AC08091F7
S11302A08D008F730E94060190E090936E008093FE
S11302B06D00CBE8D0E08B810E94060190E0909322
S11302C06C0080936B008C810E94060190E09093F7
S11302D06A00809369008D810E94060190E09093EA
S11302E06800809367008E810E94060190E09093DD
S11302F0660080936500DF91CF910895CF93DF93DB
S113030080917100909172000E941301CBE8D0E0BB
S1130310888380916F00909170000E9413018983FB
S113032080917E0090917F00892B21F180916D0056
S113033090916E000E94130140917E0050917F00C5
S11303400024569547950794569547950794542F3E
S1130350402D2091630030916400220F331F2295B9
S11303603295307F3227207F3227842B282B20930D
S11303708D0008C080916D0090916E000E94130161
S113038080938D0080916B0090916C000E9413010A
S1130390CBE8D0E08B838091690090916A000E9441
S11303A013018C8380916700909168000E9413016F
S11303B08D8380916500909166000E9413018E8365
S11303C047E0BE0180E00E9486008FEC97E0019731
S11303D0F1F700C0000080E00E945E008FEC97E01F
S11303E00197F1F700C00000DF91CF91089581B328
S11303F0837F81BB80E881BB87B3877F87BB84B35E
S1130400806884BB08954F925F926F927F928F921F
S11304109F92AF92BF92CF92DF92EF92FF920F938F
S11304201F93CF93DF93F82E8A01C62FD0E08EE07E
S113043090E08C1B9D0B6CE070E00E945B14072E17
S1130440000C880B990B0E945F120E949A124B01B8
S11304505C01B80160547D4E80E090E00E945D1222
S1130460A50194010E9443112B013C0120E030E0DE
S113047040E451E4C501B4010E946C134B015C01DA
S1130480BE01DD0F880B990B0E945F12A501940138
S11304900E94441120E030E040E450E40E94431103
S11304A04B015C016F2D70E080E090E00E945F12D0
S11304B06B017C0120E030E049E153E4C501B40163
S11304C00E946C1320E030E040E050E40E944411AC
S11304D020E030E040EA50E40E94B5110E949A12F4
S11304E09B01AC01C701B6010E9444116B017C0160
S11304F020E030E846EB53E4C301B2010E946C13E0
S11305009B01AC01C701B6010E9444116B017C013F
S113051020E030E040E85EE3C301B2010E946C13C6
S11305200E949A129B01AC01C701B6010E944411BA
S11305306B017C0120E030E048EC52E4C301B201DD
S11305400E94B5110E949A129B01AC01C701B60129
S11305500E9443114B015C0120E030E048EC53E47D
S1130560C301B2010E94B5110E949A129B01AC0111
S1130570C501B4010E94441120E03AE54AEF56E473
S11305800E9443114B015C0124E634E54CE05AE43B
S11305900E94B011882354F420E036EA4AEF56E46E
S11305A0C701B6010E9443114B015C01C501B401AE
S11305B0DF91CF911F910F91FF90EF90DF90CF903B
S11305C0BF90AF909F908F907F906F905F904F906F
S11305D008954F925F926F927F928F929F92AF9203
S11305E0BF92CF92DF92EF92FF92CF93DF93CDB77A
S11305F0DEB766970FB6F894DEBF0FBECDBF6B01B2
S11306007C015E8B4D8B23E33BE94AE954E40E9471
S1130610B51169837A838B839C839B01AC010E940F
S11306206C136D837E838F8398879B01AC016981F2
S11306307A818B819C810E946C136D877E878F8762
S1130640988B25EA3EE34CEE51E4C701B6010E94C3
S11306506C1323EB36E643E15AE40E9444114B0148
S11306605C0125E63BE047EF58E36D817E818F8195
S113067098850E946C139B01AC01C501B4010E94D2
S113068044114B015C0123E13EE646E254E36D85EF
S11306907E858F8598890E946C139B01AC01C501EE
S11306A0B4010E9443114B015C0128EB3EED44E090
S11306B053E469817A818B819C810E946C132CE5BF
S11306C03FE846E253E40E9444112B013C012AE531
S11306D03AE446E15CE36D817E818F8198850E94D6
S11306E06C139B01AC01C301B2010E94431125E3C9
S11306F03AEF4EE85CE30E946C130E94D9132AED92
S113070033E04DEA59E30E946C139B01AC01C5012F
S1130710B4010E944411698B7A8B8B8B9C8B25ECE2
S113072037ED48EE51E4C701B6010E946C1323EB88
S11307303CE943EB53E40E9444114B015C012AE978
S11307403BEA4BE058E36D817E818F8198850E945E
S11307506C139B01AC01C501B4010E9443114B0110
S11307605C0125E23EED48E656E36D857E858F8586
S113077098890E946C139B01AC01C501B4010E94CD
S1130780431169877A878B879C8721E938EE40EC8F
S113079053E4C701B6010E946C132DE333E049E929
S11307A053E40E9444114B015C0126E63FEC4FE206
S11307B05CE36D817E818F8198850E946C139B011F
S11307C0AC01C501B4010E9444114B015C012CEC45
S11307D03DE54FE457E36D857E858F8598890E94BA
S11307E06C139B01AC01C501B4010E9444112B019F
S11307F03C0123ED35E543EC53E4C701B6010E9407
S11308006C1327E03FE54AEA51E40E9444116B016E
S11308107C0124EC32EA48ED5AE36D817E818F81BC
S113082098850E946C139B01AC01C701B6010E941C
S113083043116B017C0123EE33E640E256E36D8500
S11308407E858F8598890E946C139B01AC01C7013A
S1130850B6010E9443116B017C0121E93BE04EEC9F
S113086059E369817A818B819C810E946C139B017D
S1130870AC0165EC7FE881E39EE30E9443114B01E8
S11308805C0125E33AEF4EE85CE369857A858B8564
S11308909C850E946C130E94D9139B01AC01C50175
S11308A0B4010E946C134B015C0125E33AEF4EE066
S11308B05DE369857A858B859C850E946C130E9413
S11308C0D91327E230EA49E05BE30E946C139B01F1
S11308D0AC01C501B4010E9444114B015C0125E344
S11308E03AEF4EE85CE3C301B2010E946C130E942C
S11308F0D91327E138E440ED5EE30E946C139B01B9
S1130900AC01C501B4010E9443114B015C0125E314
S11309103AEF4EE05DE3C301B2010E946C130E9402
S1130920D91326E234EE43E85CE30E946C139B0186
S1130930AC01C501B4010E9444114B015C0120E5E6
S113094037E746E55DE3C301B2010E946C130E94E0
S1130950D91327E137EB41ED59E30E946C139B0156
S1130960AC01C501B4010E9443114B015C0125E3B4
S11309703AEF4EE05DE3C701B6010E946C130E949A
S1130980D91323EC34E64AE25CE30E946C139B0126
S1130990AC01C501B4010E9444114B015C01A301E7
S11309A0920169857A858B859C850E94441125E393
S11309B03AEF4EE85CE30E946C130E94D91327EED1
S11309C03DE147EA5BE30E946C139B01AC01C50166
S11309D0B4010E9443114B015C01A301920169859A
S11309E07A858B859C850E94431125E33AEF4EE876
S11309F05CE30E946C130E94D91323EB3BE742EFA4
S1130A005BE30E946C139B01AC01C501B4010E941D
S1130A1043114B015C01A7019601C701B6010E9475
S1130A2044116B017C019B01AC0169857A858B853E
S1130A309C850E94441125E33AEF4EE85CE30E9452
S1130A406C130E94D91327E137EB41ED59E30E945F
S1130A506C139B01AC01C501B4010E9444114B010C
S1130A605C0129853A854B855C85C701B6010E94E6
S1130A70431125E33AEF4EE85CE30E946C130E94B5
S1130A80D91327E137EB41ED59E30E946C139B0125
S1130A90AC01C501B4010E9443114B015C01A701E3
S1130AA09601C301B2010E94441125E33AEF4EE8D6
S1130AB05CE30E946C130E94D91322E539E44DE1F2
S1130AC05AE30E946C139B01AC01C501B4010E945E
S1130AD043114B015C01A3019201C701B6010E94BD
S1130AE0431125E33AEF4EE85CE30E946C130E9445
S1130AF0D9132FE632E143E85AE30E946C139B01B9
S1130B00AC01C501B4010E9444116B017C01A30135
S1130B109201C301B2010E9444119B01AC01698599
S1130B207A858B859C850E94441125E33AEF4EE833
S1130B305CE30E946C130E94D9132FE632E143E078
S1130B405AE30E946C139B01AC01C701B6010E94D9
S1130B5044116B017C0120E030E040E351EC6981F9
S1130B607A818B819C810E94B01188230CF051C042
S1130B7026E530EF4BE55AE369817A818B819C81CC
S1130B800E946C132FE632E143E85AE30E944411B9
S1130B904B015C0122E435E14DE659E36D817E8130
S1130BA08F8198850E946C139B01AC01C501B4012F
S1130BB00E9444114B015C0129E734EC4DE057E3FA
S1130BC06D857E858F8598890E946C139B01AC018D
S1130BD0C501B4010E9443114B015C0129E332EFCA
S1130BE04DEA53E369817A818B819C810E946C1365
S1130BF09B01AC016D857E858F8598890E946C135D
S1130C009B01AC01C501B4010E9443114B015C017D
S1130C1024C023EB3FEE4AE859E369817A818B8152
S1130C209C810E946C1327E830EC41E959E30E944F
S1130C3043114B015C012BE03DE549E859E36D812B
S1130C407E818F8198850E946C139B01AC01C50144
S1130C50B4010E9444114B015C01A701960169890A
S1130C607A898B899C890E944411A50194010E9470
S1130C70431120E030E040E05FE30E9444116B0147
S1130C807C018D899E8968E170E00E945B14072EC7
S1130C90000C880B990B0E945F129B01AC01C701E9
S1130CA0B6010E9444110E949A1266960FB6F894F7
S1130CB0DEBF0FBECDBFDF91CF91FF90EF90DF90ED
S1130CC0CF90BF90AF909F908F907F906F905F90E8
S1130CD04F9008954F925F926F927F928F929F925E
S1130CE0AF92BF92CF92DF92EF92FF92CF93DF93B6
S1130CF0CDB7DEB728970FB6F894DEBF0FBECDBFD1
S1130D005A0126E631EA45E15AE40E9443116B0197
S1130D107C01C50168E170E00E945B14072E000CA1
S1130D20880B990B0E945F129B01AC01C701B601AD
S1130D300E94431120E03DEA4EE057E40E94B511C1
S1130D406B017C019B01AC010E946C134B015C01A3
S1130D502DE03FE94CE057E4C701B6010E946C1353
S1130D602AEB33EC42EB53E40E9444112B013C0187
S1130D7026E139E743E259E3C501B4010E946C134B
S1130D809B01AC01C301B2010E9443112B013C0140
S1130D9029E539ED40E055E3C701B6010E946C1323
S1130DA09B01AC01C501B4010E946C139B01AC0111
S1130DB0C301B2010E9443112B013C0125EC30EA2E
S1130DC04CE057E4C701B6010E946C1325EB3BE3EA
S1130DD04CE853E40E94441169837A838B839C8397
S1130DE021ED36EF4EE959E3C501B4010E946C13BD
S1130DF09B01AC0169817A818B819C810E944411A1
S1130E0069837A838B839C832DEE37ED4DE95BE315
S1130E10C701B6010E946C139B01AC016DE971E13D
S1130E2085EF9FE30E9443116D837E838F839887B0
S1130E302BE831EE4AE657E3C501B4010E946C1376
S1130E409B01AC016D817E818F8198850E94431145
S1130E504B015C0125E33AEF4EE85CE3C301B201C8
S1130E600E946C130E94D9139B01AC01C501B4010B
S1130E700E946C134B015C0126EF3FEC43ED58E3F9
S1130E80C701B6010E946C139B01AC016CE578ECC0
S1130E9083EA9CE30E9443116B017C0125E33AEF52
S1130EA04EE05DE3C301B2010E946C130E94D913AA
S1130EB09B01AC01C701B6010E946C139B01AC01FC
S1130EC0C501B4010E9444116B017C0120E537E7A0
S1130ED046E55DE3C301B2010E946C130E94D9137D
S1130EE024E23BE048E959E30E946C139B01AC0106
S1130EF0C701B6010E9444119B01AC0169817A814A
S1130F008B819C810E94441125E33AEF4EE85CE317
S1130F100E946C136B017C012BED3FE049EC50E423
S1130F200E94B5110E949A122BED3FE049EC50E467
S1130F300E946C139B01AC01C701B6010E944311CE
S1130F402BED3FE049E450E40E94B51120E030E08D
S1130F5040EC50E40E946C130E949A1228960FB63B
S1130F60F894DEBF0FBECDBFDF91CF91FF90EF901D
S1130F70DF90CF90BF90AF909F908F907F906F90B5
S1130F805F904F9008958F929F92AF92BF92CF92AD
S1130F90DF92EF92FF92CF93DF93EB01AC016CE011
S1130FA08FE10E94030224EB36E643E15AE40E94F7
S1130FB0431125EA3EE34CEE51E40E94B5110E9430
S1130FC09A124B015C01AE010E94E9026B017C01A3
S1130FD0AE010E946A0620E030E040E151E40E9444
S1130FE0671388236CF020E030E040E85FE3C5013C
S1130FF0B4010E944311AE010E94E9026B017C011D
S1131000C701B601DF91CF91FF90EF90DF90CF90B1
S1131010BF90AF909F908F9008952F923F924F92E0
S11310205F926F927F928F929F92AF92BF92CF9274
S1131030DF92EF92FF920F931F93CF93DF93EA0116
S113104024EB36E643E15AE40E94431125EA3EE3E9
S11310504CEE51E40E94B51120E030E040E05FE343
S11310600E9444110E949A124B015C0120E030E07E
S113107040E85FE30E944411AE010E94E902AE0120
S11310800E946A06562E472E382E292E0F2EC12C6A
S1131090D12CF0E8EF2EFFE3FF2EF02D20E030E01E
S11310A040E85FE3C701B6010E9444116B017C0173
S11310B09B01AC01C501B4010E944411AE010E9420
S11310C0E902AE010E946A06162F072F782E692EB8
S11310D0262F372F482F592F652D742D832D922DB0
S11310E00E94B011882371F0512E402E372C262CEB
S11310F020E030E040E651E4C701B6010E94B0119F
S1131100882364F220E030E040E85FE3C701B601E1
S11311100E944311DF91CF911F910F91FF90EF90A7
S1131120DF90CF90BF90AF909F908F907F906F9003
S11311305F904F903F902F9008952F923F924F923F
S11311405F926F927F928F929F92AF92BF92CF9253
S1131150DF92EF92FF920F931F93CF93DF93EA01F5
S113116019010E9403024B015C0124EB36E643E1C2
S11311705AE40E94431125EA3EE34CEE51E40E94F6
S1131180B5110E949A122B013C0120E030E040E8A6
S11311905FE30E944411A1010E94E9026B017C01FA
S11311A09B01AC01C501B4010E94B01188233CF439
S11311B0A101C301B2010E94E9026B017C01B101EA
S11311C0CE010E94C307162F072F782E692E262FD3
S11311D0372F482F592FC701B6010E94B011181696
S11311E094F0D0939300C0939200B101CE01019783
S11311F00E94C307C12FD02F572C462C162F072F20
S1131200782E692E0DC0CE010196909393008093A1
S11312109200B1010E94C307C62FD72F582E492E22
S1131220A7019601C501B4010E94431120E030E0FA
S113123040E85FE30E9444110E94271270938300E8
S113124060938200212F302F472D562DC701B60100
S11312500E94431120E030E048EE51E40E94B511B1
S11312600E949A126B017C0120E030E040E351E4DB
S11312700E9444110E942712709385006093840099
S1131280212F302F472D562D6C2F7D2F852D942DFA
S11312900E94431120E030E846EB53E40E946713B8
S11312A01816ECF4A101612F702F872D962D0E9442
S11312B00D089B01AC01C701B6010E946713882386
S11312C074F020E030E040E251E4C701B6010E942E
S11312D044110E94271270938500609384008091CA
S11312E08400909185000D974CF08091840090913A
S11312F085000C97909385008093840080918400EE
S1131300909185000B979CF020E030E040E850E499
S1131310C701B6010E94B01188234CF48091920059
S11313209091930001979093930080939200DF91A2
S1131330CF911F910F91FF90EF90DF90CF90BF90CE
S1131340AF909F908F907F906F905F904F903F9061
S11313502F9008958FB9779BFECF0895CF93C62F12
S113136098B39F7E98BB0E94AA098C2F0E94AA0959
S113137088B3806188BBCF910895CF93C0916000FA
S11313806FE08C2F0E94AE09C150D1F7CF91089520
S11313900F931F93CF93DF9380917400811156C0F4
S11313A00E94BD096FE070E088E090E00E94AE0901
S11313B06FE070E087E090E00E94AE0980917100D8
S11313C090917200CAE0D0E0BE010E945B14BC019F
S11313D086E090E00E94AE098091710090917200C5
S11313E0BE010E945B1485E090E00E94AE098091EA
S11313F06F0090917000BE010E945B14BC0184E0F8
S113140090E00E94AE0980916F0090917000BE013F
S11314100E945B1483E090E00E94AE0980916D000D
S113142090916E00BE010E945B14BC0182E090E0CA
S11314300E94AE0980916D0090916E00BE010E94E1
S11314405B1481E090E00E94AE0928C18091740091
S1131450813009F076C00E94BD098091800090918E
S1131460810008EE13E0B8010E945B14CAE0D0E0EA
S1131470BE010E945B14BC0188E090E00E94AE09AA
S11314808091800090918100B8010E945B14BE019C
S11314900E945B14CB01BE010E945B14BC0187E077
S11314A090E00E94AE098091800090918100B80183
S11314B00E945B1464E670E00E945B14CB01BE01E1
S11314C00E945B14BC0186E090E00E94AE0980910A
S11314D0800090918100B8010E945B1485E090E047
S11314E00E94AE098091670090916800BE010E943D
S11314F05B14BC0184E090E00E94AE098091670017
S113150090916800BE010E945B1483E090E00E9409
S1131510AE098091690090916A00BE010E945B143B
S1131520BC0182E090E00E94AE0980916900909134
S11315306A00BE010E945B1481E090E00E94AE0943
S1131540ADC080917400823009F076C00E94BD095C
S1131550809192009091930008EE13E0B8010E94EC
S11315605B14CAE0D0E0BE010E945B14BC0188E0B9
S113157090E00E94AE098091920090919300B8018E
S11315800E945B14BE010E945B14CB01BE010E9449
S11315905B14BC0187E090E00E94AE098091920048
S11315A090919300B8010E945B1464E670E00E947D
S11315B05B14CB01BE010E945B14BC0186E090E089
S11315C00E94AE098091920090919300B8010E940C
S11315D05B1485E090E00E94AE09809184009091B4
S11315E08500BE010E945B14BC0184E090E00E946F
S11315F0AE098091840090918500BE010E945B1425
S113160083E090E00E94AE09809182009091830073
S1131610BE010E945B14BC0182E090E00E94AE090E
S11316208091820090918300BE010E945B1481E04E
S113163090E00E94AE0932C00E94BD0980917A00F8
S113164090917B00CAE0D0E0BE010E945B14BC0113
S113165084E090E00E94AE0980917A0090917B0032
S1131660BE010E945B1483E090E00E94AE09809169
S11316707C0090917D00BE010E945B14BC0182E05D
S113168090E00E94AE0980917C0090917D00BE01A3
S11316900E945B1481E090E00E94AE09DF91CF913B
S11316A01F910F91089585E083BF81E089BF7894ED
S11316B0089515BE14BE80EE8BBF7894089587B349
S11316C0806B87BB8DB182658DB967E08BE00E942A
S11316D0AE0965E08AE00E94AE0961E08CE00E94F8
S11316E0AE096FEF89E00E94AE090E94F7010E94E3
S11316F0530B0E94590B0E94580067E08BE890E05E
S11317000E94C3000E9429018FEC97E00197F1F732
S113171000C0000085B3806885BB8091650090910E
S113172066008053984F90938100809380002091AD
S1131730610030916200409180005091810060917D
S11317406700709168008091690090916A000E941E
S11317509D080E94C809DECF1F920F920FB60F9208
S113176011240F931F932F933F934F935F936F9382
S11317707F938F939F93AF93BF93CF93DF93EF9315
S1131780FF9380917800909179000196909379006D
S11317908093780080917800909179000A9728F1DD
S11317A08091770081111DC00E945E008FEC97E04C
S11317B00197F1F700C0000067E08BE890E00E9419
S11317C0C30080918B000E94060190E0209171007B
S11317D0309172008217930721F00E9429010E9420
S11317E0C809109279001092780080917800909145
S11317F07900069708F452C080917800909179009E
S11318000A9708F04BC080917500813009F046C0FA
S113181080917400811142C06FEF89E00E94AE098B
S11318200E94BD096FE088E00E94AE096FE087E086
S11318300E94AE098091710090917200CAE0D0E0DC
S1131840BE010E945B14682F86E00E94AE0980915D
S1131850710090917200BE010E945B1485E00E94A9
S1131860AE0980916F0090917000BE010E945B14DC
S1131870682F84E00E94AE0980916F0090917000FF
S1131880BE010E945B1483E00E94AE096FE082E017
S11318900E94AE096FE081E00E94AE098091780059
S11318A090917900069708F452C080917800909145
S11318B079000A9708F04BC080917500823009F0D6
S11318C046C080917400811142C06FEF89E00E948C
S11318D0AE090E94BD096FE088E00E94AE096FE086
S11318E087E00E94AE098091710090917200CAE075
S11318F0D0E0BE010E945B14682F86E00E94AE090E
S11319008091710090917200BE010E945B1485E089
S11319100E94AE096FE084E00E94AE096FE083E0AC
S11319200E94AE0980916D0090916E00BE010E94EC
S11319305B14682F82E00E94AE0980916D00909143
S11319406E00BE010E945B1481E00E94AE0980918A
S1131950780090917900069708F452C0809178003D
S1131960909179000A9708F04BC0809175008330FC
S113197009F046C080917400811142C06FEF89E084
S11319800E94AE090E94BD096FE088E00E94AE0982
S11319906FE087E00E94AE096FE086E00E94AE0926
S11319A06FE085E00E94AE0980916F009091700015
S11319B0CAE0D0E0BE010E945B14682F84E00E945C
S11319C0AE0980916F0090917000BE010E945B147B
S11319D083E00E94AE0980916D0090916E00BE017B
S11319E00E945B14682F82E00E94AE0980916D0012
S11319F090916E00BE010E945B1481E00E94AE09CA
S1131A008091780090917900069708F475C08091D0
S1131A107800909179000A9708F06EC08091750063
S1131A20813009F069C080917400813009F064C08C
S1131A306FEF89E00E94AE090E94BD098091800089
S1131A409091810008EE13E0B8010E945B14CAE093
S1131A50D0E0BE010E945B14682F88E00E94AE09AA
S1131A608091800090918100B8010E945B14BE01B6
S1131A700E945B14CB01BE010E945B14682F87E0B7
S1131A800E94AE098091800090918100B8010E946B
S1131A905B1464E670E00E945B14CB01BE010E94FB
S1131AA05B14682F86E00E94AE09809180009091BB
S1131AB08100B8010E945B1485E00E94AE09809108
S1131AC0670090916800BE010E945B14682F84E057
S1131AD00E94AE098091670090916800BE010E9447
S1131AE05B1483E00E94AE096FE082E00E94AE09BD
S1131AF06FE081E00E94AE098091780090917900B6
S1131B00069708F475C080917800909179000A973F
S1131B1008F06EC080917500823009F069C0809130
S1131B207400813009F064C06FEF89E00E94AE094F
S1131B300E94BD09809180009091810008EE13E01D
S1131B40B8010E945B14CAE0D0E0BE010E945B149D
S1131B50682F88E00E94AE098091800090918100F6
S1131B60B8010E945B14BE010E945B14CB01BE014C
S1131B700E945B14682F87E00E94AE098091800068
S1131B8090918100B8010E945B1464E670E00E94A9
S1131B905B14CB01BE010E945B14682F86E00E9497
S1131BA0AE098091800090918100B8010E945B147D
S1131BB085E00E94AE096FE084E00E94AE096FE008
S1131BC083E00E94AE098091690090916A00BE0191
S1131BD00E945B14682F82E00E94AE098091690024
S1131BE090916A00BE010E945B1481E00E94AE09DC
S1131BF08091780090917900069708F453C0809101
S1131C007800909179000A9708F04CC08091750093
S1131C10833009F047C080917400813009F042C0DC
S1131C206FEF89E00E94AE090E94BD096FE088E071
S1131C300E94AE096FE087E00E94AE096FE086E083
S1131C400E94AE096FE085E00E94AE0980916700B2
S1131C5090916800CAE0D0E0BE010E945B14682F36
S1131C6084E00E94AE098091670090916800BE01F3
S1131C700E945B1483E00E94AE09809169009091F8
S1131C806A00BE010E945B14682F82E00E94AE09C4
S1131C908091690090916A00BE010E945B1481E00A
S1131CA00E94AE098091780090917900069708F41B
S1131CB043C080917800909179000A97E8F580916B
S1131CC075008130C9F5809174008330A9F56FEFF8
S1131CD089E00E94AE090E94BD096FE088E00E947D
S1131CE0AE096FE087E00E94AE096FE086E00E94D3
S1131CF0AE096FE085E00E94AE0980917A00909170
S1131D007B00CAE0D0E0BE010E945B14682F84E02F
S1131D100E94AE0980917A0090917B00BE010E94DE
S1131D205B1483E00E94AE096FE082E00E94AE097A
S1131D306FE081E00E94AE09809178009091790073
S1131D40069708F443C080917800909179000A972F
S1131D50E8F5809175008230C9F580917400833074
S1131D60A9F56FEF89E00E94AE090E94BD096FE0FA
S1131D7088E00E94AE096FE087E00E94AE096FE040
S1131D8086E00E94AE096FE085E00E94AE096FE034
S1131D9084E00E94AE096FE083E00E94AE09809166
S1131DA07C0090917D00CAE0D0E0BE010E945B14EB
S1131DB0682F82E00E94AE0980917C0090917D00A2
S1131DC0BE010E945B1481E00E94AE09FF91EF9175
S1131DD0DF91CF91BF91AF919F918F917F916F913F
S1131DE05F914F913F912F911F910F910F900FBED3
S1131DF00F901F9018951F920F920FB60F921124F7
S1131E002F933F934F935F936F937F938F939F93FE
S1131E10AF93BF93EF93FF938091770081110BC031
S1131E20909174009F5F909374009091740094302B
S1131E3010F0109274009091740091110AC08823DC
S1131E4041F010927400109275000E947E0110926D
S1131E50770080917400813069F480917700882341
S1131E6049F081E080937400109275000E947E0115
S1131E701092770080917400833071F48091770020
S1131E80882351F083E0809374001092750081E000
S1131E9080937600109277002FE788E391E0215039
S1131EA080409040E1F700C00000FF91EF91BF91A6
S1131EB0AF919F918F917F916F915F914F913F91DE
S1131EC02F910F900FBE0F901F9018951F920F9295
S1131ED00FB60F9211242F938F939F9381E08093D9
S1131EE07700809175008F5F8093750080917400F6
S1131EF0811108C080917500843020F01092750023
S1131F001092770080917400813041F480917500C3
S1131F10843020F010927500109277008091740044
S1131F20833051F480917500833030F01092750045
S1131F3010927600109277002FE788E391E0215009
S1131F4080409040E1F700C000009F918F912F9155
S1131F500F900FBE0F901F9018951F920F920FB6FF
S1131F600F9211242F933F938F939F938091760028
S1131F70882339F080917700811103C01092760094
S1131F8012BA80917700882309F451C090917400AB
S1131F9091114DC0909175009130B1F420916D0074
S1131FA030916E002F5F3F4F30936E0020936D0091
S1131FB020916D0030916E0028313105C4F11092EA
S1131FC06E0010926D0033C0909175009230B1F4A0
S1131FD020916F00309170002F5F3F4F309370005D
S1131FE020936F0020916F00309170002C333105E5
S1131FF0F4F01092700010926F0019C09091750067
S11320009330A9F420917100309172002F5F3F4FFB
S1132010309372002093710020917100309172000E
S11320202C33310524F01092720010927100882331
S113203009F4E3C090917400913009F0DEC09091EE
S11320407500913009F0A4C02091690030916A00B4
S11320502F5F3F4F30936A002093690020916700FF
S11320603091680024303105A9F020916700309147
S113207068002630310571F02091670030916800C6
S11320802930310539F020916700309168002B30F8
S1132090310579F42091690030916A002F313105BE
S11320A00CF4ABC021E030E030936A002093690067
S11320B0A4C020916700309168002130310551F1AE
S11320C020916700309168002330310519F1209187
S11320D067003091680025303105E1F020916700F8
S11320E03091680027303105A9F0209167003091C4
S11320F068002830310571F0209167003091680044
S11321002A30310539F020916700309168002C3075
S1132110310579F42091690030916A00203231054B
S11321200CF46BC021E030E030936A002093690026
S113213064C020918000309181002D5F3F4F273093
S11321403105C0F4209180003091810021573E4F29
S11321502F31334078F42091690030916A002E3198
S113216031050CF44AC021E030E030936A0020933A
S1132170690043C02091690030916A002D31310516
S1132180E4F121E030E030936A002093690035C027
S1132190909175009230C1F42091670030916800ED
S11321A02F5F3F4F309368002093670020916700B2
S11321B0309168002D30310504F121E030E0309396
S11321C068002093670019C0909175009330A9F4BA
S11321D020916500309166002F5F3F4F3093660079
S11321E02093650020916500309166002436310506
S11321F024F01092660010926500882391F180917A
S11322007400833071F580917500813099F4809168
S11322107C0090917D00019690937D0080937C00DA
S113222080917C0090917D00489724F010927D006D
S113223010927C0080917500823099F480917A002C
S113224090917B00019690937B0080937A0080911B
S11322507A0090917B00CC9724F010927B0010922E
S11322607A002FE788E391E0215080409040E1F725
S113227000C000009F918F913F912F910F900FBE4E
S11322800F901F9018955058BB27AA270E945B11E6
S11322900C9415130E94071338F00E940E1320F0BB
S11322A039F49F3F19F426F40C9404130EF4E095CA
S11322B0E7FB0C94D512E92F0E94261358F3BA17A2
S11322C0620773078407950720F079F4A6F50C9448
S11322D060130EF4E0950B2EBA2FA02D0B01B9015B
S11322E090010C01CA01A0011124FF27591B99F088
S11322F0593F50F4503E68F11A16F040A22F232F94
S1132300342F4427585FF3CF469537952795A795E3
S1132310F0405395C9F77EF41F16BA0B620B730B8A
S1132320840BBAF09150A1F0FF0FBB1F661F771FFB
S1132330881FC2F70EC0BA0F621F731F841F48F4B0
S1132340879577956795B795F7959E3F08F0B0CF39
S11323509395880F08F09927EE0F97958795089520
S11323600E94B11208F481E008950E94C9110C94EE
S113237015130E940E1358F00E94071340F029F41D
S11323805F3F29F00C94D51251110C9461130C94F5
S113239004130E94261368F39923B1F3552391F390
S11323A0951B550BBB27AA2762177307840738F0C0
S11323B09F5F5F4F220F331F441FAA1FA9F335D01D
S11323C00E2E3AF0E0E832D091505040E695001CD1
S11323D0CAF72BD0FE2F29D0660F771F881FBB1F8B
S11323E0261737074807AB07B0E809F0BB0B802D69
S11323F0BF01FF2793585F4F3AF09E3F510578F095
S11324000C94D5120C9461135F3FE4F3983ED4F31B
S1132410869577956795B795F7959F5FC9F7880F68
S1132420911D9695879597F90895E1E0660F771FBA
S1132430881FBB1F621773078407BA0720F0621B4B
S1132440730B840BBA0BEE1F88F7E09508950E9476
S11324502E126894B1110C94611308950E942E13E6
S113246088F09F5798F0B92F9927B751B0F0E1F051
S1132470660F771F881F991F1AF0BA95C9F714C001
S1132480B13091F00E946013B1E008950C94601390
S1132490672F782F8827B85F39F0B93FCCF386953A
S11324A077956795B395D9F73EF490958095709597
S11324B061957F4F8F4F9F4F0895E89409C097FB14
S11324C03EF490958095709561957F4F8F4F9F4F07
S11324D09923A9F0F92F96E9BB279395F69587954B
S11324E077956795B795F111F8CFFAF4BB0F11F40E
S11324F060FF1BC06F5F7F4F8F4F9F4F16C08823B5
S113250011F096E911C0772321F09EE8872F762FEA
S113251005C0662371F096E8862F70E060E02AF02B
S11325209A95660F771F881FDAF7880F9695879517
S113253097F908950E94481390F09F3748F4911139
S113254016F00C94611360E070E080E89FEB08954E
S113255026F41B16611D711D811D0C94DB120C9455
S1132560F612990F0008550FAA0BE0E8FEEF1616B5
S11325701706E807F907C0F012161306E407F50773
S113258098F0621B730B840B950B39F40A2661F0E7
S1132590232B242B252B21F408950A2609F4A1408A
S11325A0A6958FEF811D811D089597F99F6780E897
S11325B070E060E00895882371F4772321F0985047
S11325C0872B762F07C0662311F499270DC09051ED
S11325D0862B70E060E02AF09A95660F771F881FBB
S11325E0DAF7880F9695879597F908959F3F31F00C
S11325F0915020F4879577956795B795880F911D2D
S11326009695879597F908959FEF80EC0895002497
S11326100A941616170618060906089500240A9443
S113262012161306140605060895092E0394000CC9
S113263011F4882352F0BB0F40F4BF2B11F460FF58
S113264004C06F5F7F4F8F4F9F4F089557FD905881
S1132650440F551F59F05F3F71F04795880F97FB62
S1132660991F61F09F3F79F087950895121613061C
S11326701406551FF2CF4695F1DF08C0161617064B
S11326801806991FF1CF8695710561050894089580
S11326900E942E13A0F0BEE7B91788F4BB279F3819
S11326A060F41616B11D672F782F8827985FF7CF2F
S11326B0869577956795B11D93959639C8F30895D6
S11326C0E894BB2766277727CB0197F908950E94E2
S11326D0B11208F48FEF08950E947F130C94151320
S11326E00E94071338F00E940E1320F0952311F076
S11326F00C94D5120C94041311240C9461130E94AD
S1132700261370F3959FC1F3950F50E0551F629FF8
S1132710F001729FBB27F00DB11D639FAA27F00D36
S1132720B11DAA1F649F6627B00DA11D661F829F5D
S11327302227B00DA11D621F739FB00DA11D621F42
S1132740839FA00D611D221F749F3327A00D611D5F
S1132750231F849F600D211D822F762F6A2F112441
S11327609F5750409AF0F1F088234AF0EE0FFF1F74
S1132770BB1F661F771F881F91505040A9F79E3FCB
S1132780510580F00C94D5120C9461135F3FE4F36F
S1132790983ED4F3869577956795B795F795E79521
S11327A09F5FC1F7FE2B880F911D9695879597F92A
S11327B008959F930E94E3130F9007FCEE5F0C941F
S11327C00C140C9404130E942E13D8F3E894E0E044
S11327D0BB279F57F0F02AED3FE049EC06C0EE0F0F
S11327E0BB0F661F771F881F28F0B23A6207730772
S11327F0840728F0B25A620B730B840BE3959A9505
S113280072F7803830F49A95BB0F661F771F881FC4
S1132810D2F790480C94F812EF93E0FF07C0A2EAB5
S11328202AED3FE049EC5FEB0E945B110E94151317
S11328300F90039401FC9058E4E5F0E00C9420140C
S11328409F938F937F936F93FF93EF939B01AC01BF
S11328500E946C13EF91FF910E9434142F913F91C9
S11328604F915F910C946C13DF93CF931F930F934D
S1132870FF92EF92DF927B018C01689406C0DA2EFE
S1132880EF010E947F13FE01E894A59125913591F3
S113289045915591A6F3EF010E945B11FE0197014A
S11328A0A801DA9469F7DF90EF90FF900F911F91E0
S11328B0CF91DF91089597FB072E16F4009407D06B
S11328C077FD09D00E946F1407FC05D03EF4909563
S11328D081959F4F0895709561957F4F0895AA1B28
S11328E0BB1B51E107C0AA1FBB1FA617B70710F0F7
S11328F0A61BB70B881F991F5A95A9F78095909529
S10D2900BC01CD010895F894FFCF47
S113290A080700010015000C00120007000B003331
S107291A0032000083
S9030000FC
